{
  "contracts/Crea2ors_Manager.sol": {
    "Crea2ors_Manager": {
      "abi": [
        {
          "inputs": [
            {
              "internalType": "address",
              "name": "newAddress",
              "type": "address"
            }
          ],
          "name": "addCollection",
          "outputs": [],
          "stateMutability": "nonpayable",
          "type": "function"
        },
        {
          "inputs": [
            {
              "internalType": "address",
              "name": "collectionAddress",
              "type": "address"
            },
            {
              "internalType": "address",
              "name": "from",
              "type": "address"
            },
            {
              "internalType": "address",
              "name": "to",
              "type": "address"
            },
            {
              "internalType": "uint256",
              "name": "id",
              "type": "uint256"
            },
            {
              "internalType": "uint256",
              "name": "amount",
              "type": "uint256"
            }
          ],
          "name": "transferNFT",
          "outputs": [],
          "stateMutability": "nonpayable",
          "type": "function"
        }
      ],
      "evm": {
        "bytecode": {
          "linkReferences": {},
          "object": "608060405234801561001057600080fd5b5061022f806100206000396000f3fe608060405234801561001057600080fd5b50600436106100365760003560e01c8063a174e77a1461003b578063c4d6866f1461009a575b600080fd5b610098610049366004610182565b73ffffffffffffffffffffffffffffffffffffffff16600081815260208190526040902080547fffffffffffffffffffffffff0000000000000000000000000000000000000000169091179055565b005b6100986100a83660046101a4565b73ffffffffffffffffffffffffffffffffffffffff858116600090815260208190526040908190205490517fa6f400fa00000000000000000000000000000000000000000000000000000000815260048101859052602481018490528683166044820152858316606482015291169063a6f400fa90608401600060405180830381600087803b15801561013a57600080fd5b505af115801561014e573d6000803e3d6000fd5b505050505050505050565b803573ffffffffffffffffffffffffffffffffffffffff8116811461017d57600080fd5b919050565b60006020828403121561019457600080fd5b61019d82610159565b9392505050565b600080600080600060a086880312156101bc57600080fd5b6101c586610159565b94506101d360208701610159565b93506101e160408701610159565b9497939650939460608101359450608001359291505056fea2646970667358221220161bc519fb95d4be527769ca0d2fb4b67782c9626baf0d4abab373ca56bf538264736f6c63430008050033",
          "opcodes": "PUSH1 0x80 PUSH1 0x40 MSTORE CALLVALUE DUP1 ISZERO PUSH2 0x10 JUMPI PUSH1 0x0 DUP1 REVERT JUMPDEST POP PUSH2 0x22F DUP1 PUSH2 0x20 PUSH1 0x0 CODECOPY PUSH1 0x0 RETURN INVALID PUSH1 0x80 PUSH1 0x40 MSTORE CALLVALUE DUP1 ISZERO PUSH2 0x10 JUMPI PUSH1 0x0 DUP1 REVERT JUMPDEST POP PUSH1 0x4 CALLDATASIZE LT PUSH2 0x36 JUMPI PUSH1 0x0 CALLDATALOAD PUSH1 0xE0 SHR DUP1 PUSH4 0xA174E77A EQ PUSH2 0x3B JUMPI DUP1 PUSH4 0xC4D6866F EQ PUSH2 0x9A JUMPI JUMPDEST PUSH1 0x0 DUP1 REVERT JUMPDEST PUSH2 0x98 PUSH2 0x49 CALLDATASIZE PUSH1 0x4 PUSH2 0x182 JUMP JUMPDEST PUSH20 0xFFFFFFFFFFFFFFFFFFFFFFFFFFFFFFFFFFFFFFFF AND PUSH1 0x0 DUP2 DUP2 MSTORE PUSH1 0x20 DUP2 SWAP1 MSTORE PUSH1 0x40 SWAP1 KECCAK256 DUP1 SLOAD PUSH32 0xFFFFFFFFFFFFFFFFFFFFFFFF0000000000000000000000000000000000000000 AND SWAP1 SWAP2 OR SWAP1 SSTORE JUMP JUMPDEST STOP JUMPDEST PUSH2 0x98 PUSH2 0xA8 CALLDATASIZE PUSH1 0x4 PUSH2 0x1A4 JUMP JUMPDEST PUSH20 0xFFFFFFFFFFFFFFFFFFFFFFFFFFFFFFFFFFFFFFFF DUP6 DUP2 AND PUSH1 0x0 SWAP1 DUP2 MSTORE PUSH1 0x20 DUP2 SWAP1 MSTORE PUSH1 0x40 SWAP1 DUP2 SWAP1 KECCAK256 SLOAD SWAP1 MLOAD PUSH32 0xA6F400FA00000000000000000000000000000000000000000000000000000000 DUP2 MSTORE PUSH1 0x4 DUP2 ADD DUP6 SWAP1 MSTORE PUSH1 0x24 DUP2 ADD DUP5 SWAP1 MSTORE DUP7 DUP4 AND PUSH1 0x44 DUP3 ADD MSTORE DUP6 DUP4 AND PUSH1 0x64 DUP3 ADD MSTORE SWAP2 AND SWAP1 PUSH4 0xA6F400FA SWAP1 PUSH1 0x84 ADD PUSH1 0x0 PUSH1 0x40 MLOAD DUP1 DUP4 SUB DUP2 PUSH1 0x0 DUP8 DUP1 EXTCODESIZE ISZERO DUP1 ISZERO PUSH2 0x13A JUMPI PUSH1 0x0 DUP1 REVERT JUMPDEST POP GAS CALL ISZERO DUP1 ISZERO PUSH2 0x14E JUMPI RETURNDATASIZE PUSH1 0x0 DUP1 RETURNDATACOPY RETURNDATASIZE PUSH1 0x0 REVERT JUMPDEST POP POP POP POP POP POP POP POP POP JUMP JUMPDEST DUP1 CALLDATALOAD PUSH20 0xFFFFFFFFFFFFFFFFFFFFFFFFFFFFFFFFFFFFFFFF DUP2 AND DUP2 EQ PUSH2 0x17D JUMPI PUSH1 0x0 DUP1 REVERT JUMPDEST SWAP2 SWAP1 POP JUMP JUMPDEST PUSH1 0x0 PUSH1 0x20 DUP3 DUP5 SUB SLT ISZERO PUSH2 0x194 JUMPI PUSH1 0x0 DUP1 REVERT JUMPDEST PUSH2 0x19D DUP3 PUSH2 0x159 JUMP JUMPDEST SWAP4 SWAP3 POP POP POP JUMP JUMPDEST PUSH1 0x0 DUP1 PUSH1 0x0 DUP1 PUSH1 0x0 PUSH1 0xA0 DUP7 DUP9 SUB SLT ISZERO PUSH2 0x1BC JUMPI PUSH1 0x0 DUP1 REVERT JUMPDEST PUSH2 0x1C5 DUP7 PUSH2 0x159 JUMP JUMPDEST SWAP5 POP PUSH2 0x1D3 PUSH1 0x20 DUP8 ADD PUSH2 0x159 JUMP JUMPDEST SWAP4 POP PUSH2 0x1E1 PUSH1 0x40 DUP8 ADD PUSH2 0x159 JUMP JUMPDEST SWAP5 SWAP8 SWAP4 SWAP7 POP SWAP4 SWAP5 PUSH1 0x60 DUP2 ADD CALLDATALOAD SWAP5 POP PUSH1 0x80 ADD CALLDATALOAD SWAP3 SWAP2 POP POP JUMP INVALID LOG2 PUSH5 0x6970667358 0x22 SLT KECCAK256 AND SHL 0xC5 NOT 0xFB SWAP6 0xD4 0xBE MSTORE PUSH24 0x69CA0D2FB4B67782C9626BAF0D4ABAB373CA56BF53826473 PUSH16 0x6C634300080500330000000000000000 "
        },
        "methodIdentifiers": {
          "addCollection(address)": "a174e77a",
          "transferNFT(address,address,address,uint256,uint256)": "c4d6866f"
        }
      }
    }
  }
}