{
  "_format": "hh-sol-artifact-1",
  "contractName": "Crea2ors_Manager",
  "sourceName": "contracts/Crea2ors_Manager.sol",
  "abi": [
    {
      "inputs": [
        {
          "internalType": "address",
          "name": "newAddress",
          "type": "address"
        }
      ],
      "name": "addCollection",
      "outputs": [],
      "stateMutability": "nonpayable",
      "type": "function"
    },
    {
      "inputs": [
        {
          "internalType": "address",
          "name": "collectionAddress",
          "type": "address"
        },
        {
          "internalType": "address",
          "name": "from",
          "type": "address"
        },
        {
          "internalType": "address",
          "name": "to",
          "type": "address"
        },
        {
          "internalType": "uint256",
          "name": "id",
          "type": "uint256"
        },
        {
          "internalType": "uint256",
          "name": "amount",
          "type": "uint256"
        }
      ],
      "name": "transferNFT",
      "outputs": [],
      "stateMutability": "nonpayable",
      "type": "function"
    }
  ],
  "bytecode": "0x608060405234801561001057600080fd5b5061022f806100206000396000f3fe608060405234801561001057600080fd5b50600436106100365760003560e01c8063a174e77a1461003b578063c4d6866f1461009a575b600080fd5b610098610049366004610182565b73ffffffffffffffffffffffffffffffffffffffff16600081815260208190526040902080547fffffffffffffffffffffffff0000000000000000000000000000000000000000169091179055565b005b6100986100a83660046101a4565b73ffffffffffffffffffffffffffffffffffffffff858116600090815260208190526040908190205490517fa6f400fa00000000000000000000000000000000000000000000000000000000815260048101859052602481018490528683166044820152858316606482015291169063a6f400fa90608401600060405180830381600087803b15801561013a57600080fd5b505af115801561014e573d6000803e3d6000fd5b505050505050505050565b803573ffffffffffffffffffffffffffffffffffffffff8116811461017d57600080fd5b919050565b60006020828403121561019457600080fd5b61019d82610159565b9392505050565b600080600080600060a086880312156101bc57600080fd5b6101c586610159565b94506101d360208701610159565b93506101e160408701610159565b9497939650939460608101359450608001359291505056fea2646970667358221220161bc519fb95d4be527769ca0d2fb4b67782c9626baf0d4abab373ca56bf538264736f6c63430008050033",
  "linkReferences": {},
  "deployedLinkReferences": {}
}