{
  "_format": "hh-sol-artifact-1",
  "contractName": "Crea2orsNFT",
  "sourceName": "contracts/Crea2orsNFT_v2.0.sol",
  "abi": [
    {
      "inputs": [
        {
          "internalType": "string",
          "name": "name_",
          "type": "string"
        },
        {
          "internalType": "string",
          "name": "symbol_",
          "type": "string"
        },
        {
          "internalType": "string",
          "name": "contractURI_",
          "type": "string"
        },
        {
          "internalType": "uint256",
          "name": "totalLimit_",
          "type": "uint256"
        }
      ],
      "stateMutability": "nonpayable",
      "type": "constructor"
    },
    {
      "anonymous": false,
      "inputs": [
        {
          "indexed": true,
          "internalType": "address",
          "name": "account",
          "type": "address"
        },
        {
          "indexed": true,
          "internalType": "address",
          "name": "operator",
          "type": "address"
        },
        {
          "indexed": false,
          "internalType": "bool",
          "name": "approved",
          "type": "bool"
        }
      ],
      "name": "ApprovalForAll",
      "type": "event"
    },
    {
      "anonymous": false,
      "inputs": [
        {
          "indexed": false,
          "internalType": "address",
          "name": "",
          "type": "address"
        },
        {
          "indexed": false,
          "internalType": "string",
          "name": "",
          "type": "string"
        }
      ],
      "name": "ContractDeployed",
      "type": "event"
    },
    {
      "anonymous": false,
      "inputs": [
        {
          "indexed": false,
          "internalType": "string",
          "name": "",
          "type": "string"
        }
      ],
      "name": "ContractURIChanged",
      "type": "event"
    },
    {
      "anonymous": false,
      "inputs": [
        {
          "indexed": true,
          "internalType": "address",
          "name": "previousOwner",
          "type": "address"
        },
        {
          "indexed": true,
          "internalType": "address",
          "name": "newOwner",
          "type": "address"
        }
      ],
      "name": "OwnershipTransferred",
      "type": "event"
    },
    {
      "anonymous": false,
      "inputs": [
        {
          "indexed": false,
          "internalType": "uint256",
          "name": "",
          "type": "uint256"
        },
        {
          "indexed": false,
          "internalType": "string",
          "name": "",
          "type": "string"
        }
      ],
      "name": "TokenURIChanged",
      "type": "event"
    },
    {
      "anonymous": false,
      "inputs": [
        {
          "indexed": true,
          "internalType": "address",
          "name": "operator",
          "type": "address"
        },
        {
          "indexed": true,
          "internalType": "address",
          "name": "from",
          "type": "address"
        },
        {
          "indexed": true,
          "internalType": "address",
          "name": "to",
          "type": "address"
        },
        {
          "indexed": false,
          "internalType": "uint256[]",
          "name": "ids",
          "type": "uint256[]"
        },
        {
          "indexed": false,
          "internalType": "uint256[]",
          "name": "values",
          "type": "uint256[]"
        }
      ],
      "name": "TransferBatch",
      "type": "event"
    },
    {
      "anonymous": false,
      "inputs": [
        {
          "indexed": true,
          "internalType": "address",
          "name": "operator",
          "type": "address"
        },
        {
          "indexed": true,
          "internalType": "address",
          "name": "from",
          "type": "address"
        },
        {
          "indexed": true,
          "internalType": "address",
          "name": "to",
          "type": "address"
        },
        {
          "indexed": false,
          "internalType": "uint256",
          "name": "id",
          "type": "uint256"
        },
        {
          "indexed": false,
          "internalType": "uint256",
          "name": "value",
          "type": "uint256"
        }
      ],
      "name": "TransferSingle",
      "type": "event"
    },
    {
      "anonymous": false,
      "inputs": [
        {
          "indexed": false,
          "internalType": "string",
          "name": "value",
          "type": "string"
        },
        {
          "indexed": true,
          "internalType": "uint256",
          "name": "id",
          "type": "uint256"
        }
      ],
      "name": "URI",
      "type": "event"
    },
    {
      "inputs": [
        {
          "internalType": "address",
          "name": "account",
          "type": "address"
        },
        {
          "internalType": "uint256",
          "name": "id",
          "type": "uint256"
        }
      ],
      "name": "balanceOf",
      "outputs": [
        {
          "internalType": "uint256",
          "name": "",
          "type": "uint256"
        }
      ],
      "stateMutability": "view",
      "type": "function"
    },
    {
      "inputs": [
        {
          "internalType": "address[]",
          "name": "accounts",
          "type": "address[]"
        },
        {
          "internalType": "uint256[]",
          "name": "ids",
          "type": "uint256[]"
        }
      ],
      "name": "balanceOfBatch",
      "outputs": [
        {
          "internalType": "uint256[]",
          "name": "",
          "type": "uint256[]"
        }
      ],
      "stateMutability": "view",
      "type": "function"
    },
    {
      "inputs": [
        {
          "internalType": "address",
          "name": "from",
          "type": "address"
        },
        {
          "internalType": "address",
          "name": "to",
          "type": "address"
        },
        {
          "internalType": "uint256[]",
          "name": "ids",
          "type": "uint256[]"
        },
        {
          "internalType": "uint256[]",
          "name": "amounts",
          "type": "uint256[]"
        },
        {
          "internalType": "bytes",
          "name": "data",
          "type": "bytes"
        }
      ],
      "name": "batchTransferFrom",
      "outputs": [],
      "stateMutability": "payable",
      "type": "function"
    },
    {
      "inputs": [
        {
          "internalType": "uint256",
          "name": "_id",
          "type": "uint256"
        },
        {
          "internalType": "uint256",
          "name": "_amount",
          "type": "uint256"
        }
      ],
      "name": "burn",
      "outputs": [],
      "stateMutability": "payable",
      "type": "function"
    },
    {
      "inputs": [],
      "name": "contractURI",
      "outputs": [
        {
          "internalType": "string",
          "name": "",
          "type": "string"
        }
      ],
      "stateMutability": "view",
      "type": "function"
    },
    {
      "inputs": [
        {
          "internalType": "uint256",
          "name": "",
          "type": "uint256"
        }
      ],
      "name": "curMintedSupplies",
      "outputs": [
        {
          "internalType": "uint256",
          "name": "",
          "type": "uint256"
        }
      ],
      "stateMutability": "view",
      "type": "function"
    },
    {
      "inputs": [
        {
          "internalType": "string",
          "name": "_name",
          "type": "string"
        },
        {
          "internalType": "string",
          "name": "_symbol",
          "type": "string"
        }
      ],
      "name": "init",
      "outputs": [],
      "stateMutability": "nonpayable",
      "type": "function"
    },
    {
      "inputs": [
        {
          "internalType": "uint256",
          "name": "",
          "type": "uint256"
        }
      ],
      "name": "initialSupplies",
      "outputs": [
        {
          "internalType": "uint256",
          "name": "",
          "type": "uint256"
        }
      ],
      "stateMutability": "view",
      "type": "function"
    },
    {
      "inputs": [
        {
          "internalType": "address",
          "name": "account",
          "type": "address"
        },
        {
          "internalType": "address",
          "name": "operator",
          "type": "address"
        }
      ],
      "name": "isApprovedForAll",
      "outputs": [
        {
          "internalType": "bool",
          "name": "",
          "type": "bool"
        }
      ],
      "stateMutability": "view",
      "type": "function"
    },
    {
      "inputs": [],
      "name": "name",
      "outputs": [
        {
          "internalType": "string",
          "name": "",
          "type": "string"
        }
      ],
      "stateMutability": "view",
      "type": "function"
    },
    {
      "inputs": [],
      "name": "owner",
      "outputs": [
        {
          "internalType": "address",
          "name": "",
          "type": "address"
        }
      ],
      "stateMutability": "view",
      "type": "function"
    },
    {
      "inputs": [
        {
          "internalType": "address",
          "name": "redeemer",
          "type": "address"
        },
        {
          "components": [
            {
              "internalType": "uint256",
              "name": "tokenId",
              "type": "uint256"
            },
            {
              "internalType": "string",
              "name": "metaUri",
              "type": "string"
            },
            {
              "internalType": "uint256",
              "name": "mintCount",
              "type": "uint256"
            },
            {
              "internalType": "uint256",
              "name": "minPrice",
              "type": "uint256"
            },
            {
              "internalType": "uint256",
              "name": "initialSupply",
              "type": "uint256"
            },
            {
              "internalType": "uint256",
              "name": "royaltyFee",
              "type": "uint256"
            },
            {
              "internalType": "address",
              "name": "royaltyAddress",
              "type": "address"
            },
            {
              "internalType": "bytes",
              "name": "traits",
              "type": "bytes"
            },
            {
              "internalType": "bytes",
              "name": "signature",
              "type": "bytes"
            }
          ],
          "internalType": "struct Crea2orsNFT.NFTVoucher",
          "name": "voucher",
          "type": "tuple"
        }
      ],
      "name": "redeem",
      "outputs": [
        {
          "internalType": "uint256",
          "name": "",
          "type": "uint256"
        }
      ],
      "stateMutability": "payable",
      "type": "function"
    },
    {
      "inputs": [],
      "name": "renounceOwnership",
      "outputs": [],
      "stateMutability": "nonpayable",
      "type": "function"
    },
    {
      "inputs": [
        {
          "internalType": "uint256",
          "name": "",
          "type": "uint256"
        }
      ],
      "name": "royaltyAddresses",
      "outputs": [
        {
          "internalType": "address",
          "name": "",
          "type": "address"
        }
      ],
      "stateMutability": "view",
      "type": "function"
    },
    {
      "inputs": [
        {
          "internalType": "uint256",
          "name": "",
          "type": "uint256"
        }
      ],
      "name": "royaltyFees",
      "outputs": [
        {
          "internalType": "uint256",
          "name": "",
          "type": "uint256"
        }
      ],
      "stateMutability": "view",
      "type": "function"
    },
    {
      "inputs": [
        {
          "internalType": "address",
          "name": "from",
          "type": "address"
        },
        {
          "internalType": "address",
          "name": "to",
          "type": "address"
        },
        {
          "internalType": "uint256[]",
          "name": "ids",
          "type": "uint256[]"
        },
        {
          "internalType": "uint256[]",
          "name": "amounts",
          "type": "uint256[]"
        },
        {
          "internalType": "bytes",
          "name": "data",
          "type": "bytes"
        }
      ],
      "name": "safeBatchTransferFrom",
      "outputs": [],
      "stateMutability": "nonpayable",
      "type": "function"
    },
    {
      "inputs": [
        {
          "internalType": "address",
          "name": "from",
          "type": "address"
        },
        {
          "internalType": "address",
          "name": "to",
          "type": "address"
        },
        {
          "internalType": "uint256",
          "name": "id",
          "type": "uint256"
        },
        {
          "internalType": "uint256",
          "name": "amount",
          "type": "uint256"
        },
        {
          "internalType": "bytes",
          "name": "data",
          "type": "bytes"
        }
      ],
      "name": "safeTransferFrom",
      "outputs": [],
      "stateMutability": "nonpayable",
      "type": "function"
    },
    {
      "inputs": [
        {
          "internalType": "address",
          "name": "operator",
          "type": "address"
        },
        {
          "internalType": "bool",
          "name": "approved",
          "type": "bool"
        }
      ],
      "name": "setApprovalForAll",
      "outputs": [],
      "stateMutability": "nonpayable",
      "type": "function"
    },
    {
      "inputs": [
        {
          "internalType": "string",
          "name": "contractURI_",
          "type": "string"
        }
      ],
      "name": "setContractURI",
      "outputs": [],
      "stateMutability": "payable",
      "type": "function"
    },
    {
      "inputs": [
        {
          "internalType": "uint256",
          "name": "_id",
          "type": "uint256"
        },
        {
          "internalType": "string",
          "name": "_uri",
          "type": "string"
        }
      ],
      "name": "setURI",
      "outputs": [],
      "stateMutability": "payable",
      "type": "function"
    },
    {
      "inputs": [
        {
          "internalType": "bytes4",
          "name": "interfaceId",
          "type": "bytes4"
        }
      ],
      "name": "supportsInterface",
      "outputs": [
        {
          "internalType": "bool",
          "name": "",
          "type": "bool"
        }
      ],
      "stateMutability": "view",
      "type": "function"
    },
    {
      "inputs": [],
      "name": "symbol",
      "outputs": [
        {
          "internalType": "string",
          "name": "",
          "type": "string"
        }
      ],
      "stateMutability": "view",
      "type": "function"
    },
    {
      "inputs": [
        {
          "internalType": "uint256",
          "name": "_id",
          "type": "uint256"
        }
      ],
      "name": "totalSupply",
      "outputs": [
        {
          "internalType": "uint256",
          "name": "",
          "type": "uint256"
        }
      ],
      "stateMutability": "view",
      "type": "function"
    },
    {
      "inputs": [
        {
          "internalType": "address",
          "name": "newOwner",
          "type": "address"
        }
      ],
      "name": "transferOwnership",
      "outputs": [],
      "stateMutability": "nonpayable",
      "type": "function"
    },
    {
      "inputs": [
        {
          "internalType": "uint256",
          "name": "_id",
          "type": "uint256"
        }
      ],
      "name": "uri",
      "outputs": [
        {
          "internalType": "string",
          "name": "",
          "type": "string"
        }
      ],
      "stateMutability": "view",
      "type": "function"
    }
  ],
  "bytecode": "0x61014060405260006004556000600e60006101000a81548160ff0219169083151502179055503480156200003257600080fd5b5060405162005a3d38038062005a3d8339818101604052810190620000589190620005f0565b6040518060400160405280600f81526020017f4c617a794e46542d566f756368657200000000000000000000000000000000008152506040518060400160405280600181526020017f310000000000000000000000000000000000000000000000000000000000000081525060405180602001604052806000815250620000e5816200026560201b60201c565b5062000106620000fa6200028160201b60201c565b6200028960201b60201c565b60008280519060200120905060008280519060200120905060007f8b73c3c69bb8fe3d512ecc4cf759cc79239f7b179b0ffacaa9a75d522b39400f90508260e081815250508161010081815250504660a081815250506200016f8184846200034f60201b60201c565b608081815250503073ffffffffffffffffffffffffffffffffffffffff1660c08173ffffffffffffffffffffffffffffffffffffffff1660601b8152505080610120818152505050505050506001600e60006101000a81548160ff021916908315150217905550806006819055508360079080519060200190620001f5929190620004ab565b5082600890805190602001906200020e929190620004ab565b507f1d2cdeb916b6deaba04691992f0644f09c3074ecd87caa51ded4a31ca49e590a3383604051620002429291906200075a565b60405180910390a16200025b826200038b60201b60201c565b5050505062000a5c565b80600290805190602001906200027d929190620004ab565b5050565b600033905090565b6000600360009054906101000a900473ffffffffffffffffffffffffffffffffffffffff16905081600360006101000a81548173ffffffffffffffffffffffffffffffffffffffff021916908373ffffffffffffffffffffffffffffffffffffffff1602179055508173ffffffffffffffffffffffffffffffffffffffff168173ffffffffffffffffffffffffffffffffffffffff167f8be0079c531659141344cd1fd0a4f28419497f9722a3daafe3b4186f6b6457e060405160405180910390a35050565b600083838346306040516020016200036c9594939291906200078e565b6040516020818303038152906040528051906020012090509392505050565b6200039b620003f060201b60201c565b8060059080519060200190620003b3929190620004ab565b507fd5ee5eaf65263bab5d569890714d123ad48a9e54409d35e71d374f3dd300bba081604051620003e59190620007eb565b60405180910390a150565b620004006200028160201b60201c565b73ffffffffffffffffffffffffffffffffffffffff16620004266200048160201b60201c565b73ffffffffffffffffffffffffffffffffffffffff16146200047f576040517f08c379a000000000000000000000000000000000000000000000000000000000815260040162000476906200080f565b60405180910390fd5b565b6000600360009054906101000a900473ffffffffffffffffffffffffffffffffffffffff16905090565b828054620004b9906200092a565b90600052602060002090601f016020900481019282620004dd576000855562000529565b82601f10620004f857805160ff191683800117855562000529565b8280016001018555821562000529579182015b82811115620005285782518255916020019190600101906200050b565b5b5090506200053891906200053c565b5090565b5b80821115620005575760008160009055506001016200053d565b5090565b6000620005726200056c846200085a565b62000831565b905082815260208101848484011115620005915762000590620009f9565b5b6200059e848285620008f4565b509392505050565b600082601f830112620005be57620005bd620009f4565b5b8151620005d08482602086016200055b565b91505092915050565b600081519050620005ea8162000a42565b92915050565b600080600080608085870312156200060d576200060c62000a03565b5b600085015167ffffffffffffffff8111156200062e576200062d620009fe565b5b6200063c87828801620005a6565b945050602085015167ffffffffffffffff81111562000660576200065f620009fe565b5b6200066e87828801620005a6565b935050604085015167ffffffffffffffff811115620006925762000691620009fe565b5b620006a087828801620005a6565b9250506060620006b387828801620005d9565b91505092959194509250565b620006ca81620008ac565b82525050565b620006db81620008c0565b82525050565b6000620006ee8262000890565b620006fa81856200089b565b93506200070c818560208601620008f4565b620007178162000a08565b840191505092915050565b6000620007316020836200089b565b91506200073e8262000a19565b602082019050919050565b6200075481620008ea565b82525050565b6000604082019050620007716000830185620006bf565b8181036020830152620007858184620006e1565b90509392505050565b600060a082019050620007a56000830188620006d0565b620007b46020830187620006d0565b620007c36040830186620006d0565b620007d2606083018562000749565b620007e16080830184620006bf565b9695505050505050565b60006020820190508181036000830152620008078184620006e1565b905092915050565b600060208201905081810360008301526200082a8162000722565b9050919050565b60006200083d62000850565b90506200084b828262000960565b919050565b6000604051905090565b600067ffffffffffffffff821115620008785762000877620009c5565b5b620008838262000a08565b9050602081019050919050565b600081519050919050565b600082825260208201905092915050565b6000620008b982620008ca565b9050919050565b6000819050919050565b600073ffffffffffffffffffffffffffffffffffffffff82169050919050565b6000819050919050565b60005b8381101562000914578082015181840152602081019050620008f7565b8381111562000924576000848401525b50505050565b600060028204905060018216806200094357607f821691505b602082108114156200095a576200095962000996565b5b50919050565b6200096b8262000a08565b810181811067ffffffffffffffff821117156200098d576200098c620009c5565b5b80604052505050565b7f4e487b7100000000000000000000000000000000000000000000000000000000600052602260045260246000fd5b7f4e487b7100000000000000000000000000000000000000000000000000000000600052604160045260246000fd5b600080fd5b600080fd5b600080fd5b600080fd5b6000601f19601f8301169050919050565b7f4f776e61626c653a2063616c6c6572206973206e6f7420746865206f776e6572600082015250565b62000a4d81620008ea565b811462000a5957600080fd5b50565b60805160a05160c05160601c60e0516101005161012051614f8e62000aaf6000396000612b7801526000612bba01526000612b9901526000612ace01526000612b2401526000612b4d0152614f8e6000f3fe6080604052600436106101655760003560e01c80638da5cb5b116100d1578063b390c0ab1161008a578063e985e9c511610064578063e985e9c514610551578063f06e6c9c1461058e578063f242432a146105aa578063f2fde38b146105d357610165565b8063b390c0ab146104cd578063bd85b039146104e9578063e8a3d4851461052657610165565b80638da5cb5b146103c5578063938e3d7b146103f057806395d89b411461040c5780639915684314610437578063a22cb46514610474578063b0dad9061461049d57610165565b80634e1273f4116101235780634e1273f4146102b257806361aa8b00146102ef5780637029144c1461032c578063715018a6146103555780638584fa461461036c578063862440e2146103a957610165565b8062fdd58e1461016a57806301ffc9a7146101a757806306fdde03146101e45780630e89341c1461020f5780632eb2c2d61461024c57806335a05ad514610275575b600080fd5b34801561017657600080fd5b50610191600480360381019061018c9190613488565b6105fc565b60405161019e91906141e0565b60405180910390f35b3480156101b357600080fd5b506101ce60048036038101906101c99190613540565b6106c5565b6040516101db9190613d9b565b60405180910390f35b3480156101f057600080fd5b506101f96107a7565b6040516102069190613e4e565b60405180910390f35b34801561021b57600080fd5b506102366004803603810190610231919061365b565b610835565b6040516102439190613e4e565b60405180910390f35b34801561025857600080fd5b50610273600480360381019061026e9190613286565b610928565b005b34801561028157600080fd5b5061029c6004803603810190610297919061365b565b6109c9565b6040516102a99190613c65565b60405180910390f35b3480156102be57600080fd5b506102d960048036038101906102d491906134c8565b6109fc565b6040516102e69190613d42565b60405180910390f35b3480156102fb57600080fd5b506103166004803603810190610311919061365b565b610b15565b60405161032391906141e0565b60405180910390f35b34801561033857600080fd5b50610353600480360381019061034e91906135e3565b610b2d565b005b34801561036157600080fd5b5061036a610baf565b005b34801561037857600080fd5b50610393600480360381019061038e919061365b565b610bc3565b6040516103a091906141e0565b60405180910390f35b6103c360048036038101906103be9190613688565b610bdb565b005b3480156103d157600080fd5b506103da610c88565b6040516103e79190613c65565b60405180910390f35b61040a6004803603810190610405919061359a565b610cb2565b005b34801561041857600080fd5b50610421610d0b565b60405161042e9190613e4e565b60405180910390f35b34801561044357600080fd5b5061045e6004803603810190610459919061365b565b610d99565b60405161046b91906141e0565b60405180910390f35b34801561048057600080fd5b5061049b600480360381019061049691906133ec565b610db1565b005b6104b760048036038101906104b2919061342c565b610dc7565b6040516104c491906141e0565b60405180910390f35b6104e760048036038101906104e291906136e4565b6111ba565b005b3480156104f557600080fd5b50610510600480360381019061050b919061365b565b611219565b60405161051d91906141e0565b60405180910390f35b34801561053257600080fd5b5061053b611236565b6040516105489190613e4e565b60405180910390f35b34801561055d57600080fd5b5061057860048036038101906105739190613246565b6112c8565b6040516105859190613d9b565b60405180910390f35b6105a860048036038101906105a39190613286565b61135c565b005b3480156105b657600080fd5b506105d160048036038101906105cc9190613355565b6113fd565b005b3480156105df57600080fd5b506105fa60048036038101906105f59190613219565b61149e565b005b60008073ffffffffffffffffffffffffffffffffffffffff168373ffffffffffffffffffffffffffffffffffffffff16141561066d576040517f08c379a000000000000000000000000000000000000000000000000000000000815260040161066490613fe0565b60405180910390fd5b60008083815260200190815260200160002060008473ffffffffffffffffffffffffffffffffffffffff1673ffffffffffffffffffffffffffffffffffffffff16815260200190815260200160002054905092915050565b60007fd9b67a26000000000000000000000000000000000000000000000000000000007bffffffffffffffffffffffffffffffffffffffffffffffffffffffff1916827bffffffffffffffffffffffffffffffffffffffffffffffffffffffff1916148061079057507f0e89341c000000000000000000000000000000000000000000000000000000007bffffffffffffffffffffffffffffffffffffffffffffffffffffffff1916827bffffffffffffffffffffffffffffffffffffffffffffffffffffffff1916145b806107a0575061079f82611522565b5b9050919050565b600780546107b490614563565b80601f01602080910402602001604051908101604052809291908181526020018280546107e090614563565b801561082d5780601f106108025761010080835404028352916020019161082d565b820191906000526020600020905b81548152906001019060200180831161081057829003601f168201915b505050505081565b60606108408261158c565b61087f576040517f08c379a000000000000000000000000000000000000000000000000000000000815260040161087690614120565b60405180910390fd5b6000600d6000848152602001908152602001600020805461089f90614563565b80601f01602080910402602001604051908101604052809291908181526020018280546108cb90614563565b80156109185780601f106108ed57610100808354040283529160200191610918565b820191906000526020600020905b8154815290600101906020018083116108fb57829003601f168201915b5050505050905080915050919050565b6109306115f8565b73ffffffffffffffffffffffffffffffffffffffff168573ffffffffffffffffffffffffffffffffffffffff1614806109765750610975856109706115f8565b6112c8565b5b6109b5576040517f08c379a00000000000000000000000000000000000000000000000000000000081526004016109ac90613ee0565b60405180910390fd5b6109c28585858585611600565b5050505050565b60096020528060005260406000206000915054906101000a900473ffffffffffffffffffffffffffffffffffffffff1681565b60608151835114610a42576040517f08c379a0000000000000000000000000000000000000000000000000000000008152600401610a3990614180565b60405180910390fd5b6000835167ffffffffffffffff811115610a5f57610a5e6146d5565b5b604051908082528060200260200182016040528015610a8d5781602001602082028036833780820191505090505b50905060005b8451811015610b0a57610ada858281518110610ab257610ab16146a6565b5b6020026020010151858381518110610acd57610acc6146a6565b5b60200260200101516105fc565b828281518110610aed57610aec6146a6565b5b60200260200101818152505080610b03906145c6565b9050610a93565b508091505092915050565b600c6020528060005260406000206000915090505481565b600e60009054906101000a900460ff1615610b7d576040517f08c379a0000000000000000000000000000000000000000000000000000000008152600401610b7490614080565b60405180910390fd5b8160079080519060200190610b93929190612dbd565b508060089080519060200190610baa929190612dbd565b505050565b610bb7611922565b610bc160006119a0565b565b600b6020528060005260406000206000915090505481565b610be48261158c565b610c23576040517f08c379a0000000000000000000000000000000000000000000000000000000008152600401610c1a90614120565b60405180910390fd5b80600d60008481526020019081526020016000209080519060200190610c4a929190612dbd565b507f483621391b5e72d74eb03c7b5715531c486e326fb115ab3bcf34b133041854ce8282604051610c7c9291906141fb565b60405180910390a15050565b6000600360009054906101000a900473ffffffffffffffffffffffffffffffffffffffff16905090565b610cba611922565b8060059080519060200190610cd0929190612dbd565b507fd5ee5eaf65263bab5d569890714d123ad48a9e54409d35e71d374f3dd300bba081604051610d009190613e4e565b60405180910390a150565b60088054610d1890614563565b80601f0160208091040260200160405190810160405280929190818152602001828054610d4490614563565b8015610d915780601f10610d6657610100808354040283529160200191610d91565b820191906000526020600020905b815481529060010190602001808311610d7457829003601f168201915b505050505081565b600a6020528060005260406000206000915090505481565b610dc3610dbc6115f8565b8383611a66565b5050565b600080610dd383611bd3565b9050610e146040518060400160405280600981526020017f7369676e6572202573000000000000000000000000000000000000000000000081525082611bf8565b6103e883608001511115610e5d576040517f08c379a0000000000000000000000000000000000000000000000000000000008152600401610e5490613f40565b60405180910390fd5b6000610e67611c94565b9050600654811115610eae576040517f08c379a0000000000000000000000000000000000000000000000000000000008152600401610ea590614140565b60405180910390fd5b83608001518460600151610ec2919061443c565b341015610f04576040517f08c379a0000000000000000000000000000000000000000000000000000000008152600401610efb906140c0565b60405180910390fd5b600a600085600001518152602001908152602001600020548460400151600b60008760000151815260200190815260200160002054610f4391906143e6565b11610f83576040517f08c379a0000000000000000000000000000000000000000000000000000000008152600401610f7a90613f80565b60405180910390fd5b610f9584600001518560200151610bdb565b6000846080015114610fba57610fb982856000015186604001518760e00151611caa565b5b6000600167ffffffffffffffff811115610fd757610fd66146d5565b5b6040519080825280602002602001820160405280156110055781602001602082028036833780820191505090505b509050846000015181600081518110611021576110206146a6565b5b6020026020010181815250506000600167ffffffffffffffff81111561104a576110496146d5565b5b6040519080825280602002602001820160405280156110785781602001602082028036833780820191505090505b509050856040015181600081518110611094576110936146a6565b5b6020026020010181815250506110bc8488848460405180602001604052806000815250610928565b6000600a600088600001518152602001908152602001600020541415611177578560800151600a600088600001518152602001908152602001600020819055508560c00151600960008860000151815260200190815260200160002060006101000a81548173ffffffffffffffffffffffffffffffffffffffff021916908373ffffffffffffffffffffffffffffffffffffffff1602179055508560a00151600c600088600001518152602001908152602001600020819055505b8560400151600b60008860000151815260200190815260200160002060008282546111a291906143e6565b92505081905550856000015194505050505092915050565b6111c2611922565b6111cb8261158c565b61120a576040517f08c379a000000000000000000000000000000000000000000000000000000000815260040161120190613fc0565b60405180910390fd5b611215338383611e5b565b5050565b6000600a6000838152602001908152602001600020549050919050565b60606005805461124590614563565b80601f016020809104026020016040519081016040528092919081815260200182805461127190614563565b80156112be5780601f10611293576101008083540402835291602001916112be565b820191906000526020600020905b8154815290600101906020018083116112a157829003601f168201915b5050505050905090565b6000600160008473ffffffffffffffffffffffffffffffffffffffff1673ffffffffffffffffffffffffffffffffffffffff16815260200190815260200160002060008373ffffffffffffffffffffffffffffffffffffffff1673ffffffffffffffffffffffffffffffffffffffff16815260200190815260200160002060009054906101000a900460ff16905092915050565b6113646115f8565b73ffffffffffffffffffffffffffffffffffffffff168573ffffffffffffffffffffffffffffffffffffffff1614806113aa57506113a9856113a46115f8565b6112c8565b5b6113e9576040517f08c379a00000000000000000000000000000000000000000000000000000000081526004016113e090614040565b60405180910390fd5b6113f68585858585610928565b5050505050565b6114056115f8565b73ffffffffffffffffffffffffffffffffffffffff168573ffffffffffffffffffffffffffffffffffffffff16148061144b575061144a856114456115f8565b6112c8565b5b61148a576040517f08c379a000000000000000000000000000000000000000000000000000000000815260040161148190613ee0565b60405180910390fd5b61149785858585856120a2565b5050505050565b6114a6611922565b600073ffffffffffffffffffffffffffffffffffffffff168173ffffffffffffffffffffffffffffffffffffffff161415611516576040517f08c379a000000000000000000000000000000000000000000000000000000000815260040161150d90613f60565b60405180910390fd5b61151f816119a0565b50565b60007f01ffc9a7000000000000000000000000000000000000000000000000000000007bffffffffffffffffffffffffffffffffffffffffffffffffffffffff1916827bffffffffffffffffffffffffffffffffffffffffffffffffffffffff1916149050919050565b60008073ffffffffffffffffffffffffffffffffffffffff166009600084815260200190815260200160002060009054906101000a900473ffffffffffffffffffffffffffffffffffffffff1673ffffffffffffffffffffffffffffffffffffffff1614159050919050565b600033905090565b8151835114611644576040517f08c379a000000000000000000000000000000000000000000000000000000000815260040161163b906141a0565b60405180910390fd5b600073ffffffffffffffffffffffffffffffffffffffff168473ffffffffffffffffffffffffffffffffffffffff1614156116b4576040517f08c379a00000000000000000000000000000000000000000000000000000000081526004016116ab90614020565b60405180910390fd5b60006116be6115f8565b90506116ce81878787878761233e565b60005b845181101561187f5760008582815181106116ef576116ee6146a6565b5b60200260200101519050600085838151811061170e5761170d6146a6565b5b60200260200101519050600080600084815260200190815260200160002060008b73ffffffffffffffffffffffffffffffffffffffff1673ffffffffffffffffffffffffffffffffffffffff168152602001908152602001600020549050818110156117af576040517f08c379a00000000000000000000000000000000000000000000000000000000081526004016117a6906140e0565b60405180910390fd5b81810360008085815260200190815260200160002060008c73ffffffffffffffffffffffffffffffffffffffff1673ffffffffffffffffffffffffffffffffffffffff168152602001908152602001600020819055508160008085815260200190815260200160002060008b73ffffffffffffffffffffffffffffffffffffffff1673ffffffffffffffffffffffffffffffffffffffff168152602001908152602001600020600082825461186491906143e6565b9250508190555050505080611878906145c6565b90506116d1565b508473ffffffffffffffffffffffffffffffffffffffff168673ffffffffffffffffffffffffffffffffffffffff168273ffffffffffffffffffffffffffffffffffffffff167f4a39dc06d4c0dbc64b70af90fd698a233a518aa5d07e595d983b8c0526c8f7fb87876040516118f6929190613d64565b60405180910390a461190c818787878787612346565b61191a81878787878761234e565b505050505050565b61192a6115f8565b73ffffffffffffffffffffffffffffffffffffffff16611948610c88565b73ffffffffffffffffffffffffffffffffffffffff161461199e576040517f08c379a000000000000000000000000000000000000000000000000000000000815260040161199590614100565b60405180910390fd5b565b6000600360009054906101000a900473ffffffffffffffffffffffffffffffffffffffff16905081600360006101000a81548173ffffffffffffffffffffffffffffffffffffffff021916908373ffffffffffffffffffffffffffffffffffffffff1602179055508173ffffffffffffffffffffffffffffffffffffffff168173ffffffffffffffffffffffffffffffffffffffff167f8be0079c531659141344cd1fd0a4f28419497f9722a3daafe3b4186f6b6457e060405160405180910390a35050565b8173ffffffffffffffffffffffffffffffffffffffff168373ffffffffffffffffffffffffffffffffffffffff161415611ad5576040517f08c379a0000000000000000000000000000000000000000000000000000000008152600401611acc90614160565b60405180910390fd5b80600160008573ffffffffffffffffffffffffffffffffffffffff1673ffffffffffffffffffffffffffffffffffffffff16815260200190815260200160002060008473ffffffffffffffffffffffffffffffffffffffff1673ffffffffffffffffffffffffffffffffffffffff16815260200190815260200160002060006101000a81548160ff0219169083151502179055508173ffffffffffffffffffffffffffffffffffffffff168373ffffffffffffffffffffffffffffffffffffffff167f17307eab39ab6107e8899845ad3d59bd9653f200f220920489ca2b5937696c3183604051611bc69190613d9b565b60405180910390a3505050565b600080611bdf83612535565b9050611bf081846101000151612584565b915050919050565b611c908282604051602401611c0e929190613e70565b6040516020818303038152906040527f319af333000000000000000000000000000000000000000000000000000000007bffffffffffffffffffffffffffffffffffffffffffffffffffffffff19166020820180517bffffffffffffffffffffffffffffffffffffffffffffffffffffffff83818316178352505050506125ab565b5050565b60006001600454611ca591906143e6565b905090565b600073ffffffffffffffffffffffffffffffffffffffff168473ffffffffffffffffffffffffffffffffffffffff161415611d1a576040517f08c379a0000000000000000000000000000000000000000000000000000000008152600401611d11906141c0565b60405180910390fd5b6000611d246115f8565b90506000611d31856125d4565b90506000611d3e856125d4565b9050611d4f8360008985858961233e565b8460008088815260200190815260200160002060008973ffffffffffffffffffffffffffffffffffffffff1673ffffffffffffffffffffffffffffffffffffffff1681526020019081526020016000206000828254611dae91906143e6565b925050819055508673ffffffffffffffffffffffffffffffffffffffff16600073ffffffffffffffffffffffffffffffffffffffff168473ffffffffffffffffffffffffffffffffffffffff167fc3d58168c5ae7397731d063d5bbf3d657854427343f4c083240f7aacaa2d0f628989604051611e2c92919061422b565b60405180910390a4611e4383600089858589612346565b611e528360008989898961264e565b50505050505050565b600073ffffffffffffffffffffffffffffffffffffffff168373ffffffffffffffffffffffffffffffffffffffff161415611ecb576040517f08c379a0000000000000000000000000000000000000000000000000000000008152600401611ec2906140a0565b60405180910390fd5b6000611ed56115f8565b90506000611ee2846125d4565b90506000611eef846125d4565b9050611f0f8387600085856040518060200160405280600081525061233e565b600080600087815260200190815260200160002060008873ffffffffffffffffffffffffffffffffffffffff1673ffffffffffffffffffffffffffffffffffffffff16815260200190815260200160002054905084811015611fa6576040517f08c379a0000000000000000000000000000000000000000000000000000000008152600401611f9d90613fa0565b60405180910390fd5b84810360008088815260200190815260200160002060008973ffffffffffffffffffffffffffffffffffffffff1673ffffffffffffffffffffffffffffffffffffffff16815260200190815260200160002081905550600073ffffffffffffffffffffffffffffffffffffffff168773ffffffffffffffffffffffffffffffffffffffff168573ffffffffffffffffffffffffffffffffffffffff167fc3d58168c5ae7397731d063d5bbf3d657854427343f4c083240f7aacaa2d0f62898960405161207392919061422b565b60405180910390a461209984886000868660405180602001604052806000815250612346565b50505050505050565b600073ffffffffffffffffffffffffffffffffffffffff168473ffffffffffffffffffffffffffffffffffffffff161415612112576040517f08c379a000000000000000000000000000000000000000000000000000000000815260040161210990614020565b60405180910390fd5b600061211c6115f8565b90506000612129856125d4565b90506000612136856125d4565b905061214683898985858961233e565b600080600088815260200190815260200160002060008a73ffffffffffffffffffffffffffffffffffffffff1673ffffffffffffffffffffffffffffffffffffffff168152602001908152602001600020549050858110156121dd576040517f08c379a00000000000000000000000000000000000000000000000000000000081526004016121d4906140e0565b60405180910390fd5b85810360008089815260200190815260200160002060008b73ffffffffffffffffffffffffffffffffffffffff1673ffffffffffffffffffffffffffffffffffffffff168152602001908152602001600020819055508560008089815260200190815260200160002060008a73ffffffffffffffffffffffffffffffffffffffff1673ffffffffffffffffffffffffffffffffffffffff168152602001908152602001600020600082825461229291906143e6565b925050819055508773ffffffffffffffffffffffffffffffffffffffff168973ffffffffffffffffffffffffffffffffffffffff168573ffffffffffffffffffffffffffffffffffffffff167fc3d58168c5ae7397731d063d5bbf3d657854427343f4c083240f7aacaa2d0f628a8a60405161230f92919061422b565b60405180910390a4612325848a8a86868a612346565b612333848a8a8a8a8a61264e565b505050505050505050565b505050505050565b505050505050565b61236d8473ffffffffffffffffffffffffffffffffffffffff16612835565b1561252d578373ffffffffffffffffffffffffffffffffffffffff1663bc197c8187878686866040518663ffffffff1660e01b81526004016123b3959493929190613c80565b602060405180830381600087803b1580156123cd57600080fd5b505af19250505080156123fe57506040513d601f19601f820116820180604052508101906123fb919061356d565b60015b6124a45761240a614704565b806308c379a01415612467575061241f614e66565b8061242a5750612469565b806040517f08c379a000000000000000000000000000000000000000000000000000000000815260040161245e9190613e4e565b60405180910390fd5b505b6040517f08c379a000000000000000000000000000000000000000000000000000000000815260040161249b90613ec0565b60405180910390fd5b63bc197c8160e01b7bffffffffffffffffffffffffffffffffffffffffffffffffffffffff1916817bffffffffffffffffffffffffffffffffffffffffffffffffffffffff19161461252b576040517f08c379a000000000000000000000000000000000000000000000000000000000815260040161252290613f00565b60405180910390fd5b505b505050505050565b600061257d82608001518360a0015184602001518051906020012060405160200161256293929190614254565b60405160208183030381529060405280519060200120612858565b9050919050565b60008060006125938585612872565b915091506125a0816128f5565b819250505092915050565b60008151905060006a636f6e736f6c652e6c6f679050602083016000808483855afa5050505050565b60606000600167ffffffffffffffff8111156125f3576125f26146d5565b5b6040519080825280602002602001820160405280156126215781602001602082028036833780820191505090505b5090508281600081518110612639576126386146a6565b5b60200260200101818152505080915050919050565b61266d8473ffffffffffffffffffffffffffffffffffffffff16612835565b1561282d578373ffffffffffffffffffffffffffffffffffffffff1663f23a6e6187878686866040518663ffffffff1660e01b81526004016126b3959493929190613ce8565b602060405180830381600087803b1580156126cd57600080fd5b505af19250505080156126fe57506040513d601f19601f820116820180604052508101906126fb919061356d565b60015b6127a45761270a614704565b806308c379a01415612767575061271f614e66565b8061272a5750612769565b806040517f08c379a000000000000000000000000000000000000000000000000000000000815260040161275e9190613e4e565b60405180910390fd5b505b6040517f08c379a000000000000000000000000000000000000000000000000000000000815260040161279b90613ec0565b60405180910390fd5b63f23a6e6160e01b7bffffffffffffffffffffffffffffffffffffffffffffffffffffffff1916817bffffffffffffffffffffffffffffffffffffffffffffffffffffffff19161461282b576040517f08c379a000000000000000000000000000000000000000000000000000000000815260040161282290613f00565b60405180910390fd5b505b505050505050565b6000808273ffffffffffffffffffffffffffffffffffffffff163b119050919050565b600061286b612865612aca565b83612be4565b9050919050565b6000806041835114156128b45760008060006020860151925060408601519150606086015160001a90506128a887828585612c17565b945094505050506128ee565b6040835114156128e55760008060208501519150604085015190506128da868383612d24565b9350935050506128ee565b60006002915091505b9250929050565b6000600481111561290957612908614648565b5b81600481111561291c5761291b614648565b5b141561292757612ac7565b6001600481111561293b5761293a614648565b5b81600481111561294e5761294d614648565b5b141561298f576040517f08c379a000000000000000000000000000000000000000000000000000000000815260040161298690613ea0565b60405180910390fd5b600260048111156129a3576129a2614648565b5b8160048111156129b6576129b5614648565b5b14156129f7576040517f08c379a00000000000000000000000000000000000000000000000000000000081526004016129ee90613f20565b60405180910390fd5b60036004811115612a0b57612a0a614648565b5b816004811115612a1e57612a1d614648565b5b1415612a5f576040517f08c379a0000000000000000000000000000000000000000000000000000000008152600401612a5690614000565b60405180910390fd5b600480811115612a7257612a71614648565b5b816004811115612a8557612a84614648565b5b1415612ac6576040517f08c379a0000000000000000000000000000000000000000000000000000000008152600401612abd90614060565b60405180910390fd5b5b50565b60007f000000000000000000000000000000000000000000000000000000000000000073ffffffffffffffffffffffffffffffffffffffff163073ffffffffffffffffffffffffffffffffffffffff16148015612b4657507f000000000000000000000000000000000000000000000000000000000000000046145b15612b73577f00000000000000000000000000000000000000000000000000000000000000009050612be1565b612bde7f00000000000000000000000000000000000000000000000000000000000000007f00000000000000000000000000000000000000000000000000000000000000007f0000000000000000000000000000000000000000000000000000000000000000612d83565b90505b90565b60008282604051602001612bf9929190613c2e565b60405160208183030381529060405280519060200120905092915050565b6000807f7fffffffffffffffffffffffffffffff5d576e7357a4501ddfe92f46681b20a08360001c1115612c52576000600391509150612d1b565b601b8560ff1614158015612c6a5750601c8560ff1614155b15612c7c576000600491509150612d1b565b600060018787878760405160008152602001604052604051612ca19493929190613e09565b6020604051602081039080840390855afa158015612cc3573d6000803e3d6000fd5b505050602060405103519050600073ffffffffffffffffffffffffffffffffffffffff168173ffffffffffffffffffffffffffffffffffffffff161415612d1257600060019250925050612d1b565b80600092509250505b94509492505050565b60008060007f7fffffffffffffffffffffffffffffffffffffffffffffffffffffffffffffff60001b841690506000601b60ff8660001c901c612d6791906143e6565b9050612d7587828885612c17565b935093505050935093915050565b60008383834630604051602001612d9e959493929190613db6565b6040516020818303038152906040528051906020012090509392505050565b828054612dc990614563565b90600052602060002090601f016020900481019282612deb5760008555612e32565b82601f10612e0457805160ff1916838001178555612e32565b82800160010185558215612e32579182015b82811115612e31578251825591602001919060010190612e16565b5b509050612e3f9190612e43565b5090565b5b80821115612e5c576000816000905550600101612e44565b5090565b6000612e73612e6e846142b0565b61428b565b90508083825260208201905082856020860282011115612e9657612e95614735565b5b60005b85811015612ec65781612eac8882612fc4565b845260208401935060208301925050600181019050612e99565b5050509392505050565b6000612ee3612ede846142dc565b61428b565b90508083825260208201905082856020860282011115612f0657612f05614735565b5b60005b85811015612f365781612f1c8882613204565b845260208401935060208301925050600181019050612f09565b5050509392505050565b6000612f53612f4e84614308565b61428b565b905082815260208101848484011115612f6f57612f6e61473a565b5b612f7a848285614521565b509392505050565b6000612f95612f9084614339565b61428b565b905082815260208101848484011115612fb157612fb061473a565b5b612fbc848285614521565b509392505050565b600081359050612fd381614efc565b92915050565b600082601f830112612fee57612fed614726565b5b8135612ffe848260208601612e60565b91505092915050565b600082601f83011261301c5761301b614726565b5b813561302c848260208601612ed0565b91505092915050565b60008135905061304481614f13565b92915050565b60008135905061305981614f2a565b92915050565b60008151905061306e81614f2a565b92915050565b600082601f83011261308957613088614726565b5b8135613099848260208601612f40565b91505092915050565b600082601f8301126130b7576130b6614726565b5b81356130c7848260208601612f82565b91505092915050565b600061012082840312156130e7576130e661472b565b5b6130f261012061428b565b9050600061310284828501613204565b600083015250602082013567ffffffffffffffff81111561312657613125614730565b5b613132848285016130a2565b602083015250604061314684828501613204565b604083015250606061315a84828501613204565b606083015250608061316e84828501613204565b60808301525060a061318284828501613204565b60a08301525060c061319684828501612fc4565b60c08301525060e082013567ffffffffffffffff8111156131ba576131b9614730565b5b6131c684828501613074565b60e08301525061010082013567ffffffffffffffff8111156131eb576131ea614730565b5b6131f784828501613074565b6101008301525092915050565b60008135905061321381614f41565b92915050565b60006020828403121561322f5761322e614744565b5b600061323d84828501612fc4565b91505092915050565b6000806040838503121561325d5761325c614744565b5b600061326b85828601612fc4565b925050602061327c85828601612fc4565b9150509250929050565b600080600080600060a086880312156132a2576132a1614744565b5b60006132b088828901612fc4565b95505060206132c188828901612fc4565b945050604086013567ffffffffffffffff8111156132e2576132e161473f565b5b6132ee88828901613007565b935050606086013567ffffffffffffffff81111561330f5761330e61473f565b5b61331b88828901613007565b925050608086013567ffffffffffffffff81111561333c5761333b61473f565b5b61334888828901613074565b9150509295509295909350565b600080600080600060a0868803121561337157613370614744565b5b600061337f88828901612fc4565b955050602061339088828901612fc4565b94505060406133a188828901613204565b93505060606133b288828901613204565b925050608086013567ffffffffffffffff8111156133d3576133d261473f565b5b6133df88828901613074565b9150509295509295909350565b6000806040838503121561340357613402614744565b5b600061341185828601612fc4565b925050602061342285828601613035565b9150509250929050565b6000806040838503121561344357613442614744565b5b600061345185828601612fc4565b925050602083013567ffffffffffffffff8111156134725761347161473f565b5b61347e858286016130d0565b9150509250929050565b6000806040838503121561349f5761349e614744565b5b60006134ad85828601612fc4565b92505060206134be85828601613204565b9150509250929050565b600080604083850312156134df576134de614744565b5b600083013567ffffffffffffffff8111156134fd576134fc61473f565b5b61350985828601612fd9565b925050602083013567ffffffffffffffff81111561352a5761352961473f565b5b61353685828601613007565b9150509250929050565b60006020828403121561355657613555614744565b5b60006135648482850161304a565b91505092915050565b60006020828403121561358357613582614744565b5b60006135918482850161305f565b91505092915050565b6000602082840312156135b0576135af614744565b5b600082013567ffffffffffffffff8111156135ce576135cd61473f565b5b6135da848285016130a2565b91505092915050565b600080604083850312156135fa576135f9614744565b5b600083013567ffffffffffffffff8111156136185761361761473f565b5b613624858286016130a2565b925050602083013567ffffffffffffffff8111156136455761364461473f565b5b613651858286016130a2565b9150509250929050565b60006020828403121561367157613670614744565b5b600061367f84828501613204565b91505092915050565b6000806040838503121561369f5761369e614744565b5b60006136ad85828601613204565b925050602083013567ffffffffffffffff8111156136ce576136cd61473f565b5b6136da858286016130a2565b9150509250929050565b600080604083850312156136fb576136fa614744565b5b600061370985828601613204565b925050602061371a85828601613204565b9150509250929050565b60006137308383613c01565b60208301905092915050565b61374581614496565b82525050565b60006137568261437a565b61376081856143a8565b935061376b8361436a565b8060005b8381101561379c5781516137838882613724565b975061378e8361439b565b92505060018101905061376f565b5085935050505092915050565b6137b2816144a8565b82525050565b6137c1816144b4565b82525050565b6137d86137d3826144b4565b61460f565b82525050565b60006137e982614385565b6137f381856143b9565b9350613803818560208601614530565b61380c81614749565b840191505092915050565b600061382282614390565b61382c81856143ca565b935061383c818560208601614530565b61384581614749565b840191505092915050565b600061385d6018836143ca565b915061386882614767565b602082019050919050565b60006138806034836143ca565b915061388b82614790565b604082019050919050565b60006138a3602f836143ca565b91506138ae826147df565b604082019050919050565b60006138c66028836143ca565b91506138d18261482e565b604082019050919050565b60006138e9601f836143ca565b91506138f48261487d565b602082019050919050565b600061390c6027836143ca565b9150613917826148a6565b604082019050919050565b600061392f6026836143ca565b915061393a826148f5565b604082019050919050565b6000613952600b836143ca565b915061395d82614944565b602082019050919050565b60006139756024836143ca565b91506139808261496d565b604082019050919050565b60006139986002836143db565b91506139a3826149bc565b600282019050919050565b60006139bb6020836143ca565b91506139c6826149e5565b602082019050919050565b60006139de602a836143ca565b91506139e982614a0e565b604082019050919050565b6000613a016022836143ca565b9150613a0c82614a5d565b604082019050919050565b6000613a246025836143ca565b9150613a2f82614aac565b604082019050919050565b6000613a476032836143ca565b9150613a5282614afb565b604082019050919050565b6000613a6a6022836143ca565b9150613a7582614b4a565b604082019050919050565b6000613a8d602c836143ca565b9150613a9882614b99565b604082019050919050565b6000613ab06023836143ca565b9150613abb82614be8565b604082019050919050565b6000613ad3601c836143ca565b9150613ade82614c37565b602082019050919050565b6000613af6602a836143ca565b9150613b0182614c60565b604082019050919050565b6000613b196020836143ca565b9150613b2482614caf565b602082019050919050565b6000613b3c601e836143ca565b9150613b4782614cd8565b602082019050919050565b6000613b5f6017836143ca565b9150613b6a82614d01565b602082019050919050565b6000613b826029836143ca565b9150613b8d82614d2a565b604082019050919050565b6000613ba56029836143ca565b9150613bb082614d79565b604082019050919050565b6000613bc86028836143ca565b9150613bd382614dc8565b604082019050919050565b6000613beb6021836143ca565b9150613bf682614e17565b604082019050919050565b613c0a8161450a565b82525050565b613c198161450a565b82525050565b613c2881614514565b82525050565b6000613c398261398b565b9150613c4582856137c7565b602082019150613c5582846137c7565b6020820191508190509392505050565b6000602082019050613c7a600083018461373c565b92915050565b600060a082019050613c95600083018861373c565b613ca2602083018761373c565b8181036040830152613cb4818661374b565b90508181036060830152613cc8818561374b565b90508181036080830152613cdc81846137de565b90509695505050505050565b600060a082019050613cfd600083018861373c565b613d0a602083018761373c565b613d176040830186613c10565b613d246060830185613c10565b8181036080830152613d3681846137de565b90509695505050505050565b60006020820190508181036000830152613d5c818461374b565b905092915050565b60006040820190508181036000830152613d7e818561374b565b90508181036020830152613d92818461374b565b90509392505050565b6000602082019050613db060008301846137a9565b92915050565b600060a082019050613dcb60008301886137b8565b613dd860208301876137b8565b613de560408301866137b8565b613df26060830185613c10565b613dff608083018461373c565b9695505050505050565b6000608082019050613e1e60008301876137b8565b613e2b6020830186613c1f565b613e3860408301856137b8565b613e4560608301846137b8565b95945050505050565b60006020820190508181036000830152613e688184613817565b905092915050565b60006040820190508181036000830152613e8a8185613817565b9050613e99602083018461373c565b9392505050565b60006020820190508181036000830152613eb981613850565b9050919050565b60006020820190508181036000830152613ed981613873565b9050919050565b60006020820190508181036000830152613ef981613896565b9050919050565b60006020820190508181036000830152613f19816138b9565b9050919050565b60006020820190508181036000830152613f39816138dc565b9050919050565b60006020820190508181036000830152613f59816138ff565b9050919050565b60006020820190508181036000830152613f7981613922565b9050919050565b60006020820190508181036000830152613f9981613945565b9050919050565b60006020820190508181036000830152613fb981613968565b9050919050565b60006020820190508181036000830152613fd9816139ae565b9050919050565b60006020820190508181036000830152613ff9816139d1565b9050919050565b60006020820190508181036000830152614019816139f4565b9050919050565b6000602082019050818103600083015261403981613a17565b9050919050565b6000602082019050818103600083015261405981613a3a565b9050919050565b6000602082019050818103600083015261407981613a5d565b9050919050565b6000602082019050818103600083015261409981613a80565b9050919050565b600060208201905081810360008301526140b981613aa3565b9050919050565b600060208201905081810360008301526140d981613ac6565b9050919050565b600060208201905081810360008301526140f981613ae9565b9050919050565b6000602082019050818103600083015261411981613b0c565b9050919050565b6000602082019050818103600083015261413981613b2f565b9050919050565b6000602082019050818103600083015261415981613b52565b9050919050565b6000602082019050818103600083015261417981613b75565b9050919050565b6000602082019050818103600083015261419981613b98565b9050919050565b600060208201905081810360008301526141b981613bbb565b9050919050565b600060208201905081810360008301526141d981613bde565b9050919050565b60006020820190506141f56000830184613c10565b92915050565b60006040820190506142106000830185613c10565b81810360208301526142228184613817565b90509392505050565b60006040820190506142406000830185613c10565b61424d6020830184613c10565b9392505050565b60006060820190506142696000830186613c10565b6142766020830185613c10565b61428360408301846137b8565b949350505050565b60006142956142a6565b90506142a18282614595565b919050565b6000604051905090565b600067ffffffffffffffff8211156142cb576142ca6146d5565b5b602082029050602081019050919050565b600067ffffffffffffffff8211156142f7576142f66146d5565b5b602082029050602081019050919050565b600067ffffffffffffffff821115614323576143226146d5565b5b61432c82614749565b9050602081019050919050565b600067ffffffffffffffff821115614354576143536146d5565b5b61435d82614749565b9050602081019050919050565b6000819050602082019050919050565b600081519050919050565b600081519050919050565b600081519050919050565b6000602082019050919050565b600082825260208201905092915050565b600082825260208201905092915050565b600082825260208201905092915050565b600081905092915050565b60006143f18261450a565b91506143fc8361450a565b9250827fffffffffffffffffffffffffffffffffffffffffffffffffffffffffffffffff0382111561443157614430614619565b5b828201905092915050565b60006144478261450a565b91506144528361450a565b9250817fffffffffffffffffffffffffffffffffffffffffffffffffffffffffffffffff048311821515161561448b5761448a614619565b5b828202905092915050565b60006144a1826144ea565b9050919050565b60008115159050919050565b6000819050919050565b60007fffffffff0000000000000000000000000000000000000000000000000000000082169050919050565b600073ffffffffffffffffffffffffffffffffffffffff82169050919050565b6000819050919050565b600060ff82169050919050565b82818337600083830152505050565b60005b8381101561454e578082015181840152602081019050614533565b8381111561455d576000848401525b50505050565b6000600282049050600182168061457b57607f821691505b6020821081141561458f5761458e614677565b5b50919050565b61459e82614749565b810181811067ffffffffffffffff821117156145bd576145bc6146d5565b5b80604052505050565b60006145d18261450a565b91507fffffffffffffffffffffffffffffffffffffffffffffffffffffffffffffffff82141561460457614603614619565b5b600182019050919050565b6000819050919050565b7f4e487b7100000000000000000000000000000000000000000000000000000000600052601160045260246000fd5b7f4e487b7100000000000000000000000000000000000000000000000000000000600052602160045260246000fd5b7f4e487b7100000000000000000000000000000000000000000000000000000000600052602260045260246000fd5b7f4e487b7100000000000000000000000000000000000000000000000000000000600052603260045260246000fd5b7f4e487b7100000000000000000000000000000000000000000000000000000000600052604160045260246000fd5b600060033d11156147235760046000803e61472060005161475a565b90505b90565b600080fd5b600080fd5b600080fd5b600080fd5b600080fd5b600080fd5b600080fd5b6000601f19601f8301169050919050565b60008160e01c9050919050565b7f45434453413a20696e76616c6964207369676e61747572650000000000000000600082015250565b7f455243313135353a207472616e7366657220746f206e6f6e204552433131353560008201527f526563656976657220696d706c656d656e746572000000000000000000000000602082015250565b7f455243313135353a2063616c6c6572206973206e6f7420746f6b656e206f776e60008201527f6572206e6f7220617070726f7665640000000000000000000000000000000000602082015250565b7f455243313135353a204552433131353552656365697665722072656a6563746560008201527f6420746f6b656e73000000000000000000000000000000000000000000000000602082015250565b7f45434453413a20696e76616c6964207369676e6174757265206c656e67746800600082015250565b7f496e697469616c20737570706c792063616e6e6f74206265206d6f726520746860008201527f616e203130303000000000000000000000000000000000000000000000000000602082015250565b7f4f776e61626c653a206e6577206f776e657220697320746865207a65726f206160008201527f6464726573730000000000000000000000000000000000000000000000000000602082015250565b7f416c6c206d696e74656421000000000000000000000000000000000000000000600082015250565b7f455243313135353a206275726e20616d6f756e7420657863656564732062616c60008201527f616e636500000000000000000000000000000000000000000000000000000000602082015250565b7f1901000000000000000000000000000000000000000000000000000000000000600082015250565b7f4552433131353520236275726e3a204e4f4e4558495354454e545f544f4b454e600082015250565b7f455243313135353a2061646472657373207a65726f206973206e6f742061207660008201527f616c6964206f776e657200000000000000000000000000000000000000000000602082015250565b7f45434453413a20696e76616c6964207369676e6174757265202773272076616c60008201527f7565000000000000000000000000000000000000000000000000000000000000602082015250565b7f455243313135353a207472616e7366657220746f20746865207a65726f20616460008201527f6472657373000000000000000000000000000000000000000000000000000000602082015250565b7f455243313135353a207472616e736665722063616c6c6572206973206e6f742060008201527f6f776e6572206e6f7220617070726f7665640000000000000000000000000000602082015250565b7f45434453413a20696e76616c6964207369676e6174757265202776272076616c60008201527f7565000000000000000000000000000000000000000000000000000000000000602082015250565b7f45524331353520547261646561626c65206d757374206e6f7420626520636f6e60008201527f7374727563746564207965740000000000000000000000000000000000000000602082015250565b7f455243313135353a206275726e2066726f6d20746865207a65726f206164647260008201527f6573730000000000000000000000000000000000000000000000000000000000602082015250565b7f496e73756666696369656e742066756e647320746f2072656465656d00000000600082015250565b7f455243313135353a20696e73756666696369656e742062616c616e636520666f60008201527f72207472616e7366657200000000000000000000000000000000000000000000602082015250565b7f4f776e61626c653a2063616c6c6572206973206e6f7420746865206f776e6572600082015250565b7f45524331313535237572693a204e4f4e4558495354454e545f544f4b454e0000600082015250565b7f466c7573686564206e667420746f74616c206c696d6974000000000000000000600082015250565b7f455243313135353a2073657474696e6720617070726f76616c2073746174757360008201527f20666f722073656c660000000000000000000000000000000000000000000000602082015250565b7f455243313135353a206163636f756e747320616e6420696473206c656e67746860008201527f206d69736d617463680000000000000000000000000000000000000000000000602082015250565b7f455243313135353a2069647320616e6420616d6f756e7473206c656e6774682060008201527f6d69736d61746368000000000000000000000000000000000000000000000000602082015250565b7f455243313135353a206d696e7420746f20746865207a65726f2061646472657360008201527f7300000000000000000000000000000000000000000000000000000000000000602082015250565b600060443d1015614e7657614ef9565b614e7e6142a6565b60043d036004823e80513d602482011167ffffffffffffffff82111715614ea6575050614ef9565b808201805167ffffffffffffffff811115614ec45750505050614ef9565b80602083010160043d038501811115614ee1575050505050614ef9565b614ef082602001850186614595565b82955050505050505b90565b614f0581614496565b8114614f1057600080fd5b50565b614f1c816144a8565b8114614f2757600080fd5b50565b614f33816144be565b8114614f3e57600080fd5b50565b614f4a8161450a565b8114614f5557600080fd5b5056fea26469706673582212206943bdaa3f0b46a0f422b3846c615863e9d4764457d7a44b9cb11efe2b72dd5064736f6c63430008050033",
  "linkReferences": {},
  "deployedLinkReferences": {}
}