{
  "_format": "hh-sol-artifact-1",
  "contractName": "Crea2orsNFT",
  "sourceName": "contracts/Crea2orsNFT_v2.0.sol",
  "abi": [
    {
      "inputs": [
        {
          "internalType": "string",
          "name": "name_",
          "type": "string"
        },
        {
          "internalType": "string",
          "name": "symbol_",
          "type": "string"
        },
        {
          "internalType": "string",
          "name": "contractURI_",
          "type": "string"
        },
        {
          "internalType": "uint256",
          "name": "totalLimit_",
          "type": "uint256"
        }
      ],
      "stateMutability": "nonpayable",
      "type": "constructor"
    },
    {
      "anonymous": false,
      "inputs": [
        {
          "indexed": true,
          "internalType": "address",
          "name": "account",
          "type": "address"
        },
        {
          "indexed": true,
          "internalType": "address",
          "name": "operator",
          "type": "address"
        },
        {
          "indexed": false,
          "internalType": "bool",
          "name": "approved",
          "type": "bool"
        }
      ],
      "name": "ApprovalForAll",
      "type": "event"
    },
    {
      "anonymous": false,
      "inputs": [
        {
          "indexed": false,
          "internalType": "address",
          "name": "",
          "type": "address"
        },
        {
          "indexed": false,
          "internalType": "string",
          "name": "",
          "type": "string"
        }
      ],
      "name": "ContractDeployed",
      "type": "event"
    },
    {
      "anonymous": false,
      "inputs": [
        {
          "indexed": false,
          "internalType": "string",
          "name": "",
          "type": "string"
        }
      ],
      "name": "ContractURIChanged",
      "type": "event"
    },
    {
      "anonymous": false,
      "inputs": [
        {
          "indexed": true,
          "internalType": "address",
          "name": "previousOwner",
          "type": "address"
        },
        {
          "indexed": true,
          "internalType": "address",
          "name": "newOwner",
          "type": "address"
        }
      ],
      "name": "OwnershipTransferred",
      "type": "event"
    },
    {
      "anonymous": false,
      "inputs": [
        {
          "indexed": false,
          "internalType": "uint256",
          "name": "",
          "type": "uint256"
        },
        {
          "indexed": false,
          "internalType": "string",
          "name": "",
          "type": "string"
        }
      ],
      "name": "TokenURIChanged",
      "type": "event"
    },
    {
      "anonymous": false,
      "inputs": [
        {
          "indexed": true,
          "internalType": "address",
          "name": "operator",
          "type": "address"
        },
        {
          "indexed": true,
          "internalType": "address",
          "name": "from",
          "type": "address"
        },
        {
          "indexed": true,
          "internalType": "address",
          "name": "to",
          "type": "address"
        },
        {
          "indexed": false,
          "internalType": "uint256[]",
          "name": "ids",
          "type": "uint256[]"
        },
        {
          "indexed": false,
          "internalType": "uint256[]",
          "name": "values",
          "type": "uint256[]"
        }
      ],
      "name": "TransferBatch",
      "type": "event"
    },
    {
      "anonymous": false,
      "inputs": [
        {
          "indexed": true,
          "internalType": "address",
          "name": "operator",
          "type": "address"
        },
        {
          "indexed": true,
          "internalType": "address",
          "name": "from",
          "type": "address"
        },
        {
          "indexed": true,
          "internalType": "address",
          "name": "to",
          "type": "address"
        },
        {
          "indexed": false,
          "internalType": "uint256",
          "name": "id",
          "type": "uint256"
        },
        {
          "indexed": false,
          "internalType": "uint256",
          "name": "value",
          "type": "uint256"
        }
      ],
      "name": "TransferSingle",
      "type": "event"
    },
    {
      "anonymous": false,
      "inputs": [
        {
          "indexed": false,
          "internalType": "string",
          "name": "value",
          "type": "string"
        },
        {
          "indexed": true,
          "internalType": "uint256",
          "name": "id",
          "type": "uint256"
        }
      ],
      "name": "URI",
      "type": "event"
    },
    {
      "inputs": [
        {
          "internalType": "address",
          "name": "account",
          "type": "address"
        },
        {
          "internalType": "uint256",
          "name": "id",
          "type": "uint256"
        }
      ],
      "name": "balanceOf",
      "outputs": [
        {
          "internalType": "uint256",
          "name": "",
          "type": "uint256"
        }
      ],
      "stateMutability": "view",
      "type": "function"
    },
    {
      "inputs": [
        {
          "internalType": "address[]",
          "name": "accounts",
          "type": "address[]"
        },
        {
          "internalType": "uint256[]",
          "name": "ids",
          "type": "uint256[]"
        }
      ],
      "name": "balanceOfBatch",
      "outputs": [
        {
          "internalType": "uint256[]",
          "name": "",
          "type": "uint256[]"
        }
      ],
      "stateMutability": "view",
      "type": "function"
    },
    {
      "inputs": [
        {
          "internalType": "address",
          "name": "from",
          "type": "address"
        },
        {
          "internalType": "address",
          "name": "to",
          "type": "address"
        },
        {
          "internalType": "uint256[]",
          "name": "ids",
          "type": "uint256[]"
        },
        {
          "internalType": "uint256[]",
          "name": "amounts",
          "type": "uint256[]"
        },
        {
          "internalType": "bytes",
          "name": "data",
          "type": "bytes"
        }
      ],
      "name": "batchTransferFrom",
      "outputs": [],
      "stateMutability": "payable",
      "type": "function"
    },
    {
      "inputs": [
        {
          "internalType": "uint256",
          "name": "_id",
          "type": "uint256"
        },
        {
          "internalType": "uint256",
          "name": "_amount",
          "type": "uint256"
        }
      ],
      "name": "burn",
      "outputs": [],
      "stateMutability": "payable",
      "type": "function"
    },
    {
      "inputs": [],
      "name": "contractURI",
      "outputs": [
        {
          "internalType": "string",
          "name": "",
          "type": "string"
        }
      ],
      "stateMutability": "view",
      "type": "function"
    },
    {
      "inputs": [
        {
          "internalType": "uint256",
          "name": "",
          "type": "uint256"
        }
      ],
      "name": "curMintedSupplies",
      "outputs": [
        {
          "internalType": "uint256",
          "name": "",
          "type": "uint256"
        }
      ],
      "stateMutability": "view",
      "type": "function"
    },
    {
      "inputs": [
        {
          "internalType": "string",
          "name": "_name",
          "type": "string"
        },
        {
          "internalType": "string",
          "name": "_symbol",
          "type": "string"
        }
      ],
      "name": "init",
      "outputs": [],
      "stateMutability": "nonpayable",
      "type": "function"
    },
    {
      "inputs": [
        {
          "internalType": "uint256",
          "name": "",
          "type": "uint256"
        }
      ],
      "name": "initialSupplies",
      "outputs": [
        {
          "internalType": "uint256",
          "name": "",
          "type": "uint256"
        }
      ],
      "stateMutability": "view",
      "type": "function"
    },
    {
      "inputs": [
        {
          "internalType": "address",
          "name": "account",
          "type": "address"
        },
        {
          "internalType": "address",
          "name": "operator",
          "type": "address"
        }
      ],
      "name": "isApprovedForAll",
      "outputs": [
        {
          "internalType": "bool",
          "name": "",
          "type": "bool"
        }
      ],
      "stateMutability": "view",
      "type": "function"
    },
    {
      "inputs": [],
      "name": "name",
      "outputs": [
        {
          "internalType": "string",
          "name": "",
          "type": "string"
        }
      ],
      "stateMutability": "view",
      "type": "function"
    },
    {
      "inputs": [],
      "name": "owner",
      "outputs": [
        {
          "internalType": "address",
          "name": "",
          "type": "address"
        }
      ],
      "stateMutability": "view",
      "type": "function"
    },
    {
      "inputs": [
        {
          "internalType": "address",
          "name": "redeemer",
          "type": "address"
        },
        {
          "components": [
            {
              "internalType": "uint256",
              "name": "tokenId",
              "type": "uint256"
            },
            {
              "internalType": "string",
              "name": "metaUri",
              "type": "string"
            },
            {
              "internalType": "uint256",
              "name": "mintCount",
              "type": "uint256"
            },
            {
              "internalType": "uint256",
              "name": "minPrice",
              "type": "uint256"
            },
            {
              "internalType": "uint256",
              "name": "initialSupply",
              "type": "uint256"
            },
            {
              "internalType": "uint256",
              "name": "royaltyFee",
              "type": "uint256"
            },
            {
              "internalType": "address",
              "name": "royaltyAddress",
              "type": "address"
            },
            {
              "components": [
                {
                  "internalType": "bytes32",
                  "name": "r",
                  "type": "bytes32"
                },
                {
                  "internalType": "bytes32",
                  "name": "s",
                  "type": "bytes32"
                },
                {
                  "internalType": "uint8",
                  "name": "v",
                  "type": "uint8"
                }
              ],
              "internalType": "struct Crea2orsNFT.Sig",
              "name": "signature",
              "type": "tuple"
            }
          ],
          "internalType": "struct Crea2orsNFT.NFTVoucher",
          "name": "voucher",
          "type": "tuple"
        }
      ],
      "name": "redeem",
      "outputs": [
        {
          "internalType": "uint256",
          "name": "",
          "type": "uint256"
        }
      ],
      "stateMutability": "payable",
      "type": "function"
    },
    {
      "inputs": [],
      "name": "renounceOwnership",
      "outputs": [],
      "stateMutability": "nonpayable",
      "type": "function"
    },
    {
      "inputs": [
        {
          "internalType": "uint256",
          "name": "",
          "type": "uint256"
        }
      ],
      "name": "royaltyAddresses",
      "outputs": [
        {
          "internalType": "address",
          "name": "",
          "type": "address"
        }
      ],
      "stateMutability": "view",
      "type": "function"
    },
    {
      "inputs": [
        {
          "internalType": "uint256",
          "name": "",
          "type": "uint256"
        }
      ],
      "name": "royaltyFees",
      "outputs": [
        {
          "internalType": "uint256",
          "name": "",
          "type": "uint256"
        }
      ],
      "stateMutability": "view",
      "type": "function"
    },
    {
      "inputs": [
        {
          "internalType": "address",
          "name": "from",
          "type": "address"
        },
        {
          "internalType": "address",
          "name": "to",
          "type": "address"
        },
        {
          "internalType": "uint256[]",
          "name": "ids",
          "type": "uint256[]"
        },
        {
          "internalType": "uint256[]",
          "name": "amounts",
          "type": "uint256[]"
        },
        {
          "internalType": "bytes",
          "name": "data",
          "type": "bytes"
        }
      ],
      "name": "safeBatchTransferFrom",
      "outputs": [],
      "stateMutability": "nonpayable",
      "type": "function"
    },
    {
      "inputs": [
        {
          "internalType": "address",
          "name": "from",
          "type": "address"
        },
        {
          "internalType": "address",
          "name": "to",
          "type": "address"
        },
        {
          "internalType": "uint256",
          "name": "id",
          "type": "uint256"
        },
        {
          "internalType": "uint256",
          "name": "amount",
          "type": "uint256"
        },
        {
          "internalType": "bytes",
          "name": "data",
          "type": "bytes"
        }
      ],
      "name": "safeTransferFrom",
      "outputs": [],
      "stateMutability": "nonpayable",
      "type": "function"
    },
    {
      "inputs": [
        {
          "internalType": "address",
          "name": "operator",
          "type": "address"
        },
        {
          "internalType": "bool",
          "name": "approved",
          "type": "bool"
        }
      ],
      "name": "setApprovalForAll",
      "outputs": [],
      "stateMutability": "nonpayable",
      "type": "function"
    },
    {
      "inputs": [
        {
          "internalType": "string",
          "name": "contractURI_",
          "type": "string"
        }
      ],
      "name": "setContractURI",
      "outputs": [],
      "stateMutability": "payable",
      "type": "function"
    },
    {
      "inputs": [
        {
          "internalType": "uint256",
          "name": "_id",
          "type": "uint256"
        },
        {
          "internalType": "string",
          "name": "_uri",
          "type": "string"
        }
      ],
      "name": "setURI",
      "outputs": [],
      "stateMutability": "payable",
      "type": "function"
    },
    {
      "inputs": [
        {
          "internalType": "bytes4",
          "name": "interfaceId",
          "type": "bytes4"
        }
      ],
      "name": "supportsInterface",
      "outputs": [
        {
          "internalType": "bool",
          "name": "",
          "type": "bool"
        }
      ],
      "stateMutability": "view",
      "type": "function"
    },
    {
      "inputs": [],
      "name": "symbol",
      "outputs": [
        {
          "internalType": "string",
          "name": "",
          "type": "string"
        }
      ],
      "stateMutability": "view",
      "type": "function"
    },
    {
      "inputs": [
        {
          "internalType": "uint256",
          "name": "_id",
          "type": "uint256"
        }
      ],
      "name": "totalSupply",
      "outputs": [
        {
          "internalType": "uint256",
          "name": "",
          "type": "uint256"
        }
      ],
      "stateMutability": "view",
      "type": "function"
    },
    {
      "inputs": [
        {
          "internalType": "address",
          "name": "newOwner",
          "type": "address"
        }
      ],
      "name": "transferOwnership",
      "outputs": [],
      "stateMutability": "nonpayable",
      "type": "function"
    },
    {
      "inputs": [
        {
          "internalType": "uint256",
          "name": "_id",
          "type": "uint256"
        }
      ],
      "name": "uri",
      "outputs": [
        {
          "internalType": "string",
          "name": "",
          "type": "string"
        }
      ],
      "stateMutability": "view",
      "type": "function"
    }
  ],
  "bytecode": "0x61014060405260006004556000600e60006101000a81548160ff0219169083151502179055503480156200003257600080fd5b5060405162004a6938038062004a698339818101604052810190620000589190620005f0565b6040518060400160405280600f81526020017f4c617a794e46542d566f756368657200000000000000000000000000000000008152506040518060400160405280600181526020017f310000000000000000000000000000000000000000000000000000000000000081525060405180602001604052806000815250620000e5816200026560201b60201c565b5062000106620000fa6200028160201b60201c565b6200028960201b60201c565b60008280519060200120905060008280519060200120905060007f8b73c3c69bb8fe3d512ecc4cf759cc79239f7b179b0ffacaa9a75d522b39400f90508260e081815250508161010081815250504660a081815250506200016f8184846200034f60201b60201c565b608081815250503073ffffffffffffffffffffffffffffffffffffffff1660c08173ffffffffffffffffffffffffffffffffffffffff1660601b8152505080610120818152505050505050506001600e60006101000a81548160ff021916908315150217905550806006819055508360079080519060200190620001f5929190620004ab565b5082600890805190602001906200020e929190620004ab565b507f1d2cdeb916b6deaba04691992f0644f09c3074ecd87caa51ded4a31ca49e590a3383604051620002429291906200075a565b60405180910390a16200025b826200038b60201b60201c565b5050505062000a5c565b80600290805190602001906200027d929190620004ab565b5050565b600033905090565b6000600360009054906101000a900473ffffffffffffffffffffffffffffffffffffffff16905081600360006101000a81548173ffffffffffffffffffffffffffffffffffffffff021916908373ffffffffffffffffffffffffffffffffffffffff1602179055508173ffffffffffffffffffffffffffffffffffffffff168173ffffffffffffffffffffffffffffffffffffffff167f8be0079c531659141344cd1fd0a4f28419497f9722a3daafe3b4186f6b6457e060405160405180910390a35050565b600083838346306040516020016200036c9594939291906200078e565b6040516020818303038152906040528051906020012090509392505050565b6200039b620003f060201b60201c565b8060059080519060200190620003b3929190620004ab565b507fd5ee5eaf65263bab5d569890714d123ad48a9e54409d35e71d374f3dd300bba081604051620003e59190620007eb565b60405180910390a150565b620004006200028160201b60201c565b73ffffffffffffffffffffffffffffffffffffffff16620004266200048160201b60201c565b73ffffffffffffffffffffffffffffffffffffffff16146200047f576040517f08c379a000000000000000000000000000000000000000000000000000000000815260040162000476906200080f565b60405180910390fd5b565b6000600360009054906101000a900473ffffffffffffffffffffffffffffffffffffffff16905090565b828054620004b9906200092a565b90600052602060002090601f016020900481019282620004dd576000855562000529565b82601f10620004f857805160ff191683800117855562000529565b8280016001018555821562000529579182015b82811115620005285782518255916020019190600101906200050b565b5b5090506200053891906200053c565b5090565b5b80821115620005575760008160009055506001016200053d565b5090565b6000620005726200056c846200085a565b62000831565b905082815260208101848484011115620005915762000590620009f9565b5b6200059e848285620008f4565b509392505050565b600082601f830112620005be57620005bd620009f4565b5b8151620005d08482602086016200055b565b91505092915050565b600081519050620005ea8162000a42565b92915050565b600080600080608085870312156200060d576200060c62000a03565b5b600085015167ffffffffffffffff8111156200062e576200062d620009fe565b5b6200063c87828801620005a6565b945050602085015167ffffffffffffffff81111562000660576200065f620009fe565b5b6200066e87828801620005a6565b935050604085015167ffffffffffffffff811115620006925762000691620009fe565b5b620006a087828801620005a6565b9250506060620006b387828801620005d9565b91505092959194509250565b620006ca81620008ac565b82525050565b620006db81620008c0565b82525050565b6000620006ee8262000890565b620006fa81856200089b565b93506200070c818560208601620008f4565b620007178162000a08565b840191505092915050565b6000620007316020836200089b565b91506200073e8262000a19565b602082019050919050565b6200075481620008ea565b82525050565b6000604082019050620007716000830185620006bf565b8181036020830152620007858184620006e1565b90509392505050565b600060a082019050620007a56000830188620006d0565b620007b46020830187620006d0565b620007c36040830186620006d0565b620007d2606083018562000749565b620007e16080830184620006bf565b9695505050505050565b60006020820190508181036000830152620008078184620006e1565b905092915050565b600060208201905081810360008301526200082a8162000722565b9050919050565b60006200083d62000850565b90506200084b828262000960565b919050565b6000604051905090565b600067ffffffffffffffff821115620008785762000877620009c5565b5b620008838262000a08565b9050602081019050919050565b600081519050919050565b600082825260208201905092915050565b6000620008b982620008ca565b9050919050565b6000819050919050565b600073ffffffffffffffffffffffffffffffffffffffff82169050919050565b6000819050919050565b60005b8381101562000914578082015181840152602081019050620008f7565b8381111562000924576000848401525b50505050565b600060028204905060018216806200094357607f821691505b602082108114156200095a576200095962000996565b5b50919050565b6200096b8262000a08565b810181811067ffffffffffffffff821117156200098d576200098c620009c5565b5b80604052505050565b7f4e487b7100000000000000000000000000000000000000000000000000000000600052602260045260246000fd5b7f4e487b7100000000000000000000000000000000000000000000000000000000600052604160045260246000fd5b600080fd5b600080fd5b600080fd5b600080fd5b6000601f19601f8301169050919050565b7f4f776e61626c653a2063616c6c6572206973206e6f7420746865206f776e6572600082015250565b62000a4d81620008ea565b811462000a5957600080fd5b50565b60805160a05160c05160601c60e0516101005161012051613fcc62000a9d600039600050506000505060005050600050506000505060005050613fcc6000f3fe6080604052600436106101645760003560e01c8063862440e2116100d1578063b390c0ab1161008a578063e985e9c511610064578063e985e9c514610550578063f06e6c9c1461058d578063f242432a146105a9578063f2fde38b146105d257610164565b8063b390c0ab146104cc578063bd85b039146104e8578063e8a3d4851461052557610164565b8063862440e2146103d85780638da5cb5b146103f4578063938e3d7b1461041f57806395d89b411461043b5780639915684314610466578063a22cb465146104a357610164565b806335a05ad51161012357806335a05ad5146102a45780634e1273f4146102e157806361aa8b001461031e5780637029144c1461035b578063715018a6146103845780638584fa461461039b57610164565b8062524e2014610169578062fdd58e1461019957806301ffc9a7146101d657806306fdde03146102135780630e89341c1461023e5780632eb2c2d61461027b575b600080fd5b610183600480360381019061017e91906129c4565b6105fb565b60405161019091906134b9565b60405180910390f35b3480156101a557600080fd5b506101c060048036038101906101bb9190612a20565b610656565b6040516101cd91906134b9565b60405180910390f35b3480156101e257600080fd5b506101fd60048036038101906101f89190612ad8565b61071f565b60405161020a91906131e7565b60405180910390f35b34801561021f57600080fd5b50610228610801565b6040516102359190613247565b60405180910390f35b34801561024a57600080fd5b5061026560048036038101906102609190612bf3565b61088f565b6040516102729190613247565b60405180910390f35b34801561028757600080fd5b506102a2600480360381019061029d919061281e565b610982565b005b3480156102b057600080fd5b506102cb60048036038101906102c69190612bf3565b610a23565b6040516102d891906130b1565b60405180910390f35b3480156102ed57600080fd5b5061030860048036038101906103039190612a60565b610a56565b604051610315919061318e565b60405180910390f35b34801561032a57600080fd5b5061034560048036038101906103409190612bf3565b610b6f565b60405161035291906134b9565b60405180910390f35b34801561036757600080fd5b50610382600480360381019061037d9190612b7b565b610b87565b005b34801561039057600080fd5b50610399610c09565b005b3480156103a757600080fd5b506103c260048036038101906103bd9190612bf3565b610c1d565b6040516103cf91906134b9565b60405180910390f35b6103f260048036038101906103ed9190612c20565b610c35565b005b34801561040057600080fd5b50610409610ce2565b60405161041691906130b1565b60405180910390f35b61043960048036038101906104349190612b32565b610d0c565b005b34801561044757600080fd5b50610450610d65565b60405161045d9190613247565b60405180910390f35b34801561047257600080fd5b5061048d60048036038101906104889190612bf3565b610df3565b60405161049a91906134b9565b60405180910390f35b3480156104af57600080fd5b506104ca60048036038101906104c59190612984565b610e0b565b005b6104e660048036038101906104e19190612c7c565b610e21565b005b3480156104f457600080fd5b5061050f600480360381019061050a9190612bf3565b610e80565b60405161051c91906134b9565b60405180910390f35b34801561053157600080fd5b5061053a610e9d565b6040516105479190613247565b60405180910390f35b34801561055c57600080fd5b50610577600480360381019061057291906127de565b610f2f565b60405161058491906131e7565b60405180910390f35b6105a760048036038101906105a2919061281e565b610fc3565b005b3480156105b557600080fd5b506105d060048036038101906105cb91906128ed565b611064565b005b3480156105de57600080fd5b506105f960048036038101906105f491906127b1565b611105565b005b60008061060783611189565b90506106486040518060400160405280600981526020017f7369676e6572202573000000000000000000000000000000000000000000000081525082611206565b826000015191505092915050565b60008073ffffffffffffffffffffffffffffffffffffffff168373ffffffffffffffffffffffffffffffffffffffff1614156106c7576040517f08c379a00000000000000000000000000000000000000000000000000000000081526004016106be90613359565b60405180910390fd5b60008083815260200190815260200160002060008473ffffffffffffffffffffffffffffffffffffffff1673ffffffffffffffffffffffffffffffffffffffff16815260200190815260200160002054905092915050565b60007fd9b67a26000000000000000000000000000000000000000000000000000000007bffffffffffffffffffffffffffffffffffffffffffffffffffffffff1916827bffffffffffffffffffffffffffffffffffffffffffffffffffffffff191614806107ea57507f0e89341c000000000000000000000000000000000000000000000000000000007bffffffffffffffffffffffffffffffffffffffffffffffffffffffff1916827bffffffffffffffffffffffffffffffffffffffffffffffffffffffff1916145b806107fa57506107f9826112a2565b5b9050919050565b6007805461080e906137ab565b80601f016020809104026020016040519081016040528092919081815260200182805461083a906137ab565b80156108875780601f1061085c57610100808354040283529160200191610887565b820191906000526020600020905b81548152906001019060200180831161086a57829003601f168201915b505050505081565b606061089a8261130c565b6108d9576040517f08c379a00000000000000000000000000000000000000000000000000000000081526004016108d090613439565b60405180910390fd5b6000600d600084815260200190815260200160002080546108f9906137ab565b80601f0160208091040260200160405190810160405280929190818152602001828054610925906137ab565b80156109725780601f1061094757610100808354040283529160200191610972565b820191906000526020600020905b81548152906001019060200180831161095557829003601f168201915b5050505050905080915050919050565b61098a611378565b73ffffffffffffffffffffffffffffffffffffffff168573ffffffffffffffffffffffffffffffffffffffff1614806109d057506109cf856109ca611378565b610f2f565b5b610a0f576040517f08c379a0000000000000000000000000000000000000000000000000000000008152600401610a06906132b9565b60405180910390fd5b610a1c8585858585611380565b5050505050565b60096020528060005260406000206000915054906101000a900473ffffffffffffffffffffffffffffffffffffffff1681565b60608151835114610a9c576040517f08c379a0000000000000000000000000000000000000000000000000000000008152600401610a9390613479565b60405180910390fd5b6000835167ffffffffffffffff811115610ab957610ab86138ee565b5b604051908082528060200260200182016040528015610ae75781602001602082028036833780820191505090505b50905060005b8451811015610b6457610b34858281518110610b0c57610b0b6138bf565b5b6020026020010151858381518110610b2757610b266138bf565b5b6020026020010151610656565b828281518110610b4757610b466138bf565b5b60200260200101818152505080610b5d9061380e565b9050610aed565b508091505092915050565b600c6020528060005260406000206000915090505481565b600e60009054906101000a900460ff1615610bd7576040517f08c379a0000000000000000000000000000000000000000000000000000000008152600401610bce906133b9565b60405180910390fd5b8160079080519060200190610bed929190612315565b508060089080519060200190610c04929190612315565b505050565b610c116116a2565b610c1b6000611720565b565b600b6020528060005260406000206000915090505481565b610c3e8261130c565b610c7d576040517f08c379a0000000000000000000000000000000000000000000000000000000008152600401610c7490613439565b60405180910390fd5b80600d60008481526020019081526020016000209080519060200190610ca4929190612315565b507f483621391b5e72d74eb03c7b5715531c486e326fb115ab3bcf34b133041854ce8282604051610cd69291906134d4565b60405180910390a15050565b6000600360009054906101000a900473ffffffffffffffffffffffffffffffffffffffff16905090565b610d146116a2565b8060059080519060200190610d2a929190612315565b507fd5ee5eaf65263bab5d569890714d123ad48a9e54409d35e71d374f3dd300bba081604051610d5a9190613247565b60405180910390a150565b60088054610d72906137ab565b80601f0160208091040260200160405190810160405280929190818152602001828054610d9e906137ab565b8015610deb5780601f10610dc057610100808354040283529160200191610deb565b820191906000526020600020905b815481529060010190602001808311610dce57829003601f168201915b505050505081565b600a6020528060005260406000206000915090505481565b610e1d610e16611378565b83836117e6565b5050565b610e296116a2565b610e328261130c565b610e71576040517f08c379a0000000000000000000000000000000000000000000000000000000008152600401610e6890613339565b60405180910390fd5b610e7c338383611953565b5050565b6000600a6000838152602001908152602001600020549050919050565b606060058054610eac906137ab565b80601f0160208091040260200160405190810160405280929190818152602001828054610ed8906137ab565b8015610f255780601f10610efa57610100808354040283529160200191610f25565b820191906000526020600020905b815481529060010190602001808311610f0857829003601f168201915b5050505050905090565b6000600160008473ffffffffffffffffffffffffffffffffffffffff1673ffffffffffffffffffffffffffffffffffffffff16815260200190815260200160002060008373ffffffffffffffffffffffffffffffffffffffff1673ffffffffffffffffffffffffffffffffffffffff16815260200190815260200160002060009054906101000a900460ff16905092915050565b610fcb611378565b73ffffffffffffffffffffffffffffffffffffffff168573ffffffffffffffffffffffffffffffffffffffff16148061101157506110108561100b611378565b610f2f565b5b611050576040517f08c379a000000000000000000000000000000000000000000000000000000000815260040161104790613399565b60405180910390fd5b61105d8585858585610982565b5050505050565b61106c611378565b73ffffffffffffffffffffffffffffffffffffffff168573ffffffffffffffffffffffffffffffffffffffff1614806110b257506110b1856110ac611378565b610f2f565b5b6110f1576040517f08c379a00000000000000000000000000000000000000000000000000000000081526004016110e8906132b9565b60405180910390fd5b6110fe8585858585611b9a565b5050505050565b61110d6116a2565b600073ffffffffffffffffffffffffffffffffffffffff168173ffffffffffffffffffffffffffffffffffffffff16141561117d576040517f08c379a0000000000000000000000000000000000000000000000000000000008152600401611174906132f9565b60405180910390fd5b61118681611720565b50565b60008061119583611e36565b90506001818460e00151604001518560e00151600001518660e0015160200151604051600081526020016040526040516111d29493929190613202565b6020604051602081039080840390855afa1580156111f4573d6000803e3d6000fd5b50505060206040510351915050919050565b61129e828260405160240161121c929190613269565b6040516020818303038152906040527f319af333000000000000000000000000000000000000000000000000000000007bffffffffffffffffffffffffffffffffffffffffffffffffffffffff19166020820180517bffffffffffffffffffffffffffffffffffffffffffffffffffffffff8381831617835250505050611e71565b5050565b60007f01ffc9a7000000000000000000000000000000000000000000000000000000007bffffffffffffffffffffffffffffffffffffffffffffffffffffffff1916827bffffffffffffffffffffffffffffffffffffffffffffffffffffffff1916149050919050565b60008073ffffffffffffffffffffffffffffffffffffffff166009600084815260200190815260200160002060009054906101000a900473ffffffffffffffffffffffffffffffffffffffff1673ffffffffffffffffffffffffffffffffffffffff1614159050919050565b600033905090565b81518351146113c4576040517f08c379a00000000000000000000000000000000000000000000000000000000081526004016113bb90613499565b60405180910390fd5b600073ffffffffffffffffffffffffffffffffffffffff168473ffffffffffffffffffffffffffffffffffffffff161415611434576040517f08c379a000000000000000000000000000000000000000000000000000000000815260040161142b90613379565b60405180910390fd5b600061143e611378565b905061144e818787878787611e9a565b60005b84518110156115ff57600085828151811061146f5761146e6138bf565b5b60200260200101519050600085838151811061148e5761148d6138bf565b5b60200260200101519050600080600084815260200190815260200160002060008b73ffffffffffffffffffffffffffffffffffffffff1673ffffffffffffffffffffffffffffffffffffffff1681526020019081526020016000205490508181101561152f576040517f08c379a0000000000000000000000000000000000000000000000000000000008152600401611526906133f9565b60405180910390fd5b81810360008085815260200190815260200160002060008c73ffffffffffffffffffffffffffffffffffffffff1673ffffffffffffffffffffffffffffffffffffffff168152602001908152602001600020819055508160008085815260200190815260200160002060008b73ffffffffffffffffffffffffffffffffffffffff1673ffffffffffffffffffffffffffffffffffffffff16815260200190815260200160002060008282546115e49190613688565b92505081905550505050806115f89061380e565b9050611451565b508473ffffffffffffffffffffffffffffffffffffffff168673ffffffffffffffffffffffffffffffffffffffff168273ffffffffffffffffffffffffffffffffffffffff167f4a39dc06d4c0dbc64b70af90fd698a233a518aa5d07e595d983b8c0526c8f7fb87876040516116769291906131b0565b60405180910390a461168c818787878787611ea2565b61169a818787878787611eaa565b505050505050565b6116aa611378565b73ffffffffffffffffffffffffffffffffffffffff166116c8610ce2565b73ffffffffffffffffffffffffffffffffffffffff161461171e576040517f08c379a000000000000000000000000000000000000000000000000000000000815260040161171590613419565b60405180910390fd5b565b6000600360009054906101000a900473ffffffffffffffffffffffffffffffffffffffff16905081600360006101000a81548173ffffffffffffffffffffffffffffffffffffffff021916908373ffffffffffffffffffffffffffffffffffffffff1602179055508173ffffffffffffffffffffffffffffffffffffffff168173ffffffffffffffffffffffffffffffffffffffff167f8be0079c531659141344cd1fd0a4f28419497f9722a3daafe3b4186f6b6457e060405160405180910390a35050565b8173ffffffffffffffffffffffffffffffffffffffff168373ffffffffffffffffffffffffffffffffffffffff161415611855576040517f08c379a000000000000000000000000000000000000000000000000000000000815260040161184c90613459565b60405180910390fd5b80600160008573ffffffffffffffffffffffffffffffffffffffff1673ffffffffffffffffffffffffffffffffffffffff16815260200190815260200160002060008473ffffffffffffffffffffffffffffffffffffffff1673ffffffffffffffffffffffffffffffffffffffff16815260200190815260200160002060006101000a81548160ff0219169083151502179055508173ffffffffffffffffffffffffffffffffffffffff168373ffffffffffffffffffffffffffffffffffffffff167f17307eab39ab6107e8899845ad3d59bd9653f200f220920489ca2b5937696c318360405161194691906131e7565b60405180910390a3505050565b600073ffffffffffffffffffffffffffffffffffffffff168373ffffffffffffffffffffffffffffffffffffffff1614156119c3576040517f08c379a00000000000000000000000000000000000000000000000000000000081526004016119ba906133d9565b60405180910390fd5b60006119cd611378565b905060006119da84612091565b905060006119e784612091565b9050611a0783876000858560405180602001604052806000815250611e9a565b600080600087815260200190815260200160002060008873ffffffffffffffffffffffffffffffffffffffff1673ffffffffffffffffffffffffffffffffffffffff16815260200190815260200160002054905084811015611a9e576040517f08c379a0000000000000000000000000000000000000000000000000000000008152600401611a9590613319565b60405180910390fd5b84810360008088815260200190815260200160002060008973ffffffffffffffffffffffffffffffffffffffff1673ffffffffffffffffffffffffffffffffffffffff16815260200190815260200160002081905550600073ffffffffffffffffffffffffffffffffffffffff168773ffffffffffffffffffffffffffffffffffffffff168573ffffffffffffffffffffffffffffffffffffffff167fc3d58168c5ae7397731d063d5bbf3d657854427343f4c083240f7aacaa2d0f628989604051611b6b929190613504565b60405180910390a4611b9184886000868660405180602001604052806000815250611ea2565b50505050505050565b600073ffffffffffffffffffffffffffffffffffffffff168473ffffffffffffffffffffffffffffffffffffffff161415611c0a576040517f08c379a0000000000000000000000000000000000000000000000000000000008152600401611c0190613379565b60405180910390fd5b6000611c14611378565b90506000611c2185612091565b90506000611c2e85612091565b9050611c3e838989858589611e9a565b600080600088815260200190815260200160002060008a73ffffffffffffffffffffffffffffffffffffffff1673ffffffffffffffffffffffffffffffffffffffff16815260200190815260200160002054905085811015611cd5576040517f08c379a0000000000000000000000000000000000000000000000000000000008152600401611ccc906133f9565b60405180910390fd5b85810360008089815260200190815260200160002060008b73ffffffffffffffffffffffffffffffffffffffff1673ffffffffffffffffffffffffffffffffffffffff168152602001908152602001600020819055508560008089815260200190815260200160002060008a73ffffffffffffffffffffffffffffffffffffffff1673ffffffffffffffffffffffffffffffffffffffff1681526020019081526020016000206000828254611d8a9190613688565b925050819055508773ffffffffffffffffffffffffffffffffffffffff168973ffffffffffffffffffffffffffffffffffffffff168573ffffffffffffffffffffffffffffffffffffffff167fc3d58168c5ae7397731d063d5bbf3d657854427343f4c083240f7aacaa2d0f628a8a604051611e07929190613504565b60405180910390a4611e1d848a8a86868a611ea2565b611e2b848a8a8a8a8a61210b565b505050505050505050565b6000816020015180519060200120604051602001611e54919061308b565b604051602081830303815290604052805190602001209050919050565b60008151905060006a636f6e736f6c652e6c6f679050602083016000808483855afa5050505050565b505050505050565b505050505050565b611ec98473ffffffffffffffffffffffffffffffffffffffff166122f2565b15612089578373ffffffffffffffffffffffffffffffffffffffff1663bc197c8187878686866040518663ffffffff1660e01b8152600401611f0f9594939291906130cc565b602060405180830381600087803b158015611f2957600080fd5b505af1925050508015611f5a57506040513d601f19601f82011682018060405250810190611f579190612b05565b60015b61200057611f6661391d565b806308c379a01415611fc35750611f7b613e76565b80611f865750611fc5565b806040517f08c379a0000000000000000000000000000000000000000000000000000000008152600401611fba9190613247565b60405180910390fd5b505b6040517f08c379a0000000000000000000000000000000000000000000000000000000008152600401611ff790613299565b60405180910390fd5b63bc197c8160e01b7bffffffffffffffffffffffffffffffffffffffffffffffffffffffff1916817bffffffffffffffffffffffffffffffffffffffffffffffffffffffff191614612087576040517f08c379a000000000000000000000000000000000000000000000000000000000815260040161207e906132d9565b60405180910390fd5b505b505050505050565b60606000600167ffffffffffffffff8111156120b0576120af6138ee565b5b6040519080825280602002602001820160405280156120de5781602001602082028036833780820191505090505b50905082816000815181106120f6576120f56138bf565b5b60200260200101818152505080915050919050565b61212a8473ffffffffffffffffffffffffffffffffffffffff166122f2565b156122ea578373ffffffffffffffffffffffffffffffffffffffff1663f23a6e6187878686866040518663ffffffff1660e01b8152600401612170959493929190613134565b602060405180830381600087803b15801561218a57600080fd5b505af19250505080156121bb57506040513d601f19601f820116820180604052508101906121b89190612b05565b60015b612261576121c761391d565b806308c379a0141561222457506121dc613e76565b806121e75750612226565b806040517f08c379a000000000000000000000000000000000000000000000000000000000815260040161221b9190613247565b60405180910390fd5b505b6040517f08c379a000000000000000000000000000000000000000000000000000000000815260040161225890613299565b60405180910390fd5b63f23a6e6160e01b7bffffffffffffffffffffffffffffffffffffffffffffffffffffffff1916817bffffffffffffffffffffffffffffffffffffffffffffffffffffffff1916146122e8576040517f08c379a00000000000000000000000000000000000000000000000000000000081526004016122df906132d9565b60405180910390fd5b505b505050505050565b6000808273ffffffffffffffffffffffffffffffffffffffff163b119050919050565b828054612321906137ab565b90600052602060002090601f016020900481019282612343576000855561238a565b82601f1061235c57805160ff191683800117855561238a565b8280016001018555821561238a579182015b8281111561238957825182559160200191906001019061236e565b5b509050612397919061239b565b5090565b5b808211156123b457600081600090555060010161239c565b5090565b60006123cb6123c684613552565b61352d565b905080838252602082019050828560208602820111156123ee576123ed61394e565b5b60005b8581101561241e5781612404888261251c565b8452602084019350602083019250506001810190506123f1565b5050509392505050565b600061243b6124368461357e565b61352d565b9050808382526020820190508285602086028201111561245e5761245d61394e565b5b60005b8581101561248e57816124748882612787565b845260208401935060208301925050600181019050612461565b5050509392505050565b60006124ab6124a6846135aa565b61352d565b9050828152602081018484840111156124c7576124c6613953565b5b6124d2848285613769565b509392505050565b60006124ed6124e8846135db565b61352d565b90508281526020810184848401111561250957612508613953565b5b612514848285613769565b509392505050565b60008135905061252b81613f0c565b92915050565b600082601f8301126125465761254561393f565b5b81356125568482602086016123b8565b91505092915050565b600082601f8301126125745761257361393f565b5b8135612584848260208601612428565b91505092915050565b60008135905061259c81613f23565b92915050565b6000813590506125b181613f3a565b92915050565b6000813590506125c681613f51565b92915050565b6000815190506125db81613f51565b92915050565b600082601f8301126125f6576125f561393f565b5b8135612606848260208601612498565b91505092915050565b600082601f8301126126245761262361393f565b5b81356126348482602086016124da565b91505092915050565b6000610140828403121561265457612653613944565b5b61265f61010061352d565b9050600061266f84828501612787565b600083015250602082013567ffffffffffffffff81111561269357612692613949565b5b61269f8482850161260f565b60208301525060406126b384828501612787565b60408301525060606126c784828501612787565b60608301525060806126db84828501612787565b60808301525060a06126ef84828501612787565b60a08301525060c06127038482850161251c565b60c08301525060e061271784828501612723565b60e08301525092915050565b60006060828403121561273957612738613944565b5b612743606061352d565b90506000612753848285016125a2565b6000830152506020612767848285016125a2565b602083015250604061277b8482850161279c565b60408301525092915050565b60008135905061279681613f68565b92915050565b6000813590506127ab81613f7f565b92915050565b6000602082840312156127c7576127c661395d565b5b60006127d58482850161251c565b91505092915050565b600080604083850312156127f5576127f461395d565b5b60006128038582860161251c565b92505060206128148582860161251c565b9150509250929050565b600080600080600060a0868803121561283a5761283961395d565b5b60006128488882890161251c565b95505060206128598882890161251c565b945050604086013567ffffffffffffffff81111561287a57612879613958565b5b6128868882890161255f565b935050606086013567ffffffffffffffff8111156128a7576128a6613958565b5b6128b38882890161255f565b925050608086013567ffffffffffffffff8111156128d4576128d3613958565b5b6128e0888289016125e1565b9150509295509295909350565b600080600080600060a086880312156129095761290861395d565b5b60006129178882890161251c565b95505060206129288882890161251c565b945050604061293988828901612787565b935050606061294a88828901612787565b925050608086013567ffffffffffffffff81111561296b5761296a613958565b5b612977888289016125e1565b9150509295509295909350565b6000806040838503121561299b5761299a61395d565b5b60006129a98582860161251c565b92505060206129ba8582860161258d565b9150509250929050565b600080604083850312156129db576129da61395d565b5b60006129e98582860161251c565b925050602083013567ffffffffffffffff811115612a0a57612a09613958565b5b612a168582860161263d565b9150509250929050565b60008060408385031215612a3757612a3661395d565b5b6000612a458582860161251c565b9250506020612a5685828601612787565b9150509250929050565b60008060408385031215612a7757612a7661395d565b5b600083013567ffffffffffffffff811115612a9557612a94613958565b5b612aa185828601612531565b925050602083013567ffffffffffffffff811115612ac257612ac1613958565b5b612ace8582860161255f565b9150509250929050565b600060208284031215612aee57612aed61395d565b5b6000612afc848285016125b7565b91505092915050565b600060208284031215612b1b57612b1a61395d565b5b6000612b29848285016125cc565b91505092915050565b600060208284031215612b4857612b4761395d565b5b600082013567ffffffffffffffff811115612b6657612b65613958565b5b612b728482850161260f565b91505092915050565b60008060408385031215612b9257612b9161395d565b5b600083013567ffffffffffffffff811115612bb057612baf613958565b5b612bbc8582860161260f565b925050602083013567ffffffffffffffff811115612bdd57612bdc613958565b5b612be98582860161260f565b9150509250929050565b600060208284031215612c0957612c0861395d565b5b6000612c1784828501612787565b91505092915050565b60008060408385031215612c3757612c3661395d565b5b6000612c4585828601612787565b925050602083013567ffffffffffffffff811115612c6657612c65613958565b5b612c728582860161260f565b9150509250929050565b60008060408385031215612c9357612c9261395d565b5b6000612ca185828601612787565b9250506020612cb285828601612787565b9150509250929050565b6000612cc8838361305e565b60208301905092915050565b612cdd816136de565b82525050565b6000612cee8261361c565b612cf8818561364a565b9350612d038361360c565b8060005b83811015612d34578151612d1b8882612cbc565b9750612d268361363d565b925050600181019050612d07565b5085935050505092915050565b612d4a816136f0565b82525050565b612d59816136fc565b82525050565b612d70612d6b826136fc565b613857565b82525050565b6000612d8182613627565b612d8b818561365b565b9350612d9b818560208601613778565b612da481613962565b840191505092915050565b6000612dba82613632565b612dc4818561366c565b9350612dd4818560208601613778565b612ddd81613962565b840191505092915050565b6000612df560348361366c565b9150612e0082613980565b604082019050919050565b6000612e18602f8361366c565b9150612e23826139cf565b604082019050919050565b6000612e3b60288361366c565b9150612e4682613a1e565b604082019050919050565b6000612e5e601c8361367d565b9150612e6982613a6d565b601c82019050919050565b6000612e8160268361366c565b9150612e8c82613a96565b604082019050919050565b6000612ea460248361366c565b9150612eaf82613ae5565b604082019050919050565b6000612ec760208361366c565b9150612ed282613b34565b602082019050919050565b6000612eea602a8361366c565b9150612ef582613b5d565b604082019050919050565b6000612f0d60258361366c565b9150612f1882613bac565b604082019050919050565b6000612f3060328361366c565b9150612f3b82613bfb565b604082019050919050565b6000612f53602c8361366c565b9150612f5e82613c4a565b604082019050919050565b6000612f7660238361366c565b9150612f8182613c99565b604082019050919050565b6000612f99602a8361366c565b9150612fa482613ce8565b604082019050919050565b6000612fbc60208361366c565b9150612fc782613d37565b602082019050919050565b6000612fdf601e8361366c565b9150612fea82613d60565b602082019050919050565b600061300260298361366c565b915061300d82613d89565b604082019050919050565b600061302560298361366c565b915061303082613dd8565b604082019050919050565b600061304860288361366c565b915061305382613e27565b604082019050919050565b61306781613752565b82525050565b61307681613752565b82525050565b6130858161375c565b82525050565b600061309682612e51565b91506130a28284612d5f565b60208201915081905092915050565b60006020820190506130c66000830184612cd4565b92915050565b600060a0820190506130e16000830188612cd4565b6130ee6020830187612cd4565b81810360408301526131008186612ce3565b905081810360608301526131148185612ce3565b905081810360808301526131288184612d76565b90509695505050505050565b600060a0820190506131496000830188612cd4565b6131566020830187612cd4565b613163604083018661306d565b613170606083018561306d565b81810360808301526131828184612d76565b90509695505050505050565b600060208201905081810360008301526131a88184612ce3565b905092915050565b600060408201905081810360008301526131ca8185612ce3565b905081810360208301526131de8184612ce3565b90509392505050565b60006020820190506131fc6000830184612d41565b92915050565b60006080820190506132176000830187612d50565b613224602083018661307c565b6132316040830185612d50565b61323e6060830184612d50565b95945050505050565b600060208201905081810360008301526132618184612daf565b905092915050565b600060408201905081810360008301526132838185612daf565b90506132926020830184612cd4565b9392505050565b600060208201905081810360008301526132b281612de8565b9050919050565b600060208201905081810360008301526132d281612e0b565b9050919050565b600060208201905081810360008301526132f281612e2e565b9050919050565b6000602082019050818103600083015261331281612e74565b9050919050565b6000602082019050818103600083015261333281612e97565b9050919050565b6000602082019050818103600083015261335281612eba565b9050919050565b6000602082019050818103600083015261337281612edd565b9050919050565b6000602082019050818103600083015261339281612f00565b9050919050565b600060208201905081810360008301526133b281612f23565b9050919050565b600060208201905081810360008301526133d281612f46565b9050919050565b600060208201905081810360008301526133f281612f69565b9050919050565b6000602082019050818103600083015261341281612f8c565b9050919050565b6000602082019050818103600083015261343281612faf565b9050919050565b6000602082019050818103600083015261345281612fd2565b9050919050565b6000602082019050818103600083015261347281612ff5565b9050919050565b6000602082019050818103600083015261349281613018565b9050919050565b600060208201905081810360008301526134b28161303b565b9050919050565b60006020820190506134ce600083018461306d565b92915050565b60006040820190506134e9600083018561306d565b81810360208301526134fb8184612daf565b90509392505050565b6000604082019050613519600083018561306d565b613526602083018461306d565b9392505050565b6000613537613548565b905061354382826137dd565b919050565b6000604051905090565b600067ffffffffffffffff82111561356d5761356c6138ee565b5b602082029050602081019050919050565b600067ffffffffffffffff821115613599576135986138ee565b5b602082029050602081019050919050565b600067ffffffffffffffff8211156135c5576135c46138ee565b5b6135ce82613962565b9050602081019050919050565b600067ffffffffffffffff8211156135f6576135f56138ee565b5b6135ff82613962565b9050602081019050919050565b6000819050602082019050919050565b600081519050919050565b600081519050919050565b600081519050919050565b6000602082019050919050565b600082825260208201905092915050565b600082825260208201905092915050565b600082825260208201905092915050565b600081905092915050565b600061369382613752565b915061369e83613752565b9250827fffffffffffffffffffffffffffffffffffffffffffffffffffffffffffffffff038211156136d3576136d2613861565b5b828201905092915050565b60006136e982613732565b9050919050565b60008115159050919050565b6000819050919050565b60007fffffffff0000000000000000000000000000000000000000000000000000000082169050919050565b600073ffffffffffffffffffffffffffffffffffffffff82169050919050565b6000819050919050565b600060ff82169050919050565b82818337600083830152505050565b60005b8381101561379657808201518184015260208101905061377b565b838111156137a5576000848401525b50505050565b600060028204905060018216806137c357607f821691505b602082108114156137d7576137d6613890565b5b50919050565b6137e682613962565b810181811067ffffffffffffffff82111715613805576138046138ee565b5b80604052505050565b600061381982613752565b91507fffffffffffffffffffffffffffffffffffffffffffffffffffffffffffffffff82141561384c5761384b613861565b5b600182019050919050565b6000819050919050565b7f4e487b7100000000000000000000000000000000000000000000000000000000600052601160045260246000fd5b7f4e487b7100000000000000000000000000000000000000000000000000000000600052602260045260246000fd5b7f4e487b7100000000000000000000000000000000000000000000000000000000600052603260045260246000fd5b7f4e487b7100000000000000000000000000000000000000000000000000000000600052604160045260246000fd5b600060033d111561393c5760046000803e613939600051613973565b90505b90565b600080fd5b600080fd5b600080fd5b600080fd5b600080fd5b600080fd5b600080fd5b6000601f19601f8301169050919050565b60008160e01c9050919050565b7f455243313135353a207472616e7366657220746f206e6f6e204552433131353560008201527f526563656976657220696d706c656d656e746572000000000000000000000000602082015250565b7f455243313135353a2063616c6c6572206973206e6f7420746f6b656e206f776e60008201527f6572206e6f7220617070726f7665640000000000000000000000000000000000602082015250565b7f455243313135353a204552433131353552656365697665722072656a6563746560008201527f6420746f6b656e73000000000000000000000000000000000000000000000000602082015250565b7f19457468657265756d205369676e6564204d6573736167653a0a333200000000600082015250565b7f4f776e61626c653a206e6577206f776e657220697320746865207a65726f206160008201527f6464726573730000000000000000000000000000000000000000000000000000602082015250565b7f455243313135353a206275726e20616d6f756e7420657863656564732062616c60008201527f616e636500000000000000000000000000000000000000000000000000000000602082015250565b7f4552433131353520236275726e3a204e4f4e4558495354454e545f544f4b454e600082015250565b7f455243313135353a2061646472657373207a65726f206973206e6f742061207660008201527f616c6964206f776e657200000000000000000000000000000000000000000000602082015250565b7f455243313135353a207472616e7366657220746f20746865207a65726f20616460008201527f6472657373000000000000000000000000000000000000000000000000000000602082015250565b7f455243313135353a207472616e736665722063616c6c6572206973206e6f742060008201527f6f776e6572206e6f7220617070726f7665640000000000000000000000000000602082015250565b7f45524331353520547261646561626c65206d757374206e6f7420626520636f6e60008201527f7374727563746564207965740000000000000000000000000000000000000000602082015250565b7f455243313135353a206275726e2066726f6d20746865207a65726f206164647260008201527f6573730000000000000000000000000000000000000000000000000000000000602082015250565b7f455243313135353a20696e73756666696369656e742062616c616e636520666f60008201527f72207472616e7366657200000000000000000000000000000000000000000000602082015250565b7f4f776e61626c653a2063616c6c6572206973206e6f7420746865206f776e6572600082015250565b7f45524331313535237572693a204e4f4e4558495354454e545f544f4b454e0000600082015250565b7f455243313135353a2073657474696e6720617070726f76616c2073746174757360008201527f20666f722073656c660000000000000000000000000000000000000000000000602082015250565b7f455243313135353a206163636f756e747320616e6420696473206c656e67746860008201527f206d69736d617463680000000000000000000000000000000000000000000000602082015250565b7f455243313135353a2069647320616e6420616d6f756e7473206c656e6774682060008201527f6d69736d61746368000000000000000000000000000000000000000000000000602082015250565b600060443d1015613e8657613f09565b613e8e613548565b60043d036004823e80513d602482011167ffffffffffffffff82111715613eb6575050613f09565b808201805167ffffffffffffffff811115613ed45750505050613f09565b80602083010160043d038501811115613ef1575050505050613f09565b613f00826020018501866137dd565b82955050505050505b90565b613f15816136de565b8114613f2057600080fd5b50565b613f2c816136f0565b8114613f3757600080fd5b50565b613f43816136fc565b8114613f4e57600080fd5b50565b613f5a81613706565b8114613f6557600080fd5b50565b613f7181613752565b8114613f7c57600080fd5b50565b613f888161375c565b8114613f9357600080fd5b5056fea2646970667358221220a9d3840ec8c60c584acf0a1f7b1281fbed5ce517c0d08c32f783ff5f867d6b5b64736f6c63430008050033",
  "linkReferences": {},
  "deployedLinkReferences": {}
}