{
  "_format": "hh-sol-artifact-1",
  "contractName": "Crea2orsNFT",
  "sourceName": "contracts/Crea2orsNFT_v2.0.sol",
  "abi": [
    {
      "inputs": [
        {
          "internalType": "string",
          "name": "name_",
          "type": "string"
        },
        {
          "internalType": "string",
          "name": "symbol_",
          "type": "string"
        },
        {
          "internalType": "string",
          "name": "contractURI_",
          "type": "string"
        },
        {
          "internalType": "uint256",
          "name": "totalLimit_",
          "type": "uint256"
        }
      ],
      "stateMutability": "nonpayable",
      "type": "constructor"
    },
    {
      "anonymous": false,
      "inputs": [
        {
          "indexed": true,
          "internalType": "address",
          "name": "account",
          "type": "address"
        },
        {
          "indexed": true,
          "internalType": "address",
          "name": "operator",
          "type": "address"
        },
        {
          "indexed": false,
          "internalType": "bool",
          "name": "approved",
          "type": "bool"
        }
      ],
      "name": "ApprovalForAll",
      "type": "event"
    },
    {
      "anonymous": false,
      "inputs": [
        {
          "indexed": false,
          "internalType": "address",
          "name": "",
          "type": "address"
        },
        {
          "indexed": false,
          "internalType": "string",
          "name": "",
          "type": "string"
        }
      ],
      "name": "ContractDeployed",
      "type": "event"
    },
    {
      "anonymous": false,
      "inputs": [
        {
          "indexed": false,
          "internalType": "string",
          "name": "",
          "type": "string"
        }
      ],
      "name": "ContractURIChanged",
      "type": "event"
    },
    {
      "anonymous": false,
      "inputs": [
        {
          "indexed": true,
          "internalType": "address",
          "name": "previousOwner",
          "type": "address"
        },
        {
          "indexed": true,
          "internalType": "address",
          "name": "newOwner",
          "type": "address"
        }
      ],
      "name": "OwnershipTransferred",
      "type": "event"
    },
    {
      "anonymous": false,
      "inputs": [
        {
          "indexed": false,
          "internalType": "uint256",
          "name": "",
          "type": "uint256"
        },
        {
          "indexed": false,
          "internalType": "string",
          "name": "",
          "type": "string"
        }
      ],
      "name": "TokenURIChanged",
      "type": "event"
    },
    {
      "anonymous": false,
      "inputs": [
        {
          "indexed": true,
          "internalType": "address",
          "name": "operator",
          "type": "address"
        },
        {
          "indexed": true,
          "internalType": "address",
          "name": "from",
          "type": "address"
        },
        {
          "indexed": true,
          "internalType": "address",
          "name": "to",
          "type": "address"
        },
        {
          "indexed": false,
          "internalType": "uint256[]",
          "name": "ids",
          "type": "uint256[]"
        },
        {
          "indexed": false,
          "internalType": "uint256[]",
          "name": "values",
          "type": "uint256[]"
        }
      ],
      "name": "TransferBatch",
      "type": "event"
    },
    {
      "anonymous": false,
      "inputs": [
        {
          "indexed": true,
          "internalType": "address",
          "name": "operator",
          "type": "address"
        },
        {
          "indexed": true,
          "internalType": "address",
          "name": "from",
          "type": "address"
        },
        {
          "indexed": true,
          "internalType": "address",
          "name": "to",
          "type": "address"
        },
        {
          "indexed": false,
          "internalType": "uint256",
          "name": "id",
          "type": "uint256"
        },
        {
          "indexed": false,
          "internalType": "uint256",
          "name": "value",
          "type": "uint256"
        }
      ],
      "name": "TransferSingle",
      "type": "event"
    },
    {
      "anonymous": false,
      "inputs": [
        {
          "indexed": false,
          "internalType": "string",
          "name": "value",
          "type": "string"
        },
        {
          "indexed": true,
          "internalType": "uint256",
          "name": "id",
          "type": "uint256"
        }
      ],
      "name": "URI",
      "type": "event"
    },
    {
      "inputs": [],
      "name": "MINTER_ROLE",
      "outputs": [
        {
          "internalType": "bytes32",
          "name": "",
          "type": "bytes32"
        }
      ],
      "stateMutability": "view",
      "type": "function"
    },
    {
      "inputs": [
        {
          "internalType": "address",
          "name": "account",
          "type": "address"
        },
        {
          "internalType": "uint256",
          "name": "id",
          "type": "uint256"
        }
      ],
      "name": "balanceOf",
      "outputs": [
        {
          "internalType": "uint256",
          "name": "",
          "type": "uint256"
        }
      ],
      "stateMutability": "view",
      "type": "function"
    },
    {
      "inputs": [
        {
          "internalType": "address[]",
          "name": "accounts",
          "type": "address[]"
        },
        {
          "internalType": "uint256[]",
          "name": "ids",
          "type": "uint256[]"
        }
      ],
      "name": "balanceOfBatch",
      "outputs": [
        {
          "internalType": "uint256[]",
          "name": "",
          "type": "uint256[]"
        }
      ],
      "stateMutability": "view",
      "type": "function"
    },
    {
      "inputs": [
        {
          "internalType": "address",
          "name": "from",
          "type": "address"
        },
        {
          "internalType": "address",
          "name": "to",
          "type": "address"
        },
        {
          "internalType": "uint256[]",
          "name": "ids",
          "type": "uint256[]"
        },
        {
          "internalType": "uint256[]",
          "name": "amounts",
          "type": "uint256[]"
        },
        {
          "internalType": "bytes",
          "name": "data",
          "type": "bytes"
        }
      ],
      "name": "batchTransferFrom",
      "outputs": [],
      "stateMutability": "payable",
      "type": "function"
    },
    {
      "inputs": [
        {
          "internalType": "uint256",
          "name": "_id",
          "type": "uint256"
        },
        {
          "internalType": "uint256",
          "name": "_amount",
          "type": "uint256"
        }
      ],
      "name": "burn",
      "outputs": [],
      "stateMutability": "payable",
      "type": "function"
    },
    {
      "inputs": [],
      "name": "contractURI",
      "outputs": [
        {
          "internalType": "string",
          "name": "",
          "type": "string"
        }
      ],
      "stateMutability": "view",
      "type": "function"
    },
    {
      "inputs": [
        {
          "internalType": "uint256",
          "name": "",
          "type": "uint256"
        }
      ],
      "name": "curMintedSupplies",
      "outputs": [
        {
          "internalType": "uint256",
          "name": "",
          "type": "uint256"
        }
      ],
      "stateMutability": "view",
      "type": "function"
    },
    {
      "inputs": [
        {
          "internalType": "string",
          "name": "_name",
          "type": "string"
        },
        {
          "internalType": "string",
          "name": "_symbol",
          "type": "string"
        }
      ],
      "name": "init",
      "outputs": [],
      "stateMutability": "nonpayable",
      "type": "function"
    },
    {
      "inputs": [
        {
          "internalType": "uint256",
          "name": "",
          "type": "uint256"
        }
      ],
      "name": "initialSupplies",
      "outputs": [
        {
          "internalType": "uint256",
          "name": "",
          "type": "uint256"
        }
      ],
      "stateMutability": "view",
      "type": "function"
    },
    {
      "inputs": [
        {
          "internalType": "address",
          "name": "account",
          "type": "address"
        },
        {
          "internalType": "address",
          "name": "operator",
          "type": "address"
        }
      ],
      "name": "isApprovedForAll",
      "outputs": [
        {
          "internalType": "bool",
          "name": "",
          "type": "bool"
        }
      ],
      "stateMutability": "view",
      "type": "function"
    },
    {
      "inputs": [],
      "name": "name",
      "outputs": [
        {
          "internalType": "string",
          "name": "",
          "type": "string"
        }
      ],
      "stateMutability": "view",
      "type": "function"
    },
    {
      "inputs": [],
      "name": "owner",
      "outputs": [
        {
          "internalType": "address",
          "name": "",
          "type": "address"
        }
      ],
      "stateMutability": "view",
      "type": "function"
    },
    {
      "inputs": [
        {
          "internalType": "address",
          "name": "redeemer",
          "type": "address"
        },
        {
          "components": [
            {
              "internalType": "uint256",
              "name": "tokenId",
              "type": "uint256"
            },
            {
              "internalType": "string",
              "name": "metaUri",
              "type": "string"
            },
            {
              "internalType": "uint256",
              "name": "mintCount",
              "type": "uint256"
            },
            {
              "internalType": "uint256",
              "name": "minPrice",
              "type": "uint256"
            },
            {
              "internalType": "uint256",
              "name": "initialSupply",
              "type": "uint256"
            },
            {
              "internalType": "uint256",
              "name": "royaltyFee",
              "type": "uint256"
            },
            {
              "internalType": "address",
              "name": "royaltyAddress",
              "type": "address"
            },
            {
              "components": [
                {
                  "internalType": "bytes32",
                  "name": "r",
                  "type": "bytes32"
                },
                {
                  "internalType": "bytes32",
                  "name": "s",
                  "type": "bytes32"
                },
                {
                  "internalType": "uint8",
                  "name": "v",
                  "type": "uint8"
                }
              ],
              "internalType": "struct Crea2orsNFT.Sig",
              "name": "signature",
              "type": "tuple"
            }
          ],
          "internalType": "struct Crea2orsNFT.NFTVoucher",
          "name": "voucher",
          "type": "tuple"
        }
      ],
      "name": "redeem",
      "outputs": [
        {
          "internalType": "uint256",
          "name": "",
          "type": "uint256"
        }
      ],
      "stateMutability": "payable",
      "type": "function"
    },
    {
      "inputs": [],
      "name": "renounceOwnership",
      "outputs": [],
      "stateMutability": "nonpayable",
      "type": "function"
    },
    {
      "inputs": [
        {
          "internalType": "uint256",
          "name": "",
          "type": "uint256"
        }
      ],
      "name": "royaltyAddresses",
      "outputs": [
        {
          "internalType": "address",
          "name": "",
          "type": "address"
        }
      ],
      "stateMutability": "view",
      "type": "function"
    },
    {
      "inputs": [
        {
          "internalType": "uint256",
          "name": "",
          "type": "uint256"
        }
      ],
      "name": "royaltyFees",
      "outputs": [
        {
          "internalType": "uint256",
          "name": "",
          "type": "uint256"
        }
      ],
      "stateMutability": "view",
      "type": "function"
    },
    {
      "inputs": [
        {
          "internalType": "address",
          "name": "from",
          "type": "address"
        },
        {
          "internalType": "address",
          "name": "to",
          "type": "address"
        },
        {
          "internalType": "uint256[]",
          "name": "ids",
          "type": "uint256[]"
        },
        {
          "internalType": "uint256[]",
          "name": "amounts",
          "type": "uint256[]"
        },
        {
          "internalType": "bytes",
          "name": "data",
          "type": "bytes"
        }
      ],
      "name": "safeBatchTransferFrom",
      "outputs": [],
      "stateMutability": "nonpayable",
      "type": "function"
    },
    {
      "inputs": [
        {
          "internalType": "address",
          "name": "from",
          "type": "address"
        },
        {
          "internalType": "address",
          "name": "to",
          "type": "address"
        },
        {
          "internalType": "uint256",
          "name": "id",
          "type": "uint256"
        },
        {
          "internalType": "uint256",
          "name": "amount",
          "type": "uint256"
        },
        {
          "internalType": "bytes",
          "name": "data",
          "type": "bytes"
        }
      ],
      "name": "safeTransferFrom",
      "outputs": [],
      "stateMutability": "nonpayable",
      "type": "function"
    },
    {
      "inputs": [
        {
          "internalType": "address",
          "name": "operator",
          "type": "address"
        },
        {
          "internalType": "bool",
          "name": "approved",
          "type": "bool"
        }
      ],
      "name": "setApprovalForAll",
      "outputs": [],
      "stateMutability": "nonpayable",
      "type": "function"
    },
    {
      "inputs": [
        {
          "internalType": "string",
          "name": "contractURI_",
          "type": "string"
        }
      ],
      "name": "setContractURI",
      "outputs": [],
      "stateMutability": "payable",
      "type": "function"
    },
    {
      "inputs": [
        {
          "internalType": "uint256",
          "name": "_id",
          "type": "uint256"
        },
        {
          "internalType": "string",
          "name": "_uri",
          "type": "string"
        }
      ],
      "name": "setURI",
      "outputs": [],
      "stateMutability": "payable",
      "type": "function"
    },
    {
      "inputs": [
        {
          "internalType": "bytes4",
          "name": "interfaceId",
          "type": "bytes4"
        }
      ],
      "name": "supportsInterface",
      "outputs": [
        {
          "internalType": "bool",
          "name": "",
          "type": "bool"
        }
      ],
      "stateMutability": "view",
      "type": "function"
    },
    {
      "inputs": [],
      "name": "symbol",
      "outputs": [
        {
          "internalType": "string",
          "name": "",
          "type": "string"
        }
      ],
      "stateMutability": "view",
      "type": "function"
    },
    {
      "inputs": [
        {
          "internalType": "uint256",
          "name": "_id",
          "type": "uint256"
        }
      ],
      "name": "totalSupply",
      "outputs": [
        {
          "internalType": "uint256",
          "name": "",
          "type": "uint256"
        }
      ],
      "stateMutability": "view",
      "type": "function"
    },
    {
      "inputs": [
        {
          "internalType": "address",
          "name": "newOwner",
          "type": "address"
        }
      ],
      "name": "transferOwnership",
      "outputs": [],
      "stateMutability": "nonpayable",
      "type": "function"
    },
    {
      "inputs": [
        {
          "internalType": "uint256",
          "name": "_id",
          "type": "uint256"
        }
      ],
      "name": "uri",
      "outputs": [
        {
          "internalType": "string",
          "name": "",
          "type": "string"
        }
      ],
      "stateMutability": "view",
      "type": "function"
    }
  ],
  "bytecode": "0x61014060405260006004556000600e60006101000a81548160ff0219169083151502179055503480156200003257600080fd5b5060405162004ef738038062004ef78339818101604052810190620000589190620005f0565b6040518060400160405280600f81526020017f4c617a794e46542d566f756368657200000000000000000000000000000000008152506040518060400160405280600181526020017f310000000000000000000000000000000000000000000000000000000000000081525060405180602001604052806000815250620000e5816200026560201b60201c565b5062000106620000fa6200028160201b60201c565b6200028960201b60201c565b60008280519060200120905060008280519060200120905060007f8b73c3c69bb8fe3d512ecc4cf759cc79239f7b179b0ffacaa9a75d522b39400f90508260e081815250508161010081815250504660a081815250506200016f8184846200034f60201b60201c565b608081815250503073ffffffffffffffffffffffffffffffffffffffff1660c08173ffffffffffffffffffffffffffffffffffffffff1660601b8152505080610120818152505050505050506001600e60006101000a81548160ff021916908315150217905550806006819055508360079080519060200190620001f5929190620004ab565b5082600890805190602001906200020e929190620004ab565b507f1d2cdeb916b6deaba04691992f0644f09c3074ecd87caa51ded4a31ca49e590a3383604051620002429291906200075a565b60405180910390a16200025b826200038b60201b60201c565b5050505062000a5c565b80600290805190602001906200027d929190620004ab565b5050565b600033905090565b6000600360009054906101000a900473ffffffffffffffffffffffffffffffffffffffff16905081600360006101000a81548173ffffffffffffffffffffffffffffffffffffffff021916908373ffffffffffffffffffffffffffffffffffffffff1602179055508173ffffffffffffffffffffffffffffffffffffffff168173ffffffffffffffffffffffffffffffffffffffff167f8be0079c531659141344cd1fd0a4f28419497f9722a3daafe3b4186f6b6457e060405160405180910390a35050565b600083838346306040516020016200036c9594939291906200078e565b6040516020818303038152906040528051906020012090509392505050565b6200039b620003f060201b60201c565b8060059080519060200190620003b3929190620004ab565b507fd5ee5eaf65263bab5d569890714d123ad48a9e54409d35e71d374f3dd300bba081604051620003e59190620007eb565b60405180910390a150565b620004006200028160201b60201c565b73ffffffffffffffffffffffffffffffffffffffff16620004266200048160201b60201c565b73ffffffffffffffffffffffffffffffffffffffff16146200047f576040517f08c379a000000000000000000000000000000000000000000000000000000000815260040162000476906200080f565b60405180910390fd5b565b6000600360009054906101000a900473ffffffffffffffffffffffffffffffffffffffff16905090565b828054620004b9906200092a565b90600052602060002090601f016020900481019282620004dd576000855562000529565b82601f10620004f857805160ff191683800117855562000529565b8280016001018555821562000529579182015b82811115620005285782518255916020019190600101906200050b565b5b5090506200053891906200053c565b5090565b5b80821115620005575760008160009055506001016200053d565b5090565b6000620005726200056c846200085a565b62000831565b905082815260208101848484011115620005915762000590620009f9565b5b6200059e848285620008f4565b509392505050565b600082601f830112620005be57620005bd620009f4565b5b8151620005d08482602086016200055b565b91505092915050565b600081519050620005ea8162000a42565b92915050565b600080600080608085870312156200060d576200060c62000a03565b5b600085015167ffffffffffffffff8111156200062e576200062d620009fe565b5b6200063c87828801620005a6565b945050602085015167ffffffffffffffff81111562000660576200065f620009fe565b5b6200066e87828801620005a6565b935050604085015167ffffffffffffffff811115620006925762000691620009fe565b5b620006a087828801620005a6565b9250506060620006b387828801620005d9565b91505092959194509250565b620006ca81620008ac565b82525050565b620006db81620008c0565b82525050565b6000620006ee8262000890565b620006fa81856200089b565b93506200070c818560208601620008f4565b620007178162000a08565b840191505092915050565b6000620007316020836200089b565b91506200073e8262000a19565b602082019050919050565b6200075481620008ea565b82525050565b6000604082019050620007716000830185620006bf565b8181036020830152620007858184620006e1565b90509392505050565b600060a082019050620007a56000830188620006d0565b620007b46020830187620006d0565b620007c36040830186620006d0565b620007d2606083018562000749565b620007e16080830184620006bf565b9695505050505050565b60006020820190508181036000830152620008078184620006e1565b905092915050565b600060208201905081810360008301526200082a8162000722565b9050919050565b60006200083d62000850565b90506200084b828262000960565b919050565b6000604051905090565b600067ffffffffffffffff821115620008785762000877620009c5565b5b620008838262000a08565b9050602081019050919050565b600081519050919050565b600082825260208201905092915050565b6000620008b982620008ca565b9050919050565b6000819050919050565b600073ffffffffffffffffffffffffffffffffffffffff82169050919050565b6000819050919050565b60005b8381101562000914578082015181840152602081019050620008f7565b8381111562000924576000848401525b50505050565b600060028204905060018216806200094357607f821691505b602082108114156200095a576200095962000996565b5b50919050565b6200096b8262000a08565b810181811067ffffffffffffffff821117156200098d576200098c620009c5565b5b80604052505050565b7f4e487b7100000000000000000000000000000000000000000000000000000000600052602260045260246000fd5b7f4e487b7100000000000000000000000000000000000000000000000000000000600052604160045260246000fd5b600080fd5b600080fd5b600080fd5b600080fd5b6000601f19601f8301169050919050565b7f4f776e61626c653a2063616c6c6572206973206e6f7420746865206f776e6572600082015250565b62000a4d81620008ea565b811462000a5957600080fd5b50565b60805160a05160c05160601c60e051610100516101205161445a62000a9d60003960005050600050506000505060005050600050506000505061445a6000f3fe60806040526004361061017f5760003560e01c80638da5cb5b116100d1578063bd85b0391161008a578063e985e9c511610064578063e985e9c514610596578063f06e6c9c146105d3578063f242432a146105ef578063f2fde38b146106185761017f565b8063bd85b03914610503578063d539139314610540578063e8a3d4851461056b5761017f565b80638da5cb5b1461040f578063938e3d7b1461043a57806395d89b41146104565780639915684314610481578063a22cb465146104be578063b390c0ab146104e75761017f565b806335a05ad51161013e5780637029144c116101185780637029144c14610376578063715018a61461039f5780638584fa46146103b6578063862440e2146103f35761017f565b806335a05ad5146102bf5780634e1273f4146102fc57806361aa8b00146103395761017f565b8062524e2014610184578062fdd58e146101b457806301ffc9a7146101f157806306fdde031461022e5780630e89341c146102595780632eb2c2d614610296575b600080fd5b61019e60048036038101906101999190612c97565b610641565b6040516101ab9190613812565b60405180910390f35b3480156101c057600080fd5b506101db60048036038101906101d69190612cf3565b6107f9565b6040516101e89190613812565b60405180910390f35b3480156101fd57600080fd5b5061021860048036038101906102139190612dab565b6108c2565b60405161022591906134fa565b60405180910390f35b34801561023a57600080fd5b506102436109a4565b6040516102509190613530565b60405180910390f35b34801561026557600080fd5b50610280600480360381019061027b9190612ec6565b610a32565b60405161028d9190613530565b60405180910390f35b3480156102a257600080fd5b506102bd60048036038101906102b89190612af1565b610b25565b005b3480156102cb57600080fd5b506102e660048036038101906102e19190612ec6565b610bc6565b6040516102f391906133c4565b60405180910390f35b34801561030857600080fd5b50610323600480360381019061031e9190612d33565b610bf9565b60405161033091906134a1565b60405180910390f35b34801561034557600080fd5b50610360600480360381019061035b9190612ec6565b610d12565b60405161036d9190613812565b60405180910390f35b34801561038257600080fd5b5061039d60048036038101906103989190612e4e565b610d2a565b005b3480156103ab57600080fd5b506103b4610dac565b005b3480156103c257600080fd5b506103dd60048036038101906103d89190612ec6565b610dc0565b6040516103ea9190613812565b60405180910390f35b61040d60048036038101906104089190612ef3565b610dd8565b005b34801561041b57600080fd5b50610424610e85565b60405161043191906133c4565b60405180910390f35b610454600480360381019061044f9190612e05565b610eaf565b005b34801561046257600080fd5b5061046b610f08565b6040516104789190613530565b60405180910390f35b34801561048d57600080fd5b506104a860048036038101906104a39190612ec6565b610f96565b6040516104b59190613812565b60405180910390f35b3480156104ca57600080fd5b506104e560048036038101906104e09190612c57565b610fae565b005b61050160048036038101906104fc9190612f4f565b610fc4565b005b34801561050f57600080fd5b5061052a60048036038101906105259190612ec6565b611023565b6040516105379190613812565b60405180910390f35b34801561054c57600080fd5b50610555611040565b6040516105629190613515565b60405180910390f35b34801561057757600080fd5b50610580611064565b60405161058d9190613530565b60405180910390f35b3480156105a257600080fd5b506105bd60048036038101906105b89190612ab1565b6110f6565b6040516105ca91906134fa565b60405180910390f35b6105ed60048036038101906105e89190612af1565b61118a565b005b3480156105fb57600080fd5b5061061660048036038101906106119190612bc0565b61122b565b005b34801561062457600080fd5b5061063f600480360381019061063a9190612a84565b6112cc565b005b60006103e88260800151111561068c576040517f08c379a0000000000000000000000000000000000000000000000000000000008152600401610683906135b2565b60405180910390fd5b6000610696611350565b90506106a181611366565b6006548111156106e6576040517f08c379a00000000000000000000000000000000000000000000000000000000081526004016106dd90613772565b60405180910390fd5b826080015183606001516106fa9190613a2c565b34101561073c576040517f08c379a0000000000000000000000000000000000000000000000000000000008152600401610733906136f2565b60405180910390fd5b600a600084600001518152602001908152602001600020548360400151600b6000866000015181526020019081526020016000205461077b91906139d6565b116107bb576040517f08c379a00000000000000000000000000000000000000000000000000000000081526004016107b2906135f2565b60405180910390fd5b60008360800151146107eb576107ea8484600001518560400151604051806020016040528060008152506113ff565b5b826000015191505092915050565b60008073ffffffffffffffffffffffffffffffffffffffff168373ffffffffffffffffffffffffffffffffffffffff16141561086a576040517f08c379a000000000000000000000000000000000000000000000000000000000815260040161086190613652565b60405180910390fd5b60008083815260200190815260200160002060008473ffffffffffffffffffffffffffffffffffffffff1673ffffffffffffffffffffffffffffffffffffffff16815260200190815260200160002054905092915050565b60007fd9b67a26000000000000000000000000000000000000000000000000000000007bffffffffffffffffffffffffffffffffffffffffffffffffffffffff1916827bffffffffffffffffffffffffffffffffffffffffffffffffffffffff1916148061098d57507f0e89341c000000000000000000000000000000000000000000000000000000007bffffffffffffffffffffffffffffffffffffffffffffffffffffffff1916827bffffffffffffffffffffffffffffffffffffffffffffffffffffffff1916145b8061099d575061099c826115b0565b5b9050919050565b600780546109b190613b53565b80601f01602080910402602001604051908101604052809291908181526020018280546109dd90613b53565b8015610a2a5780601f106109ff57610100808354040283529160200191610a2a565b820191906000526020600020905b815481529060010190602001808311610a0d57829003601f168201915b505050505081565b6060610a3d8261161a565b610a7c576040517f08c379a0000000000000000000000000000000000000000000000000000000008152600401610a7390613752565b60405180910390fd5b6000600d60008481526020019081526020016000208054610a9c90613b53565b80601f0160208091040260200160405190810160405280929190818152602001828054610ac890613b53565b8015610b155780601f10610aea57610100808354040283529160200191610b15565b820191906000526020600020905b815481529060010190602001808311610af857829003601f168201915b5050505050905080915050919050565b610b2d611686565b73ffffffffffffffffffffffffffffffffffffffff168573ffffffffffffffffffffffffffffffffffffffff161480610b735750610b7285610b6d611686565b6110f6565b5b610bb2576040517f08c379a0000000000000000000000000000000000000000000000000000000008152600401610ba990613572565b60405180910390fd5b610bbf858585858561168e565b5050505050565b60096020528060005260406000206000915054906101000a900473ffffffffffffffffffffffffffffffffffffffff1681565b60608151835114610c3f576040517f08c379a0000000000000000000000000000000000000000000000000000000008152600401610c36906137b2565b60405180910390fd5b6000835167ffffffffffffffff811115610c5c57610c5b613c8c565b5b604051908082528060200260200182016040528015610c8a5781602001602082028036833780820191505090505b50905060005b8451811015610d0757610cd7858281518110610caf57610cae613c5d565b5b6020026020010151858381518110610cca57610cc9613c5d565b5b60200260200101516107f9565b828281518110610cea57610ce9613c5d565b5b60200260200101818152505080610d0090613bb6565b9050610c90565b508091505092915050565b600c6020528060005260406000206000915090505481565b600e60009054906101000a900460ff1615610d7a576040517f08c379a0000000000000000000000000000000000000000000000000000000008152600401610d71906136b2565b60405180910390fd5b8160079080519060200190610d909291906125e8565b508060089080519060200190610da79291906125e8565b505050565b610db46119b0565b610dbe6000611a2e565b565b600b6020528060005260406000206000915090505481565b610de18261161a565b610e20576040517f08c379a0000000000000000000000000000000000000000000000000000000008152600401610e1790613752565b60405180910390fd5b80600d60008481526020019081526020016000209080519060200190610e479291906125e8565b507f483621391b5e72d74eb03c7b5715531c486e326fb115ab3bcf34b133041854ce8282604051610e7992919061382d565b60405180910390a15050565b6000600360009054906101000a900473ffffffffffffffffffffffffffffffffffffffff16905090565b610eb76119b0565b8060059080519060200190610ecd9291906125e8565b507fd5ee5eaf65263bab5d569890714d123ad48a9e54409d35e71d374f3dd300bba081604051610efd9190613530565b60405180910390a150565b60088054610f1590613b53565b80601f0160208091040260200160405190810160405280929190818152602001828054610f4190613b53565b8015610f8e5780601f10610f6357610100808354040283529160200191610f8e565b820191906000526020600020905b815481529060010190602001808311610f7157829003601f168201915b505050505081565b600a6020528060005260406000206000915090505481565b610fc0610fb9611686565b8383611af4565b5050565b610fcc6119b0565b610fd58261161a565b611014576040517f08c379a000000000000000000000000000000000000000000000000000000000815260040161100b90613632565b60405180910390fd5b61101f338383611c61565b5050565b6000600a6000838152602001908152602001600020549050919050565b7f9f2df0fed2c77648de5860a4cc508cd0818c85b8b8a1ab4ceeef8d981c8956a681565b60606005805461107390613b53565b80601f016020809104026020016040519081016040528092919081815260200182805461109f90613b53565b80156110ec5780601f106110c1576101008083540402835291602001916110ec565b820191906000526020600020905b8154815290600101906020018083116110cf57829003601f168201915b5050505050905090565b6000600160008473ffffffffffffffffffffffffffffffffffffffff1673ffffffffffffffffffffffffffffffffffffffff16815260200190815260200160002060008373ffffffffffffffffffffffffffffffffffffffff1673ffffffffffffffffffffffffffffffffffffffff16815260200190815260200160002060009054906101000a900460ff16905092915050565b611192611686565b73ffffffffffffffffffffffffffffffffffffffff168573ffffffffffffffffffffffffffffffffffffffff1614806111d857506111d7856111d2611686565b6110f6565b5b611217576040517f08c379a000000000000000000000000000000000000000000000000000000000815260040161120e90613692565b60405180910390fd5b6112248585858585610b25565b5050505050565b611233611686565b73ffffffffffffffffffffffffffffffffffffffff168573ffffffffffffffffffffffffffffffffffffffff161480611279575061127885611273611686565b6110f6565b5b6112b8576040517f08c379a00000000000000000000000000000000000000000000000000000000081526004016112af90613572565b60405180910390fd5b6112c58585858585611ea8565b5050505050565b6112d46119b0565b600073ffffffffffffffffffffffffffffffffffffffff168173ffffffffffffffffffffffffffffffffffffffff161415611344576040517f08c379a000000000000000000000000000000000000000000000000000000000815260040161133b906135d2565b60405180910390fd5b61134d81611a2e565b50565b6000600160045461136191906139d6565b905090565b6113fc8160405160240161137a9190613812565b6040516020818303038152906040527ff5b1bba9000000000000000000000000000000000000000000000000000000007bffffffffffffffffffffffffffffffffffffffffffffffffffffffff19166020820180517bffffffffffffffffffffffffffffffffffffffffffffffffffffffff8381831617835250505050612144565b50565b600073ffffffffffffffffffffffffffffffffffffffff168473ffffffffffffffffffffffffffffffffffffffff16141561146f576040517f08c379a0000000000000000000000000000000000000000000000000000000008152600401611466906137f2565b60405180910390fd5b6000611479611686565b905060006114868561216d565b905060006114938561216d565b90506114a4836000898585896121e7565b8460008088815260200190815260200160002060008973ffffffffffffffffffffffffffffffffffffffff1673ffffffffffffffffffffffffffffffffffffffff168152602001908152602001600020600082825461150391906139d6565b925050819055508673ffffffffffffffffffffffffffffffffffffffff16600073ffffffffffffffffffffffffffffffffffffffff168473ffffffffffffffffffffffffffffffffffffffff167fc3d58168c5ae7397731d063d5bbf3d657854427343f4c083240f7aacaa2d0f62898960405161158192919061385d565b60405180910390a4611598836000898585896121ef565b6115a7836000898989896121f7565b50505050505050565b60007f01ffc9a7000000000000000000000000000000000000000000000000000000007bffffffffffffffffffffffffffffffffffffffffffffffffffffffff1916827bffffffffffffffffffffffffffffffffffffffffffffffffffffffff1916149050919050565b60008073ffffffffffffffffffffffffffffffffffffffff166009600084815260200190815260200160002060009054906101000a900473ffffffffffffffffffffffffffffffffffffffff1673ffffffffffffffffffffffffffffffffffffffff1614159050919050565b600033905090565b81518351146116d2576040517f08c379a00000000000000000000000000000000000000000000000000000000081526004016116c9906137d2565b60405180910390fd5b600073ffffffffffffffffffffffffffffffffffffffff168473ffffffffffffffffffffffffffffffffffffffff161415611742576040517f08c379a000000000000000000000000000000000000000000000000000000000815260040161173990613672565b60405180910390fd5b600061174c611686565b905061175c8187878787876121e7565b60005b845181101561190d57600085828151811061177d5761177c613c5d565b5b60200260200101519050600085838151811061179c5761179b613c5d565b5b60200260200101519050600080600084815260200190815260200160002060008b73ffffffffffffffffffffffffffffffffffffffff1673ffffffffffffffffffffffffffffffffffffffff1681526020019081526020016000205490508181101561183d576040517f08c379a000000000000000000000000000000000000000000000000000000000815260040161183490613712565b60405180910390fd5b81810360008085815260200190815260200160002060008c73ffffffffffffffffffffffffffffffffffffffff1673ffffffffffffffffffffffffffffffffffffffff168152602001908152602001600020819055508160008085815260200190815260200160002060008b73ffffffffffffffffffffffffffffffffffffffff1673ffffffffffffffffffffffffffffffffffffffff16815260200190815260200160002060008282546118f291906139d6565b925050819055505050508061190690613bb6565b905061175f565b508473ffffffffffffffffffffffffffffffffffffffff168673ffffffffffffffffffffffffffffffffffffffff168273ffffffffffffffffffffffffffffffffffffffff167f4a39dc06d4c0dbc64b70af90fd698a233a518aa5d07e595d983b8c0526c8f7fb87876040516119849291906134c3565b60405180910390a461199a8187878787876121ef565b6119a88187878787876123de565b505050505050565b6119b8611686565b73ffffffffffffffffffffffffffffffffffffffff166119d6610e85565b73ffffffffffffffffffffffffffffffffffffffff1614611a2c576040517f08c379a0000000000000000000000000000000000000000000000000000000008152600401611a2390613732565b60405180910390fd5b565b6000600360009054906101000a900473ffffffffffffffffffffffffffffffffffffffff16905081600360006101000a81548173ffffffffffffffffffffffffffffffffffffffff021916908373ffffffffffffffffffffffffffffffffffffffff1602179055508173ffffffffffffffffffffffffffffffffffffffff168173ffffffffffffffffffffffffffffffffffffffff167f8be0079c531659141344cd1fd0a4f28419497f9722a3daafe3b4186f6b6457e060405160405180910390a35050565b8173ffffffffffffffffffffffffffffffffffffffff168373ffffffffffffffffffffffffffffffffffffffff161415611b63576040517f08c379a0000000000000000000000000000000000000000000000000000000008152600401611b5a90613792565b60405180910390fd5b80600160008573ffffffffffffffffffffffffffffffffffffffff1673ffffffffffffffffffffffffffffffffffffffff16815260200190815260200160002060008473ffffffffffffffffffffffffffffffffffffffff1673ffffffffffffffffffffffffffffffffffffffff16815260200190815260200160002060006101000a81548160ff0219169083151502179055508173ffffffffffffffffffffffffffffffffffffffff168373ffffffffffffffffffffffffffffffffffffffff167f17307eab39ab6107e8899845ad3d59bd9653f200f220920489ca2b5937696c3183604051611c5491906134fa565b60405180910390a3505050565b600073ffffffffffffffffffffffffffffffffffffffff168373ffffffffffffffffffffffffffffffffffffffff161415611cd1576040517f08c379a0000000000000000000000000000000000000000000000000000000008152600401611cc8906136d2565b60405180910390fd5b6000611cdb611686565b90506000611ce88461216d565b90506000611cf58461216d565b9050611d15838760008585604051806020016040528060008152506121e7565b600080600087815260200190815260200160002060008873ffffffffffffffffffffffffffffffffffffffff1673ffffffffffffffffffffffffffffffffffffffff16815260200190815260200160002054905084811015611dac576040517f08c379a0000000000000000000000000000000000000000000000000000000008152600401611da390613612565b60405180910390fd5b84810360008088815260200190815260200160002060008973ffffffffffffffffffffffffffffffffffffffff1673ffffffffffffffffffffffffffffffffffffffff16815260200190815260200160002081905550600073ffffffffffffffffffffffffffffffffffffffff168773ffffffffffffffffffffffffffffffffffffffff168573ffffffffffffffffffffffffffffffffffffffff167fc3d58168c5ae7397731d063d5bbf3d657854427343f4c083240f7aacaa2d0f628989604051611e7992919061385d565b60405180910390a4611e9f848860008686604051806020016040528060008152506121ef565b50505050505050565b600073ffffffffffffffffffffffffffffffffffffffff168473ffffffffffffffffffffffffffffffffffffffff161415611f18576040517f08c379a0000000000000000000000000000000000000000000000000000000008152600401611f0f90613672565b60405180910390fd5b6000611f22611686565b90506000611f2f8561216d565b90506000611f3c8561216d565b9050611f4c8389898585896121e7565b600080600088815260200190815260200160002060008a73ffffffffffffffffffffffffffffffffffffffff1673ffffffffffffffffffffffffffffffffffffffff16815260200190815260200160002054905085811015611fe3576040517f08c379a0000000000000000000000000000000000000000000000000000000008152600401611fda90613712565b60405180910390fd5b85810360008089815260200190815260200160002060008b73ffffffffffffffffffffffffffffffffffffffff1673ffffffffffffffffffffffffffffffffffffffff168152602001908152602001600020819055508560008089815260200190815260200160002060008a73ffffffffffffffffffffffffffffffffffffffff1673ffffffffffffffffffffffffffffffffffffffff168152602001908152602001600020600082825461209891906139d6565b925050819055508773ffffffffffffffffffffffffffffffffffffffff168973ffffffffffffffffffffffffffffffffffffffff168573ffffffffffffffffffffffffffffffffffffffff167fc3d58168c5ae7397731d063d5bbf3d657854427343f4c083240f7aacaa2d0f628a8a60405161211592919061385d565b60405180910390a461212b848a8a86868a6121ef565b612139848a8a8a8a8a6121f7565b505050505050505050565b60008151905060006a636f6e736f6c652e6c6f679050602083016000808483855afa5050505050565b60606000600167ffffffffffffffff81111561218c5761218b613c8c565b5b6040519080825280602002602001820160405280156121ba5781602001602082028036833780820191505090505b50905082816000815181106121d2576121d1613c5d565b5b60200260200101818152505080915050919050565b505050505050565b505050505050565b6122168473ffffffffffffffffffffffffffffffffffffffff166125c5565b156123d6578373ffffffffffffffffffffffffffffffffffffffff1663f23a6e6187878686866040518663ffffffff1660e01b815260040161225c959493929190613447565b602060405180830381600087803b15801561227657600080fd5b505af19250505080156122a757506040513d601f19601f820116820180604052508101906122a49190612dd8565b60015b61234d576122b3613cbb565b806308c379a0141561231057506122c8614304565b806122d35750612312565b806040517f08c379a00000000000000000000000000000000000000000000000000000000081526004016123079190613530565b60405180910390fd5b505b6040517f08c379a000000000000000000000000000000000000000000000000000000000815260040161234490613552565b60405180910390fd5b63f23a6e6160e01b7bffffffffffffffffffffffffffffffffffffffffffffffffffffffff1916817bffffffffffffffffffffffffffffffffffffffffffffffffffffffff1916146123d4576040517f08c379a00000000000000000000000000000000000000000000000000000000081526004016123cb90613592565b60405180910390fd5b505b505050505050565b6123fd8473ffffffffffffffffffffffffffffffffffffffff166125c5565b156125bd578373ffffffffffffffffffffffffffffffffffffffff1663bc197c8187878686866040518663ffffffff1660e01b81526004016124439594939291906133df565b602060405180830381600087803b15801561245d57600080fd5b505af192505050801561248e57506040513d601f19601f8201168201806040525081019061248b9190612dd8565b60015b6125345761249a613cbb565b806308c379a014156124f757506124af614304565b806124ba57506124f9565b806040517f08c379a00000000000000000000000000000000000000000000000000000000081526004016124ee9190613530565b60405180910390fd5b505b6040517f08c379a000000000000000000000000000000000000000000000000000000000815260040161252b90613552565b60405180910390fd5b63bc197c8160e01b7bffffffffffffffffffffffffffffffffffffffffffffffffffffffff1916817bffffffffffffffffffffffffffffffffffffffffffffffffffffffff1916146125bb576040517f08c379a00000000000000000000000000000000000000000000000000000000081526004016125b290613592565b60405180910390fd5b505b505050505050565b6000808273ffffffffffffffffffffffffffffffffffffffff163b119050919050565b8280546125f490613b53565b90600052602060002090601f016020900481019282612616576000855561265d565b82601f1061262f57805160ff191683800117855561265d565b8280016001018555821561265d579182015b8281111561265c578251825591602001919060010190612641565b5b50905061266a919061266e565b5090565b5b8082111561268757600081600090555060010161266f565b5090565b600061269e612699846138ab565b613886565b905080838252602082019050828560208602820111156126c1576126c0613cec565b5b60005b858110156126f157816126d788826127ef565b8452602084019350602083019250506001810190506126c4565b5050509392505050565b600061270e612709846138d7565b613886565b9050808382526020820190508285602086028201111561273157612730613cec565b5b60005b8581101561276157816127478882612a5a565b845260208401935060208301925050600181019050612734565b5050509392505050565b600061277e61277984613903565b613886565b90508281526020810184848401111561279a57612799613cf1565b5b6127a5848285613b11565b509392505050565b60006127c06127bb84613934565b613886565b9050828152602081018484840111156127dc576127db613cf1565b5b6127e7848285613b11565b509392505050565b6000813590506127fe8161439a565b92915050565b600082601f83011261281957612818613cdd565b5b813561282984826020860161268b565b91505092915050565b600082601f83011261284757612846613cdd565b5b81356128578482602086016126fb565b91505092915050565b60008135905061286f816143b1565b92915050565b600081359050612884816143c8565b92915050565b600081359050612899816143df565b92915050565b6000815190506128ae816143df565b92915050565b600082601f8301126128c9576128c8613cdd565b5b81356128d984826020860161276b565b91505092915050565b600082601f8301126128f7576128f6613cdd565b5b81356129078482602086016127ad565b91505092915050565b6000610140828403121561292757612926613ce2565b5b612932610100613886565b9050600061294284828501612a5a565b600083015250602082013567ffffffffffffffff81111561296657612965613ce7565b5b612972848285016128e2565b602083015250604061298684828501612a5a565b604083015250606061299a84828501612a5a565b60608301525060806129ae84828501612a5a565b60808301525060a06129c284828501612a5a565b60a08301525060c06129d6848285016127ef565b60c08301525060e06129ea848285016129f6565b60e08301525092915050565b600060608284031215612a0c57612a0b613ce2565b5b612a166060613886565b90506000612a2684828501612875565b6000830152506020612a3a84828501612875565b6020830152506040612a4e84828501612a6f565b60408301525092915050565b600081359050612a69816143f6565b92915050565b600081359050612a7e8161440d565b92915050565b600060208284031215612a9a57612a99613cfb565b5b6000612aa8848285016127ef565b91505092915050565b60008060408385031215612ac857612ac7613cfb565b5b6000612ad6858286016127ef565b9250506020612ae7858286016127ef565b9150509250929050565b600080600080600060a08688031215612b0d57612b0c613cfb565b5b6000612b1b888289016127ef565b9550506020612b2c888289016127ef565b945050604086013567ffffffffffffffff811115612b4d57612b4c613cf6565b5b612b5988828901612832565b935050606086013567ffffffffffffffff811115612b7a57612b79613cf6565b5b612b8688828901612832565b925050608086013567ffffffffffffffff811115612ba757612ba6613cf6565b5b612bb3888289016128b4565b9150509295509295909350565b600080600080600060a08688031215612bdc57612bdb613cfb565b5b6000612bea888289016127ef565b9550506020612bfb888289016127ef565b9450506040612c0c88828901612a5a565b9350506060612c1d88828901612a5a565b925050608086013567ffffffffffffffff811115612c3e57612c3d613cf6565b5b612c4a888289016128b4565b9150509295509295909350565b60008060408385031215612c6e57612c6d613cfb565b5b6000612c7c858286016127ef565b9250506020612c8d85828601612860565b9150509250929050565b60008060408385031215612cae57612cad613cfb565b5b6000612cbc858286016127ef565b925050602083013567ffffffffffffffff811115612cdd57612cdc613cf6565b5b612ce985828601612910565b9150509250929050565b60008060408385031215612d0a57612d09613cfb565b5b6000612d18858286016127ef565b9250506020612d2985828601612a5a565b9150509250929050565b60008060408385031215612d4a57612d49613cfb565b5b600083013567ffffffffffffffff811115612d6857612d67613cf6565b5b612d7485828601612804565b925050602083013567ffffffffffffffff811115612d9557612d94613cf6565b5b612da185828601612832565b9150509250929050565b600060208284031215612dc157612dc0613cfb565b5b6000612dcf8482850161288a565b91505092915050565b600060208284031215612dee57612ded613cfb565b5b6000612dfc8482850161289f565b91505092915050565b600060208284031215612e1b57612e1a613cfb565b5b600082013567ffffffffffffffff811115612e3957612e38613cf6565b5b612e45848285016128e2565b91505092915050565b60008060408385031215612e6557612e64613cfb565b5b600083013567ffffffffffffffff811115612e8357612e82613cf6565b5b612e8f858286016128e2565b925050602083013567ffffffffffffffff811115612eb057612eaf613cf6565b5b612ebc858286016128e2565b9150509250929050565b600060208284031215612edc57612edb613cfb565b5b6000612eea84828501612a5a565b91505092915050565b60008060408385031215612f0a57612f09613cfb565b5b6000612f1885828601612a5a565b925050602083013567ffffffffffffffff811115612f3957612f38613cf6565b5b612f45858286016128e2565b9150509250929050565b60008060408385031215612f6657612f65613cfb565b5b6000612f7485828601612a5a565b9250506020612f8585828601612a5a565b9150509250929050565b6000612f9b83836133a6565b60208301905092915050565b612fb081613a86565b82525050565b6000612fc182613975565b612fcb81856139a3565b9350612fd683613965565b8060005b83811015613007578151612fee8882612f8f565b9750612ff983613996565b925050600181019050612fda565b5085935050505092915050565b61301d81613a98565b82525050565b61302c81613aa4565b82525050565b600061303d82613980565b61304781856139b4565b9350613057818560208601613b20565b61306081613d00565b840191505092915050565b60006130768261398b565b61308081856139c5565b9350613090818560208601613b20565b61309981613d00565b840191505092915050565b60006130b16034836139c5565b91506130bc82613d1e565b604082019050919050565b60006130d4602f836139c5565b91506130df82613d6d565b604082019050919050565b60006130f76028836139c5565b915061310282613dbc565b604082019050919050565b600061311a6027836139c5565b915061312582613e0b565b604082019050919050565b600061313d6026836139c5565b915061314882613e5a565b604082019050919050565b6000613160600b836139c5565b915061316b82613ea9565b602082019050919050565b60006131836024836139c5565b915061318e82613ed2565b604082019050919050565b60006131a66020836139c5565b91506131b182613f21565b602082019050919050565b60006131c9602a836139c5565b91506131d482613f4a565b604082019050919050565b60006131ec6025836139c5565b91506131f782613f99565b604082019050919050565b600061320f6032836139c5565b915061321a82613fe8565b604082019050919050565b6000613232602c836139c5565b915061323d82614037565b604082019050919050565b60006132556023836139c5565b915061326082614086565b604082019050919050565b6000613278601c836139c5565b9150613283826140d5565b602082019050919050565b600061329b602a836139c5565b91506132a6826140fe565b604082019050919050565b60006132be6020836139c5565b91506132c98261414d565b602082019050919050565b60006132e1601e836139c5565b91506132ec82614176565b602082019050919050565b60006133046017836139c5565b915061330f8261419f565b602082019050919050565b60006133276029836139c5565b9150613332826141c8565b604082019050919050565b600061334a6029836139c5565b915061335582614217565b604082019050919050565b600061336d6028836139c5565b915061337882614266565b604082019050919050565b60006133906021836139c5565b915061339b826142b5565b604082019050919050565b6133af81613afa565b82525050565b6133be81613afa565b82525050565b60006020820190506133d96000830184612fa7565b92915050565b600060a0820190506133f46000830188612fa7565b6134016020830187612fa7565b81810360408301526134138186612fb6565b905081810360608301526134278185612fb6565b9050818103608083015261343b8184613032565b90509695505050505050565b600060a08201905061345c6000830188612fa7565b6134696020830187612fa7565b61347660408301866133b5565b61348360608301856133b5565b81810360808301526134958184613032565b90509695505050505050565b600060208201905081810360008301526134bb8184612fb6565b905092915050565b600060408201905081810360008301526134dd8185612fb6565b905081810360208301526134f18184612fb6565b90509392505050565b600060208201905061350f6000830184613014565b92915050565b600060208201905061352a6000830184613023565b92915050565b6000602082019050818103600083015261354a818461306b565b905092915050565b6000602082019050818103600083015261356b816130a4565b9050919050565b6000602082019050818103600083015261358b816130c7565b9050919050565b600060208201905081810360008301526135ab816130ea565b9050919050565b600060208201905081810360008301526135cb8161310d565b9050919050565b600060208201905081810360008301526135eb81613130565b9050919050565b6000602082019050818103600083015261360b81613153565b9050919050565b6000602082019050818103600083015261362b81613176565b9050919050565b6000602082019050818103600083015261364b81613199565b9050919050565b6000602082019050818103600083015261366b816131bc565b9050919050565b6000602082019050818103600083015261368b816131df565b9050919050565b600060208201905081810360008301526136ab81613202565b9050919050565b600060208201905081810360008301526136cb81613225565b9050919050565b600060208201905081810360008301526136eb81613248565b9050919050565b6000602082019050818103600083015261370b8161326b565b9050919050565b6000602082019050818103600083015261372b8161328e565b9050919050565b6000602082019050818103600083015261374b816132b1565b9050919050565b6000602082019050818103600083015261376b816132d4565b9050919050565b6000602082019050818103600083015261378b816132f7565b9050919050565b600060208201905081810360008301526137ab8161331a565b9050919050565b600060208201905081810360008301526137cb8161333d565b9050919050565b600060208201905081810360008301526137eb81613360565b9050919050565b6000602082019050818103600083015261380b81613383565b9050919050565b600060208201905061382760008301846133b5565b92915050565b600060408201905061384260008301856133b5565b8181036020830152613854818461306b565b90509392505050565b600060408201905061387260008301856133b5565b61387f60208301846133b5565b9392505050565b60006138906138a1565b905061389c8282613b85565b919050565b6000604051905090565b600067ffffffffffffffff8211156138c6576138c5613c8c565b5b602082029050602081019050919050565b600067ffffffffffffffff8211156138f2576138f1613c8c565b5b602082029050602081019050919050565b600067ffffffffffffffff82111561391e5761391d613c8c565b5b61392782613d00565b9050602081019050919050565b600067ffffffffffffffff82111561394f5761394e613c8c565b5b61395882613d00565b9050602081019050919050565b6000819050602082019050919050565b600081519050919050565b600081519050919050565b600081519050919050565b6000602082019050919050565b600082825260208201905092915050565b600082825260208201905092915050565b600082825260208201905092915050565b60006139e182613afa565b91506139ec83613afa565b9250827fffffffffffffffffffffffffffffffffffffffffffffffffffffffffffffffff03821115613a2157613a20613bff565b5b828201905092915050565b6000613a3782613afa565b9150613a4283613afa565b9250817fffffffffffffffffffffffffffffffffffffffffffffffffffffffffffffffff0483118215151615613a7b57613a7a613bff565b5b828202905092915050565b6000613a9182613ada565b9050919050565b60008115159050919050565b6000819050919050565b60007fffffffff0000000000000000000000000000000000000000000000000000000082169050919050565b600073ffffffffffffffffffffffffffffffffffffffff82169050919050565b6000819050919050565b600060ff82169050919050565b82818337600083830152505050565b60005b83811015613b3e578082015181840152602081019050613b23565b83811115613b4d576000848401525b50505050565b60006002820490506001821680613b6b57607f821691505b60208210811415613b7f57613b7e613c2e565b5b50919050565b613b8e82613d00565b810181811067ffffffffffffffff82111715613bad57613bac613c8c565b5b80604052505050565b6000613bc182613afa565b91507fffffffffffffffffffffffffffffffffffffffffffffffffffffffffffffffff821415613bf457613bf3613bff565b5b600182019050919050565b7f4e487b7100000000000000000000000000000000000000000000000000000000600052601160045260246000fd5b7f4e487b7100000000000000000000000000000000000000000000000000000000600052602260045260246000fd5b7f4e487b7100000000000000000000000000000000000000000000000000000000600052603260045260246000fd5b7f4e487b7100000000000000000000000000000000000000000000000000000000600052604160045260246000fd5b600060033d1115613cda5760046000803e613cd7600051613d11565b90505b90565b600080fd5b600080fd5b600080fd5b600080fd5b600080fd5b600080fd5b600080fd5b6000601f19601f8301169050919050565b60008160e01c9050919050565b7f455243313135353a207472616e7366657220746f206e6f6e204552433131353560008201527f526563656976657220696d706c656d656e746572000000000000000000000000602082015250565b7f455243313135353a2063616c6c6572206973206e6f7420746f6b656e206f776e60008201527f6572206e6f7220617070726f7665640000000000000000000000000000000000602082015250565b7f455243313135353a204552433131353552656365697665722072656a6563746560008201527f6420746f6b656e73000000000000000000000000000000000000000000000000602082015250565b7f496e697469616c20737570706c792063616e6e6f74206265206d6f726520746860008201527f616e203130303000000000000000000000000000000000000000000000000000602082015250565b7f4f776e61626c653a206e6577206f776e657220697320746865207a65726f206160008201527f6464726573730000000000000000000000000000000000000000000000000000602082015250565b7f416c6c206d696e74656421000000000000000000000000000000000000000000600082015250565b7f455243313135353a206275726e20616d6f756e7420657863656564732062616c60008201527f616e636500000000000000000000000000000000000000000000000000000000602082015250565b7f4552433131353520236275726e3a204e4f4e4558495354454e545f544f4b454e600082015250565b7f455243313135353a2061646472657373207a65726f206973206e6f742061207660008201527f616c6964206f776e657200000000000000000000000000000000000000000000602082015250565b7f455243313135353a207472616e7366657220746f20746865207a65726f20616460008201527f6472657373000000000000000000000000000000000000000000000000000000602082015250565b7f455243313135353a207472616e736665722063616c6c6572206973206e6f742060008201527f6f776e6572206e6f7220617070726f7665640000000000000000000000000000602082015250565b7f45524331353520547261646561626c65206d757374206e6f7420626520636f6e60008201527f7374727563746564207965740000000000000000000000000000000000000000602082015250565b7f455243313135353a206275726e2066726f6d20746865207a65726f206164647260008201527f6573730000000000000000000000000000000000000000000000000000000000602082015250565b7f496e73756666696369656e742066756e647320746f2072656465656d00000000600082015250565b7f455243313135353a20696e73756666696369656e742062616c616e636520666f60008201527f72207472616e7366657200000000000000000000000000000000000000000000602082015250565b7f4f776e61626c653a2063616c6c6572206973206e6f7420746865206f776e6572600082015250565b7f45524331313535237572693a204e4f4e4558495354454e545f544f4b454e0000600082015250565b7f466c7573686564206e667420746f74616c206c696d6974000000000000000000600082015250565b7f455243313135353a2073657474696e6720617070726f76616c2073746174757360008201527f20666f722073656c660000000000000000000000000000000000000000000000602082015250565b7f455243313135353a206163636f756e747320616e6420696473206c656e67746860008201527f206d69736d617463680000000000000000000000000000000000000000000000602082015250565b7f455243313135353a2069647320616e6420616d6f756e7473206c656e6774682060008201527f6d69736d61746368000000000000000000000000000000000000000000000000602082015250565b7f455243313135353a206d696e7420746f20746865207a65726f2061646472657360008201527f7300000000000000000000000000000000000000000000000000000000000000602082015250565b600060443d101561431457614397565b61431c6138a1565b60043d036004823e80513d602482011167ffffffffffffffff82111715614344575050614397565b808201805167ffffffffffffffff8111156143625750505050614397565b80602083010160043d03850181111561437f575050505050614397565b61438e82602001850186613b85565b82955050505050505b90565b6143a381613a86565b81146143ae57600080fd5b50565b6143ba81613a98565b81146143c557600080fd5b50565b6143d181613aa4565b81146143dc57600080fd5b50565b6143e881613aae565b81146143f357600080fd5b50565b6143ff81613afa565b811461440a57600080fd5b50565b61441681613b04565b811461442157600080fd5b5056fea2646970667358221220d285d50b373ee082bc42767d6ab781d5d88dffd4f6cdcb699bcf273147d0e88464736f6c63430008050033",
  "linkReferences": {},
  "deployedLinkReferences": {}
}