{
  "_format": "hh-sol-artifact-1",
  "contractName": "Crea2orsNFT",
  "sourceName": "contracts/Crea2orsNFT_v2.0.sol",
  "abi": [
    {
      "inputs": [
        {
          "internalType": "string",
          "name": "name_",
          "type": "string"
        },
        {
          "internalType": "string",
          "name": "symbol_",
          "type": "string"
        },
        {
          "internalType": "string",
          "name": "contractURI_",
          "type": "string"
        },
        {
          "internalType": "uint256",
          "name": "totalLimit_",
          "type": "uint256"
        }
      ],
      "stateMutability": "nonpayable",
      "type": "constructor"
    },
    {
      "anonymous": false,
      "inputs": [
        {
          "indexed": true,
          "internalType": "address",
          "name": "account",
          "type": "address"
        },
        {
          "indexed": true,
          "internalType": "address",
          "name": "operator",
          "type": "address"
        },
        {
          "indexed": false,
          "internalType": "bool",
          "name": "approved",
          "type": "bool"
        }
      ],
      "name": "ApprovalForAll",
      "type": "event"
    },
    {
      "anonymous": false,
      "inputs": [
        {
          "indexed": false,
          "internalType": "address",
          "name": "",
          "type": "address"
        },
        {
          "indexed": false,
          "internalType": "string",
          "name": "",
          "type": "string"
        }
      ],
      "name": "ContractDeployed",
      "type": "event"
    },
    {
      "anonymous": false,
      "inputs": [
        {
          "indexed": false,
          "internalType": "string",
          "name": "",
          "type": "string"
        }
      ],
      "name": "ContractURIChanged",
      "type": "event"
    },
    {
      "anonymous": false,
      "inputs": [
        {
          "indexed": true,
          "internalType": "address",
          "name": "previousOwner",
          "type": "address"
        },
        {
          "indexed": true,
          "internalType": "address",
          "name": "newOwner",
          "type": "address"
        }
      ],
      "name": "OwnershipTransferred",
      "type": "event"
    },
    {
      "anonymous": false,
      "inputs": [
        {
          "indexed": false,
          "internalType": "uint256",
          "name": "",
          "type": "uint256"
        },
        {
          "indexed": false,
          "internalType": "string",
          "name": "",
          "type": "string"
        }
      ],
      "name": "TokenURIChanged",
      "type": "event"
    },
    {
      "anonymous": false,
      "inputs": [
        {
          "indexed": true,
          "internalType": "address",
          "name": "operator",
          "type": "address"
        },
        {
          "indexed": true,
          "internalType": "address",
          "name": "from",
          "type": "address"
        },
        {
          "indexed": true,
          "internalType": "address",
          "name": "to",
          "type": "address"
        },
        {
          "indexed": false,
          "internalType": "uint256[]",
          "name": "ids",
          "type": "uint256[]"
        },
        {
          "indexed": false,
          "internalType": "uint256[]",
          "name": "values",
          "type": "uint256[]"
        }
      ],
      "name": "TransferBatch",
      "type": "event"
    },
    {
      "anonymous": false,
      "inputs": [
        {
          "indexed": true,
          "internalType": "address",
          "name": "operator",
          "type": "address"
        },
        {
          "indexed": true,
          "internalType": "address",
          "name": "from",
          "type": "address"
        },
        {
          "indexed": true,
          "internalType": "address",
          "name": "to",
          "type": "address"
        },
        {
          "indexed": false,
          "internalType": "uint256",
          "name": "id",
          "type": "uint256"
        },
        {
          "indexed": false,
          "internalType": "uint256",
          "name": "value",
          "type": "uint256"
        }
      ],
      "name": "TransferSingle",
      "type": "event"
    },
    {
      "anonymous": false,
      "inputs": [
        {
          "indexed": false,
          "internalType": "string",
          "name": "value",
          "type": "string"
        },
        {
          "indexed": true,
          "internalType": "uint256",
          "name": "id",
          "type": "uint256"
        }
      ],
      "name": "URI",
      "type": "event"
    },
    {
      "inputs": [],
      "name": "MINTER_ROLE",
      "outputs": [
        {
          "internalType": "bytes32",
          "name": "",
          "type": "bytes32"
        }
      ],
      "stateMutability": "view",
      "type": "function"
    },
    {
      "inputs": [],
      "name": "_currentTokenID",
      "outputs": [
        {
          "internalType": "uint256",
          "name": "",
          "type": "uint256"
        }
      ],
      "stateMutability": "view",
      "type": "function"
    },
    {
      "inputs": [
        {
          "internalType": "address",
          "name": "account",
          "type": "address"
        },
        {
          "internalType": "uint256",
          "name": "id",
          "type": "uint256"
        }
      ],
      "name": "balanceOf",
      "outputs": [
        {
          "internalType": "uint256",
          "name": "",
          "type": "uint256"
        }
      ],
      "stateMutability": "view",
      "type": "function"
    },
    {
      "inputs": [
        {
          "internalType": "address[]",
          "name": "accounts",
          "type": "address[]"
        },
        {
          "internalType": "uint256[]",
          "name": "ids",
          "type": "uint256[]"
        }
      ],
      "name": "balanceOfBatch",
      "outputs": [
        {
          "internalType": "uint256[]",
          "name": "",
          "type": "uint256[]"
        }
      ],
      "stateMutability": "view",
      "type": "function"
    },
    {
      "inputs": [
        {
          "internalType": "address",
          "name": "from",
          "type": "address"
        },
        {
          "internalType": "address",
          "name": "to",
          "type": "address"
        },
        {
          "internalType": "uint256[]",
          "name": "ids",
          "type": "uint256[]"
        },
        {
          "internalType": "uint256[]",
          "name": "amounts",
          "type": "uint256[]"
        },
        {
          "internalType": "bytes",
          "name": "data",
          "type": "bytes"
        }
      ],
      "name": "batchTransferFrom",
      "outputs": [],
      "stateMutability": "payable",
      "type": "function"
    },
    {
      "inputs": [
        {
          "internalType": "uint256",
          "name": "_id",
          "type": "uint256"
        },
        {
          "internalType": "uint256",
          "name": "_amount",
          "type": "uint256"
        }
      ],
      "name": "burn",
      "outputs": [],
      "stateMutability": "payable",
      "type": "function"
    },
    {
      "inputs": [],
      "name": "contractURI",
      "outputs": [
        {
          "internalType": "string",
          "name": "",
          "type": "string"
        }
      ],
      "stateMutability": "view",
      "type": "function"
    },
    {
      "inputs": [
        {
          "internalType": "uint256",
          "name": "",
          "type": "uint256"
        }
      ],
      "name": "curMintedSupplies",
      "outputs": [
        {
          "internalType": "uint256",
          "name": "",
          "type": "uint256"
        }
      ],
      "stateMutability": "view",
      "type": "function"
    },
    {
      "inputs": [
        {
          "internalType": "uint256",
          "name": "tokenID",
          "type": "uint256"
        }
      ],
      "name": "getCurMintedSupply",
      "outputs": [
        {
          "internalType": "uint256",
          "name": "",
          "type": "uint256"
        }
      ],
      "stateMutability": "view",
      "type": "function"
    },
    {
      "inputs": [
        {
          "internalType": "string",
          "name": "_name",
          "type": "string"
        },
        {
          "internalType": "string",
          "name": "_symbol",
          "type": "string"
        }
      ],
      "name": "init",
      "outputs": [],
      "stateMutability": "nonpayable",
      "type": "function"
    },
    {
      "inputs": [
        {
          "internalType": "uint256",
          "name": "",
          "type": "uint256"
        }
      ],
      "name": "initialSupplies",
      "outputs": [
        {
          "internalType": "uint256",
          "name": "",
          "type": "uint256"
        }
      ],
      "stateMutability": "view",
      "type": "function"
    },
    {
      "inputs": [
        {
          "internalType": "address",
          "name": "account",
          "type": "address"
        },
        {
          "internalType": "address",
          "name": "operator",
          "type": "address"
        }
      ],
      "name": "isApprovedForAll",
      "outputs": [
        {
          "internalType": "bool",
          "name": "",
          "type": "bool"
        }
      ],
      "stateMutability": "view",
      "type": "function"
    },
    {
      "inputs": [],
      "name": "name",
      "outputs": [
        {
          "internalType": "string",
          "name": "",
          "type": "string"
        }
      ],
      "stateMutability": "view",
      "type": "function"
    },
    {
      "inputs": [],
      "name": "owner",
      "outputs": [
        {
          "internalType": "address",
          "name": "",
          "type": "address"
        }
      ],
      "stateMutability": "view",
      "type": "function"
    },
    {
      "inputs": [
        {
          "internalType": "address",
          "name": "redeemer",
          "type": "address"
        },
        {
          "components": [
            {
              "internalType": "uint256",
              "name": "tokenId",
              "type": "uint256"
            },
            {
              "internalType": "string",
              "name": "metaUri",
              "type": "string"
            },
            {
              "internalType": "uint256",
              "name": "mintCount",
              "type": "uint256"
            },
            {
              "internalType": "uint256",
              "name": "minPrice",
              "type": "uint256"
            },
            {
              "internalType": "uint256",
              "name": "initialSupply",
              "type": "uint256"
            },
            {
              "internalType": "uint256",
              "name": "royaltyFee",
              "type": "uint256"
            },
            {
              "internalType": "address",
              "name": "royaltyAddress",
              "type": "address"
            },
            {
              "components": [
                {
                  "internalType": "bytes32",
                  "name": "r",
                  "type": "bytes32"
                },
                {
                  "internalType": "bytes32",
                  "name": "s",
                  "type": "bytes32"
                },
                {
                  "internalType": "uint8",
                  "name": "v",
                  "type": "uint8"
                }
              ],
              "internalType": "struct Crea2orsNFT.Sig",
              "name": "signature",
              "type": "tuple"
            }
          ],
          "internalType": "struct Crea2orsNFT.NFTVoucher",
          "name": "voucher",
          "type": "tuple"
        }
      ],
      "name": "redeem",
      "outputs": [
        {
          "internalType": "uint256",
          "name": "",
          "type": "uint256"
        }
      ],
      "stateMutability": "payable",
      "type": "function"
    },
    {
      "inputs": [],
      "name": "renounceOwnership",
      "outputs": [],
      "stateMutability": "nonpayable",
      "type": "function"
    },
    {
      "inputs": [
        {
          "internalType": "uint256",
          "name": "",
          "type": "uint256"
        }
      ],
      "name": "royaltyAddresses",
      "outputs": [
        {
          "internalType": "address",
          "name": "",
          "type": "address"
        }
      ],
      "stateMutability": "view",
      "type": "function"
    },
    {
      "inputs": [
        {
          "internalType": "uint256",
          "name": "",
          "type": "uint256"
        }
      ],
      "name": "royaltyFees",
      "outputs": [
        {
          "internalType": "uint256",
          "name": "",
          "type": "uint256"
        }
      ],
      "stateMutability": "view",
      "type": "function"
    },
    {
      "inputs": [
        {
          "internalType": "address",
          "name": "from",
          "type": "address"
        },
        {
          "internalType": "address",
          "name": "to",
          "type": "address"
        },
        {
          "internalType": "uint256[]",
          "name": "ids",
          "type": "uint256[]"
        },
        {
          "internalType": "uint256[]",
          "name": "amounts",
          "type": "uint256[]"
        },
        {
          "internalType": "bytes",
          "name": "data",
          "type": "bytes"
        }
      ],
      "name": "safeBatchTransferFrom",
      "outputs": [],
      "stateMutability": "nonpayable",
      "type": "function"
    },
    {
      "inputs": [
        {
          "internalType": "address",
          "name": "from",
          "type": "address"
        },
        {
          "internalType": "address",
          "name": "to",
          "type": "address"
        },
        {
          "internalType": "uint256",
          "name": "id",
          "type": "uint256"
        },
        {
          "internalType": "uint256",
          "name": "amount",
          "type": "uint256"
        },
        {
          "internalType": "bytes",
          "name": "data",
          "type": "bytes"
        }
      ],
      "name": "safeTransferFrom",
      "outputs": [],
      "stateMutability": "nonpayable",
      "type": "function"
    },
    {
      "inputs": [
        {
          "internalType": "address",
          "name": "operator",
          "type": "address"
        },
        {
          "internalType": "bool",
          "name": "approved",
          "type": "bool"
        }
      ],
      "name": "setApprovalForAll",
      "outputs": [],
      "stateMutability": "nonpayable",
      "type": "function"
    },
    {
      "inputs": [
        {
          "internalType": "string",
          "name": "contractURI_",
          "type": "string"
        }
      ],
      "name": "setContractURI",
      "outputs": [],
      "stateMutability": "payable",
      "type": "function"
    },
    {
      "inputs": [
        {
          "internalType": "uint256",
          "name": "_id",
          "type": "uint256"
        },
        {
          "internalType": "string",
          "name": "_uri",
          "type": "string"
        }
      ],
      "name": "setURI",
      "outputs": [],
      "stateMutability": "payable",
      "type": "function"
    },
    {
      "inputs": [
        {
          "internalType": "bytes4",
          "name": "interfaceId",
          "type": "bytes4"
        }
      ],
      "name": "supportsInterface",
      "outputs": [
        {
          "internalType": "bool",
          "name": "",
          "type": "bool"
        }
      ],
      "stateMutability": "view",
      "type": "function"
    },
    {
      "inputs": [],
      "name": "symbol",
      "outputs": [
        {
          "internalType": "string",
          "name": "",
          "type": "string"
        }
      ],
      "stateMutability": "view",
      "type": "function"
    },
    {
      "inputs": [
        {
          "internalType": "uint256",
          "name": "_id",
          "type": "uint256"
        }
      ],
      "name": "totalSupply",
      "outputs": [
        {
          "internalType": "uint256",
          "name": "",
          "type": "uint256"
        }
      ],
      "stateMutability": "view",
      "type": "function"
    },
    {
      "inputs": [
        {
          "internalType": "address",
          "name": "newOwner",
          "type": "address"
        }
      ],
      "name": "transferOwnership",
      "outputs": [],
      "stateMutability": "nonpayable",
      "type": "function"
    },
    {
      "inputs": [
        {
          "internalType": "uint256",
          "name": "_id",
          "type": "uint256"
        }
      ],
      "name": "uri",
      "outputs": [
        {
          "internalType": "string",
          "name": "",
          "type": "string"
        }
      ],
      "stateMutability": "view",
      "type": "function"
    }
  ],
  "bytecode": "0x61014060405260006004556000600e60006101000a81548160ff0219169083151502179055503480156200003257600080fd5b5060405162005004380380620050048339818101604052810190620000589190620005f0565b6040518060400160405280600f81526020017f4c617a794e46542d566f756368657200000000000000000000000000000000008152506040518060400160405280600181526020017f310000000000000000000000000000000000000000000000000000000000000081525060405180602001604052806000815250620000e5816200026560201b60201c565b5062000106620000fa6200028160201b60201c565b6200028960201b60201c565b60008280519060200120905060008280519060200120905060007f8b73c3c69bb8fe3d512ecc4cf759cc79239f7b179b0ffacaa9a75d522b39400f90508260e081815250508161010081815250504660a081815250506200016f8184846200034f60201b60201c565b608081815250503073ffffffffffffffffffffffffffffffffffffffff1660c08173ffffffffffffffffffffffffffffffffffffffff1660601b8152505080610120818152505050505050506001600e60006101000a81548160ff021916908315150217905550806006819055508360079080519060200190620001f5929190620004ab565b5082600890805190602001906200020e929190620004ab565b507f1d2cdeb916b6deaba04691992f0644f09c3074ecd87caa51ded4a31ca49e590a3383604051620002429291906200075a565b60405180910390a16200025b826200038b60201b60201c565b5050505062000a5c565b80600290805190602001906200027d929190620004ab565b5050565b600033905090565b6000600360009054906101000a900473ffffffffffffffffffffffffffffffffffffffff16905081600360006101000a81548173ffffffffffffffffffffffffffffffffffffffff021916908373ffffffffffffffffffffffffffffffffffffffff1602179055508173ffffffffffffffffffffffffffffffffffffffff168173ffffffffffffffffffffffffffffffffffffffff167f8be0079c531659141344cd1fd0a4f28419497f9722a3daafe3b4186f6b6457e060405160405180910390a35050565b600083838346306040516020016200036c9594939291906200078e565b6040516020818303038152906040528051906020012090509392505050565b6200039b620003f060201b60201c565b8060059080519060200190620003b3929190620004ab565b507fd5ee5eaf65263bab5d569890714d123ad48a9e54409d35e71d374f3dd300bba081604051620003e59190620007eb565b60405180910390a150565b620004006200028160201b60201c565b73ffffffffffffffffffffffffffffffffffffffff16620004266200048160201b60201c565b73ffffffffffffffffffffffffffffffffffffffff16146200047f576040517f08c379a000000000000000000000000000000000000000000000000000000000815260040162000476906200080f565b60405180910390fd5b565b6000600360009054906101000a900473ffffffffffffffffffffffffffffffffffffffff16905090565b828054620004b9906200092a565b90600052602060002090601f016020900481019282620004dd576000855562000529565b82601f10620004f857805160ff191683800117855562000529565b8280016001018555821562000529579182015b82811115620005285782518255916020019190600101906200050b565b5b5090506200053891906200053c565b5090565b5b80821115620005575760008160009055506001016200053d565b5090565b6000620005726200056c846200085a565b62000831565b905082815260208101848484011115620005915762000590620009f9565b5b6200059e848285620008f4565b509392505050565b600082601f830112620005be57620005bd620009f4565b5b8151620005d08482602086016200055b565b91505092915050565b600081519050620005ea8162000a42565b92915050565b600080600080608085870312156200060d576200060c62000a03565b5b600085015167ffffffffffffffff8111156200062e576200062d620009fe565b5b6200063c87828801620005a6565b945050602085015167ffffffffffffffff81111562000660576200065f620009fe565b5b6200066e87828801620005a6565b935050604085015167ffffffffffffffff811115620006925762000691620009fe565b5b620006a087828801620005a6565b9250506060620006b387828801620005d9565b91505092959194509250565b620006ca81620008ac565b82525050565b620006db81620008c0565b82525050565b6000620006ee8262000890565b620006fa81856200089b565b93506200070c818560208601620008f4565b620007178162000a08565b840191505092915050565b6000620007316020836200089b565b91506200073e8262000a19565b602082019050919050565b6200075481620008ea565b82525050565b6000604082019050620007716000830185620006bf565b8181036020830152620007858184620006e1565b90509392505050565b600060a082019050620007a56000830188620006d0565b620007b46020830187620006d0565b620007c36040830186620006d0565b620007d2606083018562000749565b620007e16080830184620006bf565b9695505050505050565b60006020820190508181036000830152620008078184620006e1565b905092915050565b600060208201905081810360008301526200082a8162000722565b9050919050565b60006200083d62000850565b90506200084b828262000960565b919050565b6000604051905090565b600067ffffffffffffffff821115620008785762000877620009c5565b5b620008838262000a08565b9050602081019050919050565b600081519050919050565b600082825260208201905092915050565b6000620008b982620008ca565b9050919050565b6000819050919050565b600073ffffffffffffffffffffffffffffffffffffffff82169050919050565b6000819050919050565b60005b8381101562000914578082015181840152602081019050620008f7565b8381111562000924576000848401525b50505050565b600060028204905060018216806200094357607f821691505b602082108114156200095a576200095962000996565b5b50919050565b6200096b8262000a08565b810181811067ffffffffffffffff821117156200098d576200098c620009c5565b5b80604052505050565b7f4e487b7100000000000000000000000000000000000000000000000000000000600052602260045260246000fd5b7f4e487b7100000000000000000000000000000000000000000000000000000000600052604160045260246000fd5b600080fd5b600080fd5b600080fd5b600080fd5b6000601f19601f8301169050919050565b7f4f776e61626c653a2063616c6c6572206973206e6f7420746865206f776e6572600082015250565b62000a4d81620008ea565b811462000a5957600080fd5b50565b60805160a05160c05160601c60e051610100516101205161456762000a9d6000396000505060005050600050506000505060005050600050506145676000f3fe6080604052600436106101b55760003560e01c8063862440e2116100ec578063bd85b0391161008a578063e985e9c511610064578063e985e9c514610634578063f06e6c9c14610671578063f242432a1461068d578063f2fde38b146106b6576101b5565b8063bd85b039146105a1578063d5391393146105de578063e8a3d48514610609576101b5565b806395d89b41116100c657806395d89b41146104f4578063991568431461051f578063a22cb4651461055c578063b390c0ab14610585576101b5565b8063862440e2146104915780638da5cb5b146104ad578063938e3d7b146104d8576101b5565b806335a05ad5116101595780637029144c116101335780637029144c146103e9578063715018a614610412578063832efb5a146104295780638584fa4614610454576101b5565b806335a05ad5146103325780634e1273f41461036f57806361aa8b00146103ac576101b5565b806306fdde031161019557806306fdde03146102645780630e89341c1461028f578063282b5063146102cc5780632eb2c2d614610309576101b5565b8062524e20146101ba578062fdd58e146101ea57806301ffc9a714610227575b600080fd5b6101d460048036038101906101cf9190612da4565b6106df565b6040516101e1919061391f565b60405180910390f35b3480156101f657600080fd5b50610211600480360381019061020c9190612e00565b6109a5565b60405161021e919061391f565b60405180910390f35b34801561023357600080fd5b5061024e60048036038101906102499190612eb8565b610a6e565b60405161025b9190613607565b60405180910390f35b34801561027057600080fd5b50610279610b50565b604051610286919061363d565b60405180910390f35b34801561029b57600080fd5b506102b660048036038101906102b19190612fd3565b610bde565b6040516102c3919061363d565b60405180910390f35b3480156102d857600080fd5b506102f360048036038101906102ee9190612fd3565b610cd1565b604051610300919061391f565b60405180910390f35b34801561031557600080fd5b50610330600480360381019061032b9190612bfe565b610cee565b005b34801561033e57600080fd5b5061035960048036038101906103549190612fd3565b610d8f565b60405161036691906134d1565b60405180910390f35b34801561037b57600080fd5b5061039660048036038101906103919190612e40565b610dc2565b6040516103a391906135ae565b60405180910390f35b3480156103b857600080fd5b506103d360048036038101906103ce9190612fd3565b610edb565b6040516103e0919061391f565b60405180910390f35b3480156103f557600080fd5b50610410600480360381019061040b9190612f5b565b610ef3565b005b34801561041e57600080fd5b50610427610f75565b005b34801561043557600080fd5b5061043e610f89565b60405161044b919061391f565b60405180910390f35b34801561046057600080fd5b5061047b60048036038101906104769190612fd3565b610f8f565b604051610488919061391f565b60405180910390f35b6104ab60048036038101906104a69190613000565b610fa7565b005b3480156104b957600080fd5b506104c2611054565b6040516104cf91906134d1565b60405180910390f35b6104f260048036038101906104ed9190612f12565b61107e565b005b34801561050057600080fd5b506105096110d7565b604051610516919061363d565b60405180910390f35b34801561052b57600080fd5b5061054660048036038101906105419190612fd3565b611165565b604051610553919061391f565b60405180910390f35b34801561056857600080fd5b50610583600480360381019061057e9190612d64565b61117d565b005b61059f600480360381019061059a919061305c565b611193565b005b3480156105ad57600080fd5b506105c860048036038101906105c39190612fd3565b6111f2565b6040516105d5919061391f565b60405180910390f35b3480156105ea57600080fd5b506105f361120f565b6040516106009190613622565b60405180910390f35b34801561061557600080fd5b5061061e611233565b60405161062b919061363d565b60405180910390f35b34801561064057600080fd5b5061065b60048036038101906106569190612bbe565b6112c5565b6040516106689190613607565b60405180910390f35b61068b60048036038101906106869190612bfe565b611359565b005b34801561069957600080fd5b506106b460048036038101906106af9190612ccd565b6113fa565b005b3480156106c257600080fd5b506106dd60048036038101906106d89190612b91565b61149b565b005b60006103e88260800151111561072a576040517f08c379a0000000000000000000000000000000000000000000000000000000008152600401610721906136bf565b60405180910390fd5b600061073461151f565b905060065481111561077b576040517f08c379a00000000000000000000000000000000000000000000000000000000081526004016107729061387f565b60405180910390fd5b8260800151836060015161078f9190613b39565b3410156107d1576040517f08c379a00000000000000000000000000000000000000000000000000000000081526004016107c8906137ff565b60405180910390fd5b600a600084600001518152602001908152602001600020548360400151600b600086600001518152602001908152602001600020546108109190613ae3565b11610850576040517f08c379a0000000000000000000000000000000000000000000000000000000008152600401610847906136ff565b60405180910390fd5b60008360800151146108985761087f848460000151856040015160405180602001604052806000815250611535565b6004600081548092919061089290613cc3565b91905055505b6000600a600085600001518152602001908152602001600020541415610953578260800151600a600085600001518152602001908152602001600020819055508260c00151600960008560000151815260200190815260200160002060006101000a81548173ffffffffffffffffffffffffffffffffffffffff021916908373ffffffffffffffffffffffffffffffffffffffff1602179055508260a00151600c600085600001518152602001908152602001600020819055505b61096583600001518460200151610fa7565b8260400151600b60008560000151815260200190815260200160002060008282546109909190613ae3565b92505081905550826000015191505092915050565b60008073ffffffffffffffffffffffffffffffffffffffff168373ffffffffffffffffffffffffffffffffffffffff161415610a16576040517f08c379a0000000000000000000000000000000000000000000000000000000008152600401610a0d9061375f565b60405180910390fd5b60008083815260200190815260200160002060008473ffffffffffffffffffffffffffffffffffffffff1673ffffffffffffffffffffffffffffffffffffffff16815260200190815260200160002054905092915050565b60007fd9b67a26000000000000000000000000000000000000000000000000000000007bffffffffffffffffffffffffffffffffffffffffffffffffffffffff1916827bffffffffffffffffffffffffffffffffffffffffffffffffffffffff19161480610b3957507f0e89341c000000000000000000000000000000000000000000000000000000007bffffffffffffffffffffffffffffffffffffffffffffffffffffffff1916827bffffffffffffffffffffffffffffffffffffffffffffffffffffffff1916145b80610b495750610b48826116e6565b5b9050919050565b60078054610b5d90613c60565b80601f0160208091040260200160405190810160405280929190818152602001828054610b8990613c60565b8015610bd65780601f10610bab57610100808354040283529160200191610bd6565b820191906000526020600020905b815481529060010190602001808311610bb957829003601f168201915b505050505081565b6060610be982611750565b610c28576040517f08c379a0000000000000000000000000000000000000000000000000000000008152600401610c1f9061385f565b60405180910390fd5b6000600d60008481526020019081526020016000208054610c4890613c60565b80601f0160208091040260200160405190810160405280929190818152602001828054610c7490613c60565b8015610cc15780601f10610c9657610100808354040283529160200191610cc1565b820191906000526020600020905b815481529060010190602001808311610ca457829003601f168201915b5050505050905080915050919050565b6000600b6000838152602001908152602001600020549050919050565b610cf66117bc565b73ffffffffffffffffffffffffffffffffffffffff168573ffffffffffffffffffffffffffffffffffffffff161480610d3c5750610d3b85610d366117bc565b6112c5565b5b610d7b576040517f08c379a0000000000000000000000000000000000000000000000000000000008152600401610d729061367f565b60405180910390fd5b610d8885858585856117c4565b5050505050565b60096020528060005260406000206000915054906101000a900473ffffffffffffffffffffffffffffffffffffffff1681565b60608151835114610e08576040517f08c379a0000000000000000000000000000000000000000000000000000000008152600401610dff906138bf565b60405180910390fd5b6000835167ffffffffffffffff811115610e2557610e24613d99565b5b604051908082528060200260200182016040528015610e535781602001602082028036833780820191505090505b50905060005b8451811015610ed057610ea0858281518110610e7857610e77613d6a565b5b6020026020010151858381518110610e9357610e92613d6a565b5b60200260200101516109a5565b828281518110610eb357610eb2613d6a565b5b60200260200101818152505080610ec990613cc3565b9050610e59565b508091505092915050565b600c6020528060005260406000206000915090505481565b600e60009054906101000a900460ff1615610f43576040517f08c379a0000000000000000000000000000000000000000000000000000000008152600401610f3a906137bf565b60405180910390fd5b8160079080519060200190610f599291906126f5565b508060089080519060200190610f709291906126f5565b505050565b610f7d611ae6565b610f876000611b64565b565b60045481565b600b6020528060005260406000206000915090505481565b610fb082611750565b610fef576040517f08c379a0000000000000000000000000000000000000000000000000000000008152600401610fe69061385f565b60405180910390fd5b80600d600084815260200190815260200160002090805190602001906110169291906126f5565b507f483621391b5e72d74eb03c7b5715531c486e326fb115ab3bcf34b133041854ce828260405161104892919061393a565b60405180910390a15050565b6000600360009054906101000a900473ffffffffffffffffffffffffffffffffffffffff16905090565b611086611ae6565b806005908051906020019061109c9291906126f5565b507fd5ee5eaf65263bab5d569890714d123ad48a9e54409d35e71d374f3dd300bba0816040516110cc919061363d565b60405180910390a150565b600880546110e490613c60565b80601f016020809104026020016040519081016040528092919081815260200182805461111090613c60565b801561115d5780601f106111325761010080835404028352916020019161115d565b820191906000526020600020905b81548152906001019060200180831161114057829003601f168201915b505050505081565b600a6020528060005260406000206000915090505481565b61118f6111886117bc565b8383611c2a565b5050565b61119b611ae6565b6111a482611750565b6111e3576040517f08c379a00000000000000000000000000000000000000000000000000000000081526004016111da9061373f565b60405180910390fd5b6111ee338383611d97565b5050565b6000600a6000838152602001908152602001600020549050919050565b7f9f2df0fed2c77648de5860a4cc508cd0818c85b8b8a1ab4ceeef8d981c8956a681565b60606005805461124290613c60565b80601f016020809104026020016040519081016040528092919081815260200182805461126e90613c60565b80156112bb5780601f10611290576101008083540402835291602001916112bb565b820191906000526020600020905b81548152906001019060200180831161129e57829003601f168201915b5050505050905090565b6000600160008473ffffffffffffffffffffffffffffffffffffffff1673ffffffffffffffffffffffffffffffffffffffff16815260200190815260200160002060008373ffffffffffffffffffffffffffffffffffffffff1673ffffffffffffffffffffffffffffffffffffffff16815260200190815260200160002060009054906101000a900460ff16905092915050565b6113616117bc565b73ffffffffffffffffffffffffffffffffffffffff168573ffffffffffffffffffffffffffffffffffffffff1614806113a757506113a6856113a16117bc565b6112c5565b5b6113e6576040517f08c379a00000000000000000000000000000000000000000000000000000000081526004016113dd9061379f565b60405180910390fd5b6113f38585858585610cee565b5050505050565b6114026117bc565b73ffffffffffffffffffffffffffffffffffffffff168573ffffffffffffffffffffffffffffffffffffffff1614806114485750611447856114426117bc565b6112c5565b5b611487576040517f08c379a000000000000000000000000000000000000000000000000000000000815260040161147e9061367f565b60405180910390fd5b6114948585858585611fde565b5050505050565b6114a3611ae6565b600073ffffffffffffffffffffffffffffffffffffffff168173ffffffffffffffffffffffffffffffffffffffff161415611513576040517f08c379a000000000000000000000000000000000000000000000000000000000815260040161150a906136df565b60405180910390fd5b61151c81611b64565b50565b600060016004546115309190613ae3565b905090565b600073ffffffffffffffffffffffffffffffffffffffff168473ffffffffffffffffffffffffffffffffffffffff1614156115a5576040517f08c379a000000000000000000000000000000000000000000000000000000000815260040161159c906138ff565b60405180910390fd5b60006115af6117bc565b905060006115bc8561227a565b905060006115c98561227a565b90506115da836000898585896122f4565b8460008088815260200190815260200160002060008973ffffffffffffffffffffffffffffffffffffffff1673ffffffffffffffffffffffffffffffffffffffff16815260200190815260200160002060008282546116399190613ae3565b925050819055508673ffffffffffffffffffffffffffffffffffffffff16600073ffffffffffffffffffffffffffffffffffffffff168473ffffffffffffffffffffffffffffffffffffffff167fc3d58168c5ae7397731d063d5bbf3d657854427343f4c083240f7aacaa2d0f6289896040516116b792919061396a565b60405180910390a46116ce836000898585896122fc565b6116dd83600089898989612304565b50505050505050565b60007f01ffc9a7000000000000000000000000000000000000000000000000000000007bffffffffffffffffffffffffffffffffffffffffffffffffffffffff1916827bffffffffffffffffffffffffffffffffffffffffffffffffffffffff1916149050919050565b60008073ffffffffffffffffffffffffffffffffffffffff166009600084815260200190815260200160002060009054906101000a900473ffffffffffffffffffffffffffffffffffffffff1673ffffffffffffffffffffffffffffffffffffffff1614159050919050565b600033905090565b8151835114611808576040517f08c379a00000000000000000000000000000000000000000000000000000000081526004016117ff906138df565b60405180910390fd5b600073ffffffffffffffffffffffffffffffffffffffff168473ffffffffffffffffffffffffffffffffffffffff161415611878576040517f08c379a000000000000000000000000000000000000000000000000000000000815260040161186f9061377f565b60405180910390fd5b60006118826117bc565b90506118928187878787876122f4565b60005b8451811015611a435760008582815181106118b3576118b2613d6a565b5b6020026020010151905060008583815181106118d2576118d1613d6a565b5b60200260200101519050600080600084815260200190815260200160002060008b73ffffffffffffffffffffffffffffffffffffffff1673ffffffffffffffffffffffffffffffffffffffff16815260200190815260200160002054905081811015611973576040517f08c379a000000000000000000000000000000000000000000000000000000000815260040161196a9061381f565b60405180910390fd5b81810360008085815260200190815260200160002060008c73ffffffffffffffffffffffffffffffffffffffff1673ffffffffffffffffffffffffffffffffffffffff168152602001908152602001600020819055508160008085815260200190815260200160002060008b73ffffffffffffffffffffffffffffffffffffffff1673ffffffffffffffffffffffffffffffffffffffff1681526020019081526020016000206000828254611a289190613ae3565b9250508190555050505080611a3c90613cc3565b9050611895565b508473ffffffffffffffffffffffffffffffffffffffff168673ffffffffffffffffffffffffffffffffffffffff168273ffffffffffffffffffffffffffffffffffffffff167f4a39dc06d4c0dbc64b70af90fd698a233a518aa5d07e595d983b8c0526c8f7fb8787604051611aba9291906135d0565b60405180910390a4611ad08187878787876122fc565b611ade8187878787876124eb565b505050505050565b611aee6117bc565b73ffffffffffffffffffffffffffffffffffffffff16611b0c611054565b73ffffffffffffffffffffffffffffffffffffffff1614611b62576040517f08c379a0000000000000000000000000000000000000000000000000000000008152600401611b599061383f565b60405180910390fd5b565b6000600360009054906101000a900473ffffffffffffffffffffffffffffffffffffffff16905081600360006101000a81548173ffffffffffffffffffffffffffffffffffffffff021916908373ffffffffffffffffffffffffffffffffffffffff1602179055508173ffffffffffffffffffffffffffffffffffffffff168173ffffffffffffffffffffffffffffffffffffffff167f8be0079c531659141344cd1fd0a4f28419497f9722a3daafe3b4186f6b6457e060405160405180910390a35050565b8173ffffffffffffffffffffffffffffffffffffffff168373ffffffffffffffffffffffffffffffffffffffff161415611c99576040517f08c379a0000000000000000000000000000000000000000000000000000000008152600401611c909061389f565b60405180910390fd5b80600160008573ffffffffffffffffffffffffffffffffffffffff1673ffffffffffffffffffffffffffffffffffffffff16815260200190815260200160002060008473ffffffffffffffffffffffffffffffffffffffff1673ffffffffffffffffffffffffffffffffffffffff16815260200190815260200160002060006101000a81548160ff0219169083151502179055508173ffffffffffffffffffffffffffffffffffffffff168373ffffffffffffffffffffffffffffffffffffffff167f17307eab39ab6107e8899845ad3d59bd9653f200f220920489ca2b5937696c3183604051611d8a9190613607565b60405180910390a3505050565b600073ffffffffffffffffffffffffffffffffffffffff168373ffffffffffffffffffffffffffffffffffffffff161415611e07576040517f08c379a0000000000000000000000000000000000000000000000000000000008152600401611dfe906137df565b60405180910390fd5b6000611e116117bc565b90506000611e1e8461227a565b90506000611e2b8461227a565b9050611e4b838760008585604051806020016040528060008152506122f4565b600080600087815260200190815260200160002060008873ffffffffffffffffffffffffffffffffffffffff1673ffffffffffffffffffffffffffffffffffffffff16815260200190815260200160002054905084811015611ee2576040517f08c379a0000000000000000000000000000000000000000000000000000000008152600401611ed99061371f565b60405180910390fd5b84810360008088815260200190815260200160002060008973ffffffffffffffffffffffffffffffffffffffff1673ffffffffffffffffffffffffffffffffffffffff16815260200190815260200160002081905550600073ffffffffffffffffffffffffffffffffffffffff168773ffffffffffffffffffffffffffffffffffffffff168573ffffffffffffffffffffffffffffffffffffffff167fc3d58168c5ae7397731d063d5bbf3d657854427343f4c083240f7aacaa2d0f628989604051611faf92919061396a565b60405180910390a4611fd5848860008686604051806020016040528060008152506122fc565b50505050505050565b600073ffffffffffffffffffffffffffffffffffffffff168473ffffffffffffffffffffffffffffffffffffffff16141561204e576040517f08c379a00000000000000000000000000000000000000000000000000000000081526004016120459061377f565b60405180910390fd5b60006120586117bc565b905060006120658561227a565b905060006120728561227a565b90506120828389898585896122f4565b600080600088815260200190815260200160002060008a73ffffffffffffffffffffffffffffffffffffffff1673ffffffffffffffffffffffffffffffffffffffff16815260200190815260200160002054905085811015612119576040517f08c379a00000000000000000000000000000000000000000000000000000000081526004016121109061381f565b60405180910390fd5b85810360008089815260200190815260200160002060008b73ffffffffffffffffffffffffffffffffffffffff1673ffffffffffffffffffffffffffffffffffffffff168152602001908152602001600020819055508560008089815260200190815260200160002060008a73ffffffffffffffffffffffffffffffffffffffff1673ffffffffffffffffffffffffffffffffffffffff16815260200190815260200160002060008282546121ce9190613ae3565b925050819055508773ffffffffffffffffffffffffffffffffffffffff168973ffffffffffffffffffffffffffffffffffffffff168573ffffffffffffffffffffffffffffffffffffffff167fc3d58168c5ae7397731d063d5bbf3d657854427343f4c083240f7aacaa2d0f628a8a60405161224b92919061396a565b60405180910390a4612261848a8a86868a6122fc565b61226f848a8a8a8a8a612304565b505050505050505050565b60606000600167ffffffffffffffff81111561229957612298613d99565b5b6040519080825280602002602001820160405280156122c75781602001602082028036833780820191505090505b50905082816000815181106122df576122de613d6a565b5b60200260200101818152505080915050919050565b505050505050565b505050505050565b6123238473ffffffffffffffffffffffffffffffffffffffff166126d2565b156124e3578373ffffffffffffffffffffffffffffffffffffffff1663f23a6e6187878686866040518663ffffffff1660e01b8152600401612369959493929190613554565b602060405180830381600087803b15801561238357600080fd5b505af19250505080156123b457506040513d601f19601f820116820180604052508101906123b19190612ee5565b60015b61245a576123c0613dc8565b806308c379a0141561241d57506123d5614411565b806123e0575061241f565b806040517f08c379a0000000000000000000000000000000000000000000000000000000008152600401612414919061363d565b60405180910390fd5b505b6040517f08c379a00000000000000000000000000000000000000000000000000000000081526004016124519061365f565b60405180910390fd5b63f23a6e6160e01b7bffffffffffffffffffffffffffffffffffffffffffffffffffffffff1916817bffffffffffffffffffffffffffffffffffffffffffffffffffffffff1916146124e1576040517f08c379a00000000000000000000000000000000000000000000000000000000081526004016124d89061369f565b60405180910390fd5b505b505050505050565b61250a8473ffffffffffffffffffffffffffffffffffffffff166126d2565b156126ca578373ffffffffffffffffffffffffffffffffffffffff1663bc197c8187878686866040518663ffffffff1660e01b81526004016125509594939291906134ec565b602060405180830381600087803b15801561256a57600080fd5b505af192505050801561259b57506040513d601f19601f820116820180604052508101906125989190612ee5565b60015b612641576125a7613dc8565b806308c379a0141561260457506125bc614411565b806125c75750612606565b806040517f08c379a00000000000000000000000000000000000000000000000000000000081526004016125fb919061363d565b60405180910390fd5b505b6040517f08c379a00000000000000000000000000000000000000000000000000000000081526004016126389061365f565b60405180910390fd5b63bc197c8160e01b7bffffffffffffffffffffffffffffffffffffffffffffffffffffffff1916817bffffffffffffffffffffffffffffffffffffffffffffffffffffffff1916146126c8576040517f08c379a00000000000000000000000000000000000000000000000000000000081526004016126bf9061369f565b60405180910390fd5b505b505050505050565b6000808273ffffffffffffffffffffffffffffffffffffffff163b119050919050565b82805461270190613c60565b90600052602060002090601f016020900481019282612723576000855561276a565b82601f1061273c57805160ff191683800117855561276a565b8280016001018555821561276a579182015b8281111561276957825182559160200191906001019061274e565b5b509050612777919061277b565b5090565b5b8082111561279457600081600090555060010161277c565b5090565b60006127ab6127a6846139b8565b613993565b905080838252602082019050828560208602820111156127ce576127cd613df9565b5b60005b858110156127fe57816127e488826128fc565b8452602084019350602083019250506001810190506127d1565b5050509392505050565b600061281b612816846139e4565b613993565b9050808382526020820190508285602086028201111561283e5761283d613df9565b5b60005b8581101561286e57816128548882612b67565b845260208401935060208301925050600181019050612841565b5050509392505050565b600061288b61288684613a10565b613993565b9050828152602081018484840111156128a7576128a6613dfe565b5b6128b2848285613c1e565b509392505050565b60006128cd6128c884613a41565b613993565b9050828152602081018484840111156128e9576128e8613dfe565b5b6128f4848285613c1e565b509392505050565b60008135905061290b816144a7565b92915050565b600082601f83011261292657612925613dea565b5b8135612936848260208601612798565b91505092915050565b600082601f83011261295457612953613dea565b5b8135612964848260208601612808565b91505092915050565b60008135905061297c816144be565b92915050565b600081359050612991816144d5565b92915050565b6000813590506129a6816144ec565b92915050565b6000815190506129bb816144ec565b92915050565b600082601f8301126129d6576129d5613dea565b5b81356129e6848260208601612878565b91505092915050565b600082601f830112612a0457612a03613dea565b5b8135612a148482602086016128ba565b91505092915050565b60006101408284031215612a3457612a33613def565b5b612a3f610100613993565b90506000612a4f84828501612b67565b600083015250602082013567ffffffffffffffff811115612a7357612a72613df4565b5b612a7f848285016129ef565b6020830152506040612a9384828501612b67565b6040830152506060612aa784828501612b67565b6060830152506080612abb84828501612b67565b60808301525060a0612acf84828501612b67565b60a08301525060c0612ae3848285016128fc565b60c08301525060e0612af784828501612b03565b60e08301525092915050565b600060608284031215612b1957612b18613def565b5b612b236060613993565b90506000612b3384828501612982565b6000830152506020612b4784828501612982565b6020830152506040612b5b84828501612b7c565b60408301525092915050565b600081359050612b7681614503565b92915050565b600081359050612b8b8161451a565b92915050565b600060208284031215612ba757612ba6613e08565b5b6000612bb5848285016128fc565b91505092915050565b60008060408385031215612bd557612bd4613e08565b5b6000612be3858286016128fc565b9250506020612bf4858286016128fc565b9150509250929050565b600080600080600060a08688031215612c1a57612c19613e08565b5b6000612c28888289016128fc565b9550506020612c39888289016128fc565b945050604086013567ffffffffffffffff811115612c5a57612c59613e03565b5b612c668882890161293f565b935050606086013567ffffffffffffffff811115612c8757612c86613e03565b5b612c938882890161293f565b925050608086013567ffffffffffffffff811115612cb457612cb3613e03565b5b612cc0888289016129c1565b9150509295509295909350565b600080600080600060a08688031215612ce957612ce8613e08565b5b6000612cf7888289016128fc565b9550506020612d08888289016128fc565b9450506040612d1988828901612b67565b9350506060612d2a88828901612b67565b925050608086013567ffffffffffffffff811115612d4b57612d4a613e03565b5b612d57888289016129c1565b9150509295509295909350565b60008060408385031215612d7b57612d7a613e08565b5b6000612d89858286016128fc565b9250506020612d9a8582860161296d565b9150509250929050565b60008060408385031215612dbb57612dba613e08565b5b6000612dc9858286016128fc565b925050602083013567ffffffffffffffff811115612dea57612de9613e03565b5b612df685828601612a1d565b9150509250929050565b60008060408385031215612e1757612e16613e08565b5b6000612e25858286016128fc565b9250506020612e3685828601612b67565b9150509250929050565b60008060408385031215612e5757612e56613e08565b5b600083013567ffffffffffffffff811115612e7557612e74613e03565b5b612e8185828601612911565b925050602083013567ffffffffffffffff811115612ea257612ea1613e03565b5b612eae8582860161293f565b9150509250929050565b600060208284031215612ece57612ecd613e08565b5b6000612edc84828501612997565b91505092915050565b600060208284031215612efb57612efa613e08565b5b6000612f09848285016129ac565b91505092915050565b600060208284031215612f2857612f27613e08565b5b600082013567ffffffffffffffff811115612f4657612f45613e03565b5b612f52848285016129ef565b91505092915050565b60008060408385031215612f7257612f71613e08565b5b600083013567ffffffffffffffff811115612f9057612f8f613e03565b5b612f9c858286016129ef565b925050602083013567ffffffffffffffff811115612fbd57612fbc613e03565b5b612fc9858286016129ef565b9150509250929050565b600060208284031215612fe957612fe8613e08565b5b6000612ff784828501612b67565b91505092915050565b6000806040838503121561301757613016613e08565b5b600061302585828601612b67565b925050602083013567ffffffffffffffff81111561304657613045613e03565b5b613052858286016129ef565b9150509250929050565b6000806040838503121561307357613072613e08565b5b600061308185828601612b67565b925050602061309285828601612b67565b9150509250929050565b60006130a883836134b3565b60208301905092915050565b6130bd81613b93565b82525050565b60006130ce82613a82565b6130d88185613ab0565b93506130e383613a72565b8060005b838110156131145781516130fb888261309c565b975061310683613aa3565b9250506001810190506130e7565b5085935050505092915050565b61312a81613ba5565b82525050565b61313981613bb1565b82525050565b600061314a82613a8d565b6131548185613ac1565b9350613164818560208601613c2d565b61316d81613e0d565b840191505092915050565b600061318382613a98565b61318d8185613ad2565b935061319d818560208601613c2d565b6131a681613e0d565b840191505092915050565b60006131be603483613ad2565b91506131c982613e2b565b604082019050919050565b60006131e1602f83613ad2565b91506131ec82613e7a565b604082019050919050565b6000613204602883613ad2565b915061320f82613ec9565b604082019050919050565b6000613227602783613ad2565b915061323282613f18565b604082019050919050565b600061324a602683613ad2565b915061325582613f67565b604082019050919050565b600061326d600b83613ad2565b915061327882613fb6565b602082019050919050565b6000613290602483613ad2565b915061329b82613fdf565b604082019050919050565b60006132b3602083613ad2565b91506132be8261402e565b602082019050919050565b60006132d6602a83613ad2565b91506132e182614057565b604082019050919050565b60006132f9602583613ad2565b9150613304826140a6565b604082019050919050565b600061331c603283613ad2565b9150613327826140f5565b604082019050919050565b600061333f602c83613ad2565b915061334a82614144565b604082019050919050565b6000613362602383613ad2565b915061336d82614193565b604082019050919050565b6000613385601c83613ad2565b9150613390826141e2565b602082019050919050565b60006133a8602a83613ad2565b91506133b38261420b565b604082019050919050565b60006133cb602083613ad2565b91506133d68261425a565b602082019050919050565b60006133ee601e83613ad2565b91506133f982614283565b602082019050919050565b6000613411601783613ad2565b915061341c826142ac565b602082019050919050565b6000613434602983613ad2565b915061343f826142d5565b604082019050919050565b6000613457602983613ad2565b915061346282614324565b604082019050919050565b600061347a602883613ad2565b915061348582614373565b604082019050919050565b600061349d602183613ad2565b91506134a8826143c2565b604082019050919050565b6134bc81613c07565b82525050565b6134cb81613c07565b82525050565b60006020820190506134e660008301846130b4565b92915050565b600060a08201905061350160008301886130b4565b61350e60208301876130b4565b818103604083015261352081866130c3565b9050818103606083015261353481856130c3565b90508181036080830152613548818461313f565b90509695505050505050565b600060a08201905061356960008301886130b4565b61357660208301876130b4565b61358360408301866134c2565b61359060608301856134c2565b81810360808301526135a2818461313f565b90509695505050505050565b600060208201905081810360008301526135c881846130c3565b905092915050565b600060408201905081810360008301526135ea81856130c3565b905081810360208301526135fe81846130c3565b90509392505050565b600060208201905061361c6000830184613121565b92915050565b60006020820190506136376000830184613130565b92915050565b600060208201905081810360008301526136578184613178565b905092915050565b60006020820190508181036000830152613678816131b1565b9050919050565b60006020820190508181036000830152613698816131d4565b9050919050565b600060208201905081810360008301526136b8816131f7565b9050919050565b600060208201905081810360008301526136d88161321a565b9050919050565b600060208201905081810360008301526136f88161323d565b9050919050565b6000602082019050818103600083015261371881613260565b9050919050565b6000602082019050818103600083015261373881613283565b9050919050565b60006020820190508181036000830152613758816132a6565b9050919050565b60006020820190508181036000830152613778816132c9565b9050919050565b60006020820190508181036000830152613798816132ec565b9050919050565b600060208201905081810360008301526137b88161330f565b9050919050565b600060208201905081810360008301526137d881613332565b9050919050565b600060208201905081810360008301526137f881613355565b9050919050565b6000602082019050818103600083015261381881613378565b9050919050565b600060208201905081810360008301526138388161339b565b9050919050565b60006020820190508181036000830152613858816133be565b9050919050565b60006020820190508181036000830152613878816133e1565b9050919050565b6000602082019050818103600083015261389881613404565b9050919050565b600060208201905081810360008301526138b881613427565b9050919050565b600060208201905081810360008301526138d88161344a565b9050919050565b600060208201905081810360008301526138f88161346d565b9050919050565b6000602082019050818103600083015261391881613490565b9050919050565b600060208201905061393460008301846134c2565b92915050565b600060408201905061394f60008301856134c2565b81810360208301526139618184613178565b90509392505050565b600060408201905061397f60008301856134c2565b61398c60208301846134c2565b9392505050565b600061399d6139ae565b90506139a98282613c92565b919050565b6000604051905090565b600067ffffffffffffffff8211156139d3576139d2613d99565b5b602082029050602081019050919050565b600067ffffffffffffffff8211156139ff576139fe613d99565b5b602082029050602081019050919050565b600067ffffffffffffffff821115613a2b57613a2a613d99565b5b613a3482613e0d565b9050602081019050919050565b600067ffffffffffffffff821115613a5c57613a5b613d99565b5b613a6582613e0d565b9050602081019050919050565b6000819050602082019050919050565b600081519050919050565b600081519050919050565b600081519050919050565b6000602082019050919050565b600082825260208201905092915050565b600082825260208201905092915050565b600082825260208201905092915050565b6000613aee82613c07565b9150613af983613c07565b9250827fffffffffffffffffffffffffffffffffffffffffffffffffffffffffffffffff03821115613b2e57613b2d613d0c565b5b828201905092915050565b6000613b4482613c07565b9150613b4f83613c07565b9250817fffffffffffffffffffffffffffffffffffffffffffffffffffffffffffffffff0483118215151615613b8857613b87613d0c565b5b828202905092915050565b6000613b9e82613be7565b9050919050565b60008115159050919050565b6000819050919050565b60007fffffffff0000000000000000000000000000000000000000000000000000000082169050919050565b600073ffffffffffffffffffffffffffffffffffffffff82169050919050565b6000819050919050565b600060ff82169050919050565b82818337600083830152505050565b60005b83811015613c4b578082015181840152602081019050613c30565b83811115613c5a576000848401525b50505050565b60006002820490506001821680613c7857607f821691505b60208210811415613c8c57613c8b613d3b565b5b50919050565b613c9b82613e0d565b810181811067ffffffffffffffff82111715613cba57613cb9613d99565b5b80604052505050565b6000613cce82613c07565b91507fffffffffffffffffffffffffffffffffffffffffffffffffffffffffffffffff821415613d0157613d00613d0c565b5b600182019050919050565b7f4e487b7100000000000000000000000000000000000000000000000000000000600052601160045260246000fd5b7f4e487b7100000000000000000000000000000000000000000000000000000000600052602260045260246000fd5b7f4e487b7100000000000000000000000000000000000000000000000000000000600052603260045260246000fd5b7f4e487b7100000000000000000000000000000000000000000000000000000000600052604160045260246000fd5b600060033d1115613de75760046000803e613de4600051613e1e565b90505b90565b600080fd5b600080fd5b600080fd5b600080fd5b600080fd5b600080fd5b600080fd5b6000601f19601f8301169050919050565b60008160e01c9050919050565b7f455243313135353a207472616e7366657220746f206e6f6e204552433131353560008201527f526563656976657220696d706c656d656e746572000000000000000000000000602082015250565b7f455243313135353a2063616c6c6572206973206e6f7420746f6b656e206f776e60008201527f6572206e6f7220617070726f7665640000000000000000000000000000000000602082015250565b7f455243313135353a204552433131353552656365697665722072656a6563746560008201527f6420746f6b656e73000000000000000000000000000000000000000000000000602082015250565b7f496e697469616c20737570706c792063616e6e6f74206265206d6f726520746860008201527f616e203130303000000000000000000000000000000000000000000000000000602082015250565b7f4f776e61626c653a206e6577206f776e657220697320746865207a65726f206160008201527f6464726573730000000000000000000000000000000000000000000000000000602082015250565b7f416c6c206d696e74656421000000000000000000000000000000000000000000600082015250565b7f455243313135353a206275726e20616d6f756e7420657863656564732062616c60008201527f616e636500000000000000000000000000000000000000000000000000000000602082015250565b7f4552433131353520236275726e3a204e4f4e4558495354454e545f544f4b454e600082015250565b7f455243313135353a2061646472657373207a65726f206973206e6f742061207660008201527f616c6964206f776e657200000000000000000000000000000000000000000000602082015250565b7f455243313135353a207472616e7366657220746f20746865207a65726f20616460008201527f6472657373000000000000000000000000000000000000000000000000000000602082015250565b7f455243313135353a207472616e736665722063616c6c6572206973206e6f742060008201527f6f776e6572206e6f7220617070726f7665640000000000000000000000000000602082015250565b7f45524331353520547261646561626c65206d757374206e6f7420626520636f6e60008201527f7374727563746564207965740000000000000000000000000000000000000000602082015250565b7f455243313135353a206275726e2066726f6d20746865207a65726f206164647260008201527f6573730000000000000000000000000000000000000000000000000000000000602082015250565b7f496e73756666696369656e742066756e647320746f2072656465656d00000000600082015250565b7f455243313135353a20696e73756666696369656e742062616c616e636520666f60008201527f72207472616e7366657200000000000000000000000000000000000000000000602082015250565b7f4f776e61626c653a2063616c6c6572206973206e6f7420746865206f776e6572600082015250565b7f45524331313535237572693a204e4f4e4558495354454e545f544f4b454e0000600082015250565b7f466c7573686564206e667420746f74616c206c696d6974000000000000000000600082015250565b7f455243313135353a2073657474696e6720617070726f76616c2073746174757360008201527f20666f722073656c660000000000000000000000000000000000000000000000602082015250565b7f455243313135353a206163636f756e747320616e6420696473206c656e67746860008201527f206d69736d617463680000000000000000000000000000000000000000000000602082015250565b7f455243313135353a2069647320616e6420616d6f756e7473206c656e6774682060008201527f6d69736d61746368000000000000000000000000000000000000000000000000602082015250565b7f455243313135353a206d696e7420746f20746865207a65726f2061646472657360008201527f7300000000000000000000000000000000000000000000000000000000000000602082015250565b600060443d1015614421576144a4565b6144296139ae565b60043d036004823e80513d602482011167ffffffffffffffff821117156144515750506144a4565b808201805167ffffffffffffffff81111561446f57505050506144a4565b80602083010160043d03850181111561448c5750505050506144a4565b61449b82602001850186613c92565b82955050505050505b90565b6144b081613b93565b81146144bb57600080fd5b50565b6144c781613ba5565b81146144d257600080fd5b50565b6144de81613bb1565b81146144e957600080fd5b50565b6144f581613bbb565b811461450057600080fd5b50565b61450c81613c07565b811461451757600080fd5b50565b61452381613c11565b811461452e57600080fd5b5056fea2646970667358221220aed81c640a5f2e9e46cb7c63821c06eb1f75c236a88fef645db442451b92b4a164736f6c63430008050033",
  "linkReferences": {},
  "deployedLinkReferences": {}
}