{
  "_format": "hh-sol-artifact-1",
  "contractName": "Crea2orsNFT",
  "sourceName": "contracts/Crea2orsNFT_v3.3.sol",
  "abi": [
    {
      "inputs": [
        {
          "internalType": "string",
          "name": "name_",
          "type": "string"
        },
        {
          "internalType": "string",
          "name": "symbol_",
          "type": "string"
        },
        {
          "internalType": "string",
          "name": "contractURI_",
          "type": "string"
        },
        {
          "internalType": "uint256",
          "name": "totalLimit_",
          "type": "uint256"
        }
      ],
      "stateMutability": "nonpayable",
      "type": "constructor"
    },
    {
      "anonymous": false,
      "inputs": [
        {
          "indexed": true,
          "internalType": "address",
          "name": "account",
          "type": "address"
        },
        {
          "indexed": true,
          "internalType": "address",
          "name": "operator",
          "type": "address"
        },
        {
          "indexed": false,
          "internalType": "bool",
          "name": "approved",
          "type": "bool"
        }
      ],
      "name": "ApprovalForAll",
      "type": "event"
    },
    {
      "anonymous": false,
      "inputs": [
        {
          "indexed": false,
          "internalType": "address",
          "name": "",
          "type": "address"
        },
        {
          "indexed": false,
          "internalType": "string",
          "name": "",
          "type": "string"
        }
      ],
      "name": "ContractDeployed",
      "type": "event"
    },
    {
      "anonymous": false,
      "inputs": [
        {
          "indexed": false,
          "internalType": "string",
          "name": "",
          "type": "string"
        }
      ],
      "name": "ContractURIChanged",
      "type": "event"
    },
    {
      "anonymous": false,
      "inputs": [
        {
          "indexed": false,
          "internalType": "uint256",
          "name": "",
          "type": "uint256"
        }
      ],
      "name": "LazyMinted",
      "type": "event"
    },
    {
      "anonymous": false,
      "inputs": [
        {
          "indexed": false,
          "internalType": "uint256",
          "name": "",
          "type": "uint256"
        },
        {
          "indexed": false,
          "internalType": "uint256",
          "name": "",
          "type": "uint256"
        },
        {
          "indexed": false,
          "internalType": "address",
          "name": "",
          "type": "address"
        },
        {
          "indexed": false,
          "internalType": "address",
          "name": "",
          "type": "address"
        }
      ],
      "name": "NFTTransfered",
      "type": "event"
    },
    {
      "anonymous": false,
      "inputs": [
        {
          "indexed": true,
          "internalType": "address",
          "name": "previousOwner",
          "type": "address"
        },
        {
          "indexed": true,
          "internalType": "address",
          "name": "newOwner",
          "type": "address"
        }
      ],
      "name": "OwnershipTransferred",
      "type": "event"
    },
    {
      "anonymous": false,
      "inputs": [
        {
          "indexed": false,
          "internalType": "uint256",
          "name": "",
          "type": "uint256"
        },
        {
          "indexed": false,
          "internalType": "string",
          "name": "",
          "type": "string"
        }
      ],
      "name": "TokenURIChanged",
      "type": "event"
    },
    {
      "anonymous": false,
      "inputs": [
        {
          "indexed": true,
          "internalType": "address",
          "name": "operator",
          "type": "address"
        },
        {
          "indexed": true,
          "internalType": "address",
          "name": "from",
          "type": "address"
        },
        {
          "indexed": true,
          "internalType": "address",
          "name": "to",
          "type": "address"
        },
        {
          "indexed": false,
          "internalType": "uint256[]",
          "name": "ids",
          "type": "uint256[]"
        },
        {
          "indexed": false,
          "internalType": "uint256[]",
          "name": "values",
          "type": "uint256[]"
        }
      ],
      "name": "TransferBatch",
      "type": "event"
    },
    {
      "anonymous": false,
      "inputs": [
        {
          "indexed": true,
          "internalType": "address",
          "name": "operator",
          "type": "address"
        },
        {
          "indexed": true,
          "internalType": "address",
          "name": "from",
          "type": "address"
        },
        {
          "indexed": true,
          "internalType": "address",
          "name": "to",
          "type": "address"
        },
        {
          "indexed": false,
          "internalType": "uint256",
          "name": "id",
          "type": "uint256"
        },
        {
          "indexed": false,
          "internalType": "uint256",
          "name": "value",
          "type": "uint256"
        }
      ],
      "name": "TransferSingle",
      "type": "event"
    },
    {
      "anonymous": false,
      "inputs": [
        {
          "indexed": false,
          "internalType": "string",
          "name": "value",
          "type": "string"
        },
        {
          "indexed": true,
          "internalType": "uint256",
          "name": "id",
          "type": "uint256"
        }
      ],
      "name": "URI",
      "type": "event"
    },
    {
      "inputs": [],
      "name": "MINTER_ROLE",
      "outputs": [
        {
          "internalType": "bytes32",
          "name": "",
          "type": "bytes32"
        }
      ],
      "stateMutability": "view",
      "type": "function"
    },
    {
      "inputs": [],
      "name": "_currentTokenID",
      "outputs": [
        {
          "internalType": "uint256",
          "name": "",
          "type": "uint256"
        }
      ],
      "stateMutability": "view",
      "type": "function"
    },
    {
      "inputs": [
        {
          "internalType": "address",
          "name": "account",
          "type": "address"
        },
        {
          "internalType": "uint256",
          "name": "id",
          "type": "uint256"
        }
      ],
      "name": "balanceOf",
      "outputs": [
        {
          "internalType": "uint256",
          "name": "",
          "type": "uint256"
        }
      ],
      "stateMutability": "view",
      "type": "function"
    },
    {
      "inputs": [
        {
          "internalType": "address[]",
          "name": "accounts",
          "type": "address[]"
        },
        {
          "internalType": "uint256[]",
          "name": "ids",
          "type": "uint256[]"
        }
      ],
      "name": "balanceOfBatch",
      "outputs": [
        {
          "internalType": "uint256[]",
          "name": "",
          "type": "uint256[]"
        }
      ],
      "stateMutability": "view",
      "type": "function"
    },
    {
      "inputs": [
        {
          "internalType": "address",
          "name": "from",
          "type": "address"
        },
        {
          "internalType": "address",
          "name": "to",
          "type": "address"
        },
        {
          "internalType": "uint256[]",
          "name": "ids",
          "type": "uint256[]"
        },
        {
          "internalType": "uint256[]",
          "name": "amounts",
          "type": "uint256[]"
        },
        {
          "internalType": "bytes",
          "name": "data",
          "type": "bytes"
        }
      ],
      "name": "batchTransferFrom",
      "outputs": [],
      "stateMutability": "payable",
      "type": "function"
    },
    {
      "inputs": [
        {
          "internalType": "uint256",
          "name": "_id",
          "type": "uint256"
        },
        {
          "internalType": "uint256",
          "name": "_amount",
          "type": "uint256"
        }
      ],
      "name": "burn",
      "outputs": [],
      "stateMutability": "payable",
      "type": "function"
    },
    {
      "inputs": [],
      "name": "contractURI",
      "outputs": [
        {
          "internalType": "string",
          "name": "",
          "type": "string"
        }
      ],
      "stateMutability": "view",
      "type": "function"
    },
    {
      "inputs": [
        {
          "internalType": "uint256",
          "name": "",
          "type": "uint256"
        }
      ],
      "name": "curMintedSupplies",
      "outputs": [
        {
          "internalType": "uint256",
          "name": "",
          "type": "uint256"
        }
      ],
      "stateMutability": "view",
      "type": "function"
    },
    {
      "inputs": [
        {
          "internalType": "uint256",
          "name": "tokenID",
          "type": "uint256"
        }
      ],
      "name": "getCurMintedSupply",
      "outputs": [
        {
          "internalType": "uint256",
          "name": "",
          "type": "uint256"
        }
      ],
      "stateMutability": "view",
      "type": "function"
    },
    {
      "inputs": [
        {
          "internalType": "string",
          "name": "_name",
          "type": "string"
        },
        {
          "internalType": "string",
          "name": "_symbol",
          "type": "string"
        }
      ],
      "name": "init",
      "outputs": [],
      "stateMutability": "nonpayable",
      "type": "function"
    },
    {
      "inputs": [
        {
          "internalType": "uint256",
          "name": "",
          "type": "uint256"
        }
      ],
      "name": "initialSupplies",
      "outputs": [
        {
          "internalType": "uint256",
          "name": "",
          "type": "uint256"
        }
      ],
      "stateMutability": "view",
      "type": "function"
    },
    {
      "inputs": [
        {
          "internalType": "address",
          "name": "account",
          "type": "address"
        },
        {
          "internalType": "address",
          "name": "operator",
          "type": "address"
        }
      ],
      "name": "isApprovedForAll",
      "outputs": [
        {
          "internalType": "bool",
          "name": "",
          "type": "bool"
        }
      ],
      "stateMutability": "view",
      "type": "function"
    },
    {
      "inputs": [],
      "name": "name",
      "outputs": [
        {
          "internalType": "string",
          "name": "",
          "type": "string"
        }
      ],
      "stateMutability": "view",
      "type": "function"
    },
    {
      "inputs": [],
      "name": "owner",
      "outputs": [
        {
          "internalType": "address",
          "name": "",
          "type": "address"
        }
      ],
      "stateMutability": "view",
      "type": "function"
    },
    {
      "inputs": [
        {
          "internalType": "address",
          "name": "redeemer",
          "type": "address"
        },
        {
          "components": [
            {
              "internalType": "uint256",
              "name": "tokenId",
              "type": "uint256"
            },
            {
              "internalType": "string",
              "name": "metaUri",
              "type": "string"
            },
            {
              "internalType": "uint256",
              "name": "mintCount",
              "type": "uint256"
            },
            {
              "internalType": "uint256",
              "name": "initialSupply",
              "type": "uint256"
            },
            {
              "internalType": "uint256",
              "name": "royaltyFee",
              "type": "uint256"
            },
            {
              "internalType": "address",
              "name": "royaltyAddress",
              "type": "address"
            }
          ],
          "internalType": "struct Crea2orsNFT.NFTVoucher",
          "name": "voucher",
          "type": "tuple"
        }
      ],
      "name": "redeem",
      "outputs": [
        {
          "internalType": "uint256",
          "name": "",
          "type": "uint256"
        }
      ],
      "stateMutability": "payable",
      "type": "function"
    },
    {
      "inputs": [],
      "name": "renounceOwnership",
      "outputs": [],
      "stateMutability": "nonpayable",
      "type": "function"
    },
    {
      "inputs": [
        {
          "internalType": "uint256",
          "name": "",
          "type": "uint256"
        }
      ],
      "name": "royaltyAddresses",
      "outputs": [
        {
          "internalType": "address",
          "name": "",
          "type": "address"
        }
      ],
      "stateMutability": "view",
      "type": "function"
    },
    {
      "inputs": [
        {
          "internalType": "uint256",
          "name": "",
          "type": "uint256"
        }
      ],
      "name": "royaltyFees",
      "outputs": [
        {
          "internalType": "uint256",
          "name": "",
          "type": "uint256"
        }
      ],
      "stateMutability": "view",
      "type": "function"
    },
    {
      "inputs": [
        {
          "internalType": "address",
          "name": "from",
          "type": "address"
        },
        {
          "internalType": "address",
          "name": "to",
          "type": "address"
        },
        {
          "internalType": "uint256[]",
          "name": "ids",
          "type": "uint256[]"
        },
        {
          "internalType": "uint256[]",
          "name": "amounts",
          "type": "uint256[]"
        },
        {
          "internalType": "bytes",
          "name": "data",
          "type": "bytes"
        }
      ],
      "name": "safeBatchTransferFrom",
      "outputs": [],
      "stateMutability": "nonpayable",
      "type": "function"
    },
    {
      "inputs": [
        {
          "internalType": "address",
          "name": "from",
          "type": "address"
        },
        {
          "internalType": "address",
          "name": "to",
          "type": "address"
        },
        {
          "internalType": "uint256",
          "name": "id",
          "type": "uint256"
        },
        {
          "internalType": "uint256",
          "name": "amount",
          "type": "uint256"
        },
        {
          "internalType": "bytes",
          "name": "data",
          "type": "bytes"
        }
      ],
      "name": "safeTransferFrom",
      "outputs": [],
      "stateMutability": "nonpayable",
      "type": "function"
    },
    {
      "inputs": [
        {
          "internalType": "address",
          "name": "operator",
          "type": "address"
        },
        {
          "internalType": "bool",
          "name": "approved",
          "type": "bool"
        }
      ],
      "name": "setApprovalForAll",
      "outputs": [],
      "stateMutability": "nonpayable",
      "type": "function"
    },
    {
      "inputs": [
        {
          "internalType": "string",
          "name": "contractURI_",
          "type": "string"
        }
      ],
      "name": "setContractURI",
      "outputs": [],
      "stateMutability": "payable",
      "type": "function"
    },
    {
      "inputs": [
        {
          "internalType": "uint256",
          "name": "_id",
          "type": "uint256"
        },
        {
          "internalType": "string",
          "name": "_uri",
          "type": "string"
        }
      ],
      "name": "setURI",
      "outputs": [],
      "stateMutability": "payable",
      "type": "function"
    },
    {
      "inputs": [
        {
          "internalType": "bytes4",
          "name": "interfaceId",
          "type": "bytes4"
        }
      ],
      "name": "supportsInterface",
      "outputs": [
        {
          "internalType": "bool",
          "name": "",
          "type": "bool"
        }
      ],
      "stateMutability": "view",
      "type": "function"
    },
    {
      "inputs": [],
      "name": "symbol",
      "outputs": [
        {
          "internalType": "string",
          "name": "",
          "type": "string"
        }
      ],
      "stateMutability": "view",
      "type": "function"
    },
    {
      "inputs": [
        {
          "internalType": "uint256",
          "name": "_id",
          "type": "uint256"
        }
      ],
      "name": "totalSupply",
      "outputs": [
        {
          "internalType": "uint256",
          "name": "",
          "type": "uint256"
        }
      ],
      "stateMutability": "view",
      "type": "function"
    },
    {
      "inputs": [
        {
          "internalType": "uint256",
          "name": "_id",
          "type": "uint256"
        },
        {
          "internalType": "uint256",
          "name": "_amount",
          "type": "uint256"
        },
        {
          "internalType": "address",
          "name": "from",
          "type": "address"
        },
        {
          "internalType": "address",
          "name": "to",
          "type": "address"
        }
      ],
      "name": "transferNFT",
      "outputs": [],
      "stateMutability": "nonpayable",
      "type": "function"
    },
    {
      "inputs": [
        {
          "internalType": "address",
          "name": "newOwner",
          "type": "address"
        }
      ],
      "name": "transferOwnership",
      "outputs": [],
      "stateMutability": "nonpayable",
      "type": "function"
    },
    {
      "inputs": [
        {
          "internalType": "uint256",
          "name": "_id",
          "type": "uint256"
        }
      ],
      "name": "uri",
      "outputs": [
        {
          "internalType": "string",
          "name": "",
          "type": "string"
        }
      ],
      "stateMutability": "view",
      "type": "function"
    }
  ],
  "bytecode": "0x61014060405260006004556000600e60006101000a81548160ff0219169083151502179055503480156200003257600080fd5b5060405162005092380380620050928339818101604052810190620000589190620005f0565b6040518060400160405280600f81526020017f4c617a794e46542d566f756368657200000000000000000000000000000000008152506040518060400160405280600181526020017f310000000000000000000000000000000000000000000000000000000000000081525060405180602001604052806000815250620000e5816200026560201b60201c565b5062000106620000fa6200028160201b60201c565b6200028960201b60201c565b60008280519060200120905060008280519060200120905060007f8b73c3c69bb8fe3d512ecc4cf759cc79239f7b179b0ffacaa9a75d522b39400f90508260e081815250508161010081815250504660a081815250506200016f8184846200034f60201b60201c565b608081815250503073ffffffffffffffffffffffffffffffffffffffff1660c08173ffffffffffffffffffffffffffffffffffffffff1660601b8152505080610120818152505050505050506001600e60006101000a81548160ff021916908315150217905550806006819055508360079080519060200190620001f5929190620004ab565b5082600890805190602001906200020e929190620004ab565b507f1d2cdeb916b6deaba04691992f0644f09c3074ecd87caa51ded4a31ca49e590a3383604051620002429291906200075a565b60405180910390a16200025b826200038b60201b60201c565b5050505062000a5c565b80600290805190602001906200027d929190620004ab565b5050565b600033905090565b6000600360009054906101000a900473ffffffffffffffffffffffffffffffffffffffff16905081600360006101000a81548173ffffffffffffffffffffffffffffffffffffffff021916908373ffffffffffffffffffffffffffffffffffffffff1602179055508173ffffffffffffffffffffffffffffffffffffffff168173ffffffffffffffffffffffffffffffffffffffff167f8be0079c531659141344cd1fd0a4f28419497f9722a3daafe3b4186f6b6457e060405160405180910390a35050565b600083838346306040516020016200036c9594939291906200078e565b6040516020818303038152906040528051906020012090509392505050565b6200039b620003f060201b60201c565b8060059080519060200190620003b3929190620004ab565b507fd5ee5eaf65263bab5d569890714d123ad48a9e54409d35e71d374f3dd300bba081604051620003e59190620007eb565b60405180910390a150565b620004006200028160201b60201c565b73ffffffffffffffffffffffffffffffffffffffff16620004266200048160201b60201c565b73ffffffffffffffffffffffffffffffffffffffff16146200047f576040517f08c379a000000000000000000000000000000000000000000000000000000000815260040162000476906200080f565b60405180910390fd5b565b6000600360009054906101000a900473ffffffffffffffffffffffffffffffffffffffff16905090565b828054620004b9906200092a565b90600052602060002090601f016020900481019282620004dd576000855562000529565b82601f10620004f857805160ff191683800117855562000529565b8280016001018555821562000529579182015b82811115620005285782518255916020019190600101906200050b565b5b5090506200053891906200053c565b5090565b5b80821115620005575760008160009055506001016200053d565b5090565b6000620005726200056c846200085a565b62000831565b905082815260208101848484011115620005915762000590620009f9565b5b6200059e848285620008f4565b509392505050565b600082601f830112620005be57620005bd620009f4565b5b8151620005d08482602086016200055b565b91505092915050565b600081519050620005ea8162000a42565b92915050565b600080600080608085870312156200060d576200060c62000a03565b5b600085015167ffffffffffffffff8111156200062e576200062d620009fe565b5b6200063c87828801620005a6565b945050602085015167ffffffffffffffff81111562000660576200065f620009fe565b5b6200066e87828801620005a6565b935050604085015167ffffffffffffffff811115620006925762000691620009fe565b5b620006a087828801620005a6565b9250506060620006b387828801620005d9565b91505092959194509250565b620006ca81620008ac565b82525050565b620006db81620008c0565b82525050565b6000620006ee8262000890565b620006fa81856200089b565b93506200070c818560208601620008f4565b620007178162000a08565b840191505092915050565b6000620007316020836200089b565b91506200073e8262000a19565b602082019050919050565b6200075481620008ea565b82525050565b6000604082019050620007716000830185620006bf565b8181036020830152620007858184620006e1565b90509392505050565b600060a082019050620007a56000830188620006d0565b620007b46020830187620006d0565b620007c36040830186620006d0565b620007d2606083018562000749565b620007e16080830184620006bf565b9695505050505050565b60006020820190508181036000830152620008078184620006e1565b905092915050565b600060208201905081810360008301526200082a8162000722565b9050919050565b60006200083d62000850565b90506200084b828262000960565b919050565b6000604051905090565b600067ffffffffffffffff821115620008785762000877620009c5565b5b620008838262000a08565b9050602081019050919050565b600081519050919050565b600082825260208201905092915050565b6000620008b982620008ca565b9050919050565b6000819050919050565b600073ffffffffffffffffffffffffffffffffffffffff82169050919050565b6000819050919050565b60005b8381101562000914578082015181840152602081019050620008f7565b8381111562000924576000848401525b50505050565b600060028204905060018216806200094357607f821691505b602082108114156200095a576200095962000996565b5b50919050565b6200096b8262000a08565b810181811067ffffffffffffffff821117156200098d576200098c620009c5565b5b80604052505050565b7f4e487b7100000000000000000000000000000000000000000000000000000000600052602260045260246000fd5b7f4e487b7100000000000000000000000000000000000000000000000000000000600052604160045260246000fd5b600080fd5b600080fd5b600080fd5b600080fd5b6000601f19601f8301169050919050565b7f4f776e61626c653a2063616c6c6572206973206e6f7420746865206f776e6572600082015250565b62000a4d81620008ea565b811462000a5957600080fd5b50565b60805160a05160c05160601c60e05161010051610120516145f562000a9d6000396000505060005050600050506000505060005050600050506145f56000f3fe6080604052600436106101c15760003560e01c8063862440e2116100f7578063b390c0ab11610095578063e985e9c511610064578063e985e9c514610669578063f06e6c9c146106a6578063f242432a146106c2578063f2fde38b146106eb576101c1565b8063b390c0ab146105ba578063bd85b039146105d6578063d539139314610613578063e8a3d4851461063e576101c1565b806395d89b41116100d157806395d89b4114610500578063991568431461052b578063a22cb46514610568578063a6f400fa14610591576101c1565b8063862440e21461049d5780638da5cb5b146104b9578063938e3d7b146104e4576101c1565b80634e1273f411610164578063715018a61161013e578063715018a6146103ee5780637afa85e814610405578063832efb5a146104355780638584fa4614610460576101c1565b80634e1273f41461034b57806361aa8b00146103885780637029144c146103c5576101c1565b80630e89341c116101a05780630e89341c1461026b578063282b5063146102a85780632eb2c2d6146102e557806335a05ad51461030e576101c1565b8062fdd58e146101c657806301ffc9a71461020357806306fdde0314610240575b600080fd5b3480156101d257600080fd5b506101ed60048036038101906101e89190612e0b565b610714565b6040516101fa91906139d4565b60405180910390f35b34801561020f57600080fd5b5061022a60048036038101906102259190612ec3565b6107dd565b604051610237919061369c565b60405180910390f35b34801561024c57600080fd5b506102556108bf565b60405161026291906136d2565b60405180910390f35b34801561027757600080fd5b50610292600480360381019061028d9190612fde565b61094d565b60405161029f91906136d2565b60405180910390f35b3480156102b457600080fd5b506102cf60048036038101906102ca9190612fde565b610a40565b6040516102dc91906139d4565b60405180910390f35b3480156102f157600080fd5b5061030c60048036038101906103079190612c09565b610a5d565b005b34801561031a57600080fd5b5061033560048036038101906103309190612fde565b610afe565b6040516103429190613566565b60405180910390f35b34801561035757600080fd5b50610372600480360381019061036d9190612e4b565b610b31565b60405161037f9190613643565b60405180910390f35b34801561039457600080fd5b506103af60048036038101906103aa9190612fde565b610c4a565b6040516103bc91906139d4565b60405180910390f35b3480156103d157600080fd5b506103ec60048036038101906103e79190612f66565b610c62565b005b3480156103fa57600080fd5b50610403610ce4565b005b61041f600480360381019061041a9190612daf565b610cf8565b60405161042c91906139d4565b60405180910390f35b34801561044157600080fd5b5061044a610fc0565b60405161045791906139d4565b60405180910390f35b34801561046c57600080fd5b5061048760048036038101906104829190612fde565b610fc6565b60405161049491906139d4565b60405180910390f35b6104b760048036038101906104b2919061300b565b610fde565b005b3480156104c557600080fd5b506104ce61108b565b6040516104db9190613566565b60405180910390f35b6104fe60048036038101906104f99190612f1d565b6110b5565b005b34801561050c57600080fd5b5061051561110e565b60405161052291906136d2565b60405180910390f35b34801561053757600080fd5b50610552600480360381019061054d9190612fde565b61119c565b60405161055f91906139d4565b60405180910390f35b34801561057457600080fd5b5061058f600480360381019061058a9190612d6f565b6111b4565b005b34801561059d57600080fd5b506105b860048036038101906105b391906130a7565b6111ca565b005b6105d460048036038101906105cf9190613067565b61126c565b005b3480156105e257600080fd5b506105fd60048036038101906105f89190612fde565b6112cb565b60405161060a91906139d4565b60405180910390f35b34801561061f57600080fd5b506106286112e8565b60405161063591906136b7565b60405180910390f35b34801561064a57600080fd5b5061065361130c565b60405161066091906136d2565b60405180910390f35b34801561067557600080fd5b50610690600480360381019061068b9190612bc9565b61139e565b60405161069d919061369c565b60405180910390f35b6106c060048036038101906106bb9190612c09565b611432565b005b3480156106ce57600080fd5b506106e960048036038101906106e49190612cd8565b6114d3565b005b3480156106f757600080fd5b50610712600480360381019061070d9190612b9c565b611574565b005b60008073ffffffffffffffffffffffffffffffffffffffff168373ffffffffffffffffffffffffffffffffffffffff161415610785576040517f08c379a000000000000000000000000000000000000000000000000000000000815260040161077c90613814565b60405180910390fd5b60008083815260200190815260200160002060008473ffffffffffffffffffffffffffffffffffffffff1673ffffffffffffffffffffffffffffffffffffffff16815260200190815260200160002054905092915050565b60007fd9b67a26000000000000000000000000000000000000000000000000000000007bffffffffffffffffffffffffffffffffffffffffffffffffffffffff1916827bffffffffffffffffffffffffffffffffffffffffffffffffffffffff191614806108a857507f0e89341c000000000000000000000000000000000000000000000000000000007bffffffffffffffffffffffffffffffffffffffffffffffffffffffff1916827bffffffffffffffffffffffffffffffffffffffffffffffffffffffff1916145b806108b857506108b7826115f8565b5b9050919050565b600780546108cc90613cf3565b80601f01602080910402602001604051908101604052809291908181526020018280546108f890613cf3565b80156109455780601f1061091a57610100808354040283529160200191610945565b820191906000526020600020905b81548152906001019060200180831161092857829003601f168201915b505050505081565b606061095882611662565b610997576040517f08c379a000000000000000000000000000000000000000000000000000000000815260040161098e90613914565b60405180910390fd5b6000600d600084815260200190815260200160002080546109b790613cf3565b80601f01602080910402602001604051908101604052809291908181526020018280546109e390613cf3565b8015610a305780601f10610a0557610100808354040283529160200191610a30565b820191906000526020600020905b815481529060010190602001808311610a1357829003601f168201915b5050505050905080915050919050565b6000600b6000838152602001908152602001600020549050919050565b610a656116ce565b73ffffffffffffffffffffffffffffffffffffffff168573ffffffffffffffffffffffffffffffffffffffff161480610aab5750610aaa85610aa56116ce565b61139e565b5b610aea576040517f08c379a0000000000000000000000000000000000000000000000000000000008152600401610ae190613714565b60405180910390fd5b610af785858585856116d6565b5050505050565b60096020528060005260406000206000915054906101000a900473ffffffffffffffffffffffffffffffffffffffff1681565b60608151835114610b77576040517f08c379a0000000000000000000000000000000000000000000000000000000008152600401610b6e90613974565b60405180910390fd5b6000835167ffffffffffffffff811115610b9457610b93613e2c565b5b604051908082528060200260200182016040528015610bc25781602001602082028036833780820191505090505b50905060005b8451811015610c3f57610c0f858281518110610be757610be6613dfd565b5b6020026020010151858381518110610c0257610c01613dfd565b5b6020026020010151610714565b828281518110610c2257610c21613dfd565b5b60200260200101818152505080610c3890613d56565b9050610bc8565b508091505092915050565b600c6020528060005260406000206000915090505481565b600e60009054906101000a900460ff1615610cb2576040517f08c379a0000000000000000000000000000000000000000000000000000000008152600401610ca990613894565b60405180910390fd5b8160079080519060200190610cc89291906127b8565b508060089080519060200190610cdf9291906127b8565b505050565b610cec6119f8565b610cf66000611a76565b565b60006103e882606001511115610d43576040517f08c379a0000000000000000000000000000000000000000000000000000000008152600401610d3a90613754565b60405180910390fd5b60065460045410610d89576040517f08c379a0000000000000000000000000000000000000000000000000000000008152600401610d8090613934565b60405180910390fd5b600082604001511415610dd1576040517f08c379a0000000000000000000000000000000000000000000000000000000008152600401610dc890613834565b60405180910390fd5b81600001516004541415610ea4578160600151600a600084600001518152602001908152602001600020819055508160a00151600960008460000151815260200190815260200160002060006101000a81548173ffffffffffffffffffffffffffffffffffffffff021916908373ffffffffffffffffffffffffffffffffffffffff1602179055508160800151600c60008460000151815260200190815260200160002081905550610e8b82600001518360200151610fde565b60046000815480929190610e9e90613d56565b91905055505b600a600083600001518152602001908152602001600020548260400151600b60008560000151815260200190815260200160002054610ee39190613bdd565b10610f23576040517f08c379a0000000000000000000000000000000000000000000000000000000008152600401610f1a90613794565b60405180910390fd5b610f46838360000151846040015160405180602001604052806000815250611b3c565b8160400151600b6000846000015181526020019081526020016000206000828254610f719190613bdd565b925050819055507f0cdae701ba22d312fc5289f8e5dcb104a74d66b544214e2f5d6c2c53c4e6f0db8260000151604051610fab91906139d4565b60405180910390a18160000151905092915050565b60045481565b600b6020528060005260406000206000915090505481565b610fe782611662565b611026576040517f08c379a000000000000000000000000000000000000000000000000000000000815260040161101d90613914565b60405180910390fd5b80600d6000848152602001908152602001600020908051906020019061104d9291906127b8565b507f483621391b5e72d74eb03c7b5715531c486e326fb115ab3bcf34b133041854ce828260405161107f9291906139ef565b60405180910390a15050565b6000600360009054906101000a900473ffffffffffffffffffffffffffffffffffffffff16905090565b6110bd6119f8565b80600590805190602001906110d39291906127b8565b507fd5ee5eaf65263bab5d569890714d123ad48a9e54409d35e71d374f3dd300bba08160405161110391906136d2565b60405180910390a150565b6008805461111b90613cf3565b80601f016020809104026020016040519081016040528092919081815260200182805461114790613cf3565b80156111945780601f1061116957610100808354040283529160200191611194565b820191906000526020600020905b81548152906001019060200180831161117757829003601f168201915b505050505081565b600a6020528060005260406000206000915090505481565b6111c66111bf6116ce565b8383611ced565b5050565b6000831161120d576040517f08c379a0000000000000000000000000000000000000000000000000000000008152600401611204906137d4565b60405180910390fd5b61122982828686604051806020016040528060008152506114d3565b7f0175694a85af06487c85f5a70828f4869e67481fd566a8c0316a88059d0f58738484848460405161125e9493929190613a48565b60405180910390a150505050565b6112746119f8565b61127d82611662565b6112bc576040517f08c379a00000000000000000000000000000000000000000000000000000000081526004016112b3906137f4565b60405180910390fd5b6112c7338383611e5a565b5050565b6000600a6000838152602001908152602001600020549050919050565b7f9f2df0fed2c77648de5860a4cc508cd0818c85b8b8a1ab4ceeef8d981c8956a681565b60606005805461131b90613cf3565b80601f016020809104026020016040519081016040528092919081815260200182805461134790613cf3565b80156113945780601f1061136957610100808354040283529160200191611394565b820191906000526020600020905b81548152906001019060200180831161137757829003601f168201915b5050505050905090565b6000600160008473ffffffffffffffffffffffffffffffffffffffff1673ffffffffffffffffffffffffffffffffffffffff16815260200190815260200160002060008373ffffffffffffffffffffffffffffffffffffffff1673ffffffffffffffffffffffffffffffffffffffff16815260200190815260200160002060009054906101000a900460ff16905092915050565b61143a6116ce565b73ffffffffffffffffffffffffffffffffffffffff168573ffffffffffffffffffffffffffffffffffffffff161480611480575061147f8561147a6116ce565b61139e565b5b6114bf576040517f08c379a00000000000000000000000000000000000000000000000000000000081526004016114b690613874565b60405180910390fd5b6114cc8585858585610a5d565b5050505050565b6114db6116ce565b73ffffffffffffffffffffffffffffffffffffffff168573ffffffffffffffffffffffffffffffffffffffff16148061152157506115208561151b6116ce565b61139e565b5b611560576040517f08c379a000000000000000000000000000000000000000000000000000000000815260040161155790613714565b60405180910390fd5b61156d85858585856120a1565b5050505050565b61157c6119f8565b600073ffffffffffffffffffffffffffffffffffffffff168173ffffffffffffffffffffffffffffffffffffffff1614156115ec576040517f08c379a00000000000000000000000000000000000000000000000000000000081526004016115e390613774565b60405180910390fd5b6115f581611a76565b50565b60007f01ffc9a7000000000000000000000000000000000000000000000000000000007bffffffffffffffffffffffffffffffffffffffffffffffffffffffff1916827bffffffffffffffffffffffffffffffffffffffffffffffffffffffff1916149050919050565b60008073ffffffffffffffffffffffffffffffffffffffff166009600084815260200190815260200160002060009054906101000a900473ffffffffffffffffffffffffffffffffffffffff1673ffffffffffffffffffffffffffffffffffffffff1614159050919050565b600033905090565b815183511461171a576040517f08c379a000000000000000000000000000000000000000000000000000000000815260040161171190613994565b60405180910390fd5b600073ffffffffffffffffffffffffffffffffffffffff168473ffffffffffffffffffffffffffffffffffffffff16141561178a576040517f08c379a000000000000000000000000000000000000000000000000000000000815260040161178190613854565b60405180910390fd5b60006117946116ce565b90506117a481878787878761233d565b60005b84518110156119555760008582815181106117c5576117c4613dfd565b5b6020026020010151905060008583815181106117e4576117e3613dfd565b5b60200260200101519050600080600084815260200190815260200160002060008b73ffffffffffffffffffffffffffffffffffffffff1673ffffffffffffffffffffffffffffffffffffffff16815260200190815260200160002054905081811015611885576040517f08c379a000000000000000000000000000000000000000000000000000000000815260040161187c906138d4565b60405180910390fd5b81810360008085815260200190815260200160002060008c73ffffffffffffffffffffffffffffffffffffffff1673ffffffffffffffffffffffffffffffffffffffff168152602001908152602001600020819055508160008085815260200190815260200160002060008b73ffffffffffffffffffffffffffffffffffffffff1673ffffffffffffffffffffffffffffffffffffffff168152602001908152602001600020600082825461193a9190613bdd565b925050819055505050508061194e90613d56565b90506117a7565b508473ffffffffffffffffffffffffffffffffffffffff168673ffffffffffffffffffffffffffffffffffffffff168273ffffffffffffffffffffffffffffffffffffffff167f4a39dc06d4c0dbc64b70af90fd698a233a518aa5d07e595d983b8c0526c8f7fb87876040516119cc929190613665565b60405180910390a46119e2818787878787612345565b6119f081878787878761234d565b505050505050565b611a006116ce565b73ffffffffffffffffffffffffffffffffffffffff16611a1e61108b565b73ffffffffffffffffffffffffffffffffffffffff1614611a74576040517f08c379a0000000000000000000000000000000000000000000000000000000008152600401611a6b906138f4565b60405180910390fd5b565b6000600360009054906101000a900473ffffffffffffffffffffffffffffffffffffffff16905081600360006101000a81548173ffffffffffffffffffffffffffffffffffffffff021916908373ffffffffffffffffffffffffffffffffffffffff1602179055508173ffffffffffffffffffffffffffffffffffffffff168173ffffffffffffffffffffffffffffffffffffffff167f8be0079c531659141344cd1fd0a4f28419497f9722a3daafe3b4186f6b6457e060405160405180910390a35050565b600073ffffffffffffffffffffffffffffffffffffffff168473ffffffffffffffffffffffffffffffffffffffff161415611bac576040517f08c379a0000000000000000000000000000000000000000000000000000000008152600401611ba3906139b4565b60405180910390fd5b6000611bb66116ce565b90506000611bc385612534565b90506000611bd085612534565b9050611be18360008985858961233d565b8460008088815260200190815260200160002060008973ffffffffffffffffffffffffffffffffffffffff1673ffffffffffffffffffffffffffffffffffffffff1681526020019081526020016000206000828254611c409190613bdd565b925050819055508673ffffffffffffffffffffffffffffffffffffffff16600073ffffffffffffffffffffffffffffffffffffffff168473ffffffffffffffffffffffffffffffffffffffff167fc3d58168c5ae7397731d063d5bbf3d657854427343f4c083240f7aacaa2d0f628989604051611cbe929190613a1f565b60405180910390a4611cd583600089858589612345565b611ce4836000898989896125ae565b50505050505050565b8173ffffffffffffffffffffffffffffffffffffffff168373ffffffffffffffffffffffffffffffffffffffff161415611d5c576040517f08c379a0000000000000000000000000000000000000000000000000000000008152600401611d5390613954565b60405180910390fd5b80600160008573ffffffffffffffffffffffffffffffffffffffff1673ffffffffffffffffffffffffffffffffffffffff16815260200190815260200160002060008473ffffffffffffffffffffffffffffffffffffffff1673ffffffffffffffffffffffffffffffffffffffff16815260200190815260200160002060006101000a81548160ff0219169083151502179055508173ffffffffffffffffffffffffffffffffffffffff168373ffffffffffffffffffffffffffffffffffffffff167f17307eab39ab6107e8899845ad3d59bd9653f200f220920489ca2b5937696c3183604051611e4d919061369c565b60405180910390a3505050565b600073ffffffffffffffffffffffffffffffffffffffff168373ffffffffffffffffffffffffffffffffffffffff161415611eca576040517f08c379a0000000000000000000000000000000000000000000000000000000008152600401611ec1906138b4565b60405180910390fd5b6000611ed46116ce565b90506000611ee184612534565b90506000611eee84612534565b9050611f0e8387600085856040518060200160405280600081525061233d565b600080600087815260200190815260200160002060008873ffffffffffffffffffffffffffffffffffffffff1673ffffffffffffffffffffffffffffffffffffffff16815260200190815260200160002054905084811015611fa5576040517f08c379a0000000000000000000000000000000000000000000000000000000008152600401611f9c906137b4565b60405180910390fd5b84810360008088815260200190815260200160002060008973ffffffffffffffffffffffffffffffffffffffff1673ffffffffffffffffffffffffffffffffffffffff16815260200190815260200160002081905550600073ffffffffffffffffffffffffffffffffffffffff168773ffffffffffffffffffffffffffffffffffffffff168573ffffffffffffffffffffffffffffffffffffffff167fc3d58168c5ae7397731d063d5bbf3d657854427343f4c083240f7aacaa2d0f628989604051612072929190613a1f565b60405180910390a461209884886000868660405180602001604052806000815250612345565b50505050505050565b600073ffffffffffffffffffffffffffffffffffffffff168473ffffffffffffffffffffffffffffffffffffffff161415612111576040517f08c379a000000000000000000000000000000000000000000000000000000000815260040161210890613854565b60405180910390fd5b600061211b6116ce565b9050600061212885612534565b9050600061213585612534565b905061214583898985858961233d565b600080600088815260200190815260200160002060008a73ffffffffffffffffffffffffffffffffffffffff1673ffffffffffffffffffffffffffffffffffffffff168152602001908152602001600020549050858110156121dc576040517f08c379a00000000000000000000000000000000000000000000000000000000081526004016121d3906138d4565b60405180910390fd5b85810360008089815260200190815260200160002060008b73ffffffffffffffffffffffffffffffffffffffff1673ffffffffffffffffffffffffffffffffffffffff168152602001908152602001600020819055508560008089815260200190815260200160002060008a73ffffffffffffffffffffffffffffffffffffffff1673ffffffffffffffffffffffffffffffffffffffff16815260200190815260200160002060008282546122919190613bdd565b925050819055508773ffffffffffffffffffffffffffffffffffffffff168973ffffffffffffffffffffffffffffffffffffffff168573ffffffffffffffffffffffffffffffffffffffff167fc3d58168c5ae7397731d063d5bbf3d657854427343f4c083240f7aacaa2d0f628a8a60405161230e929190613a1f565b60405180910390a4612324848a8a86868a612345565b612332848a8a8a8a8a6125ae565b505050505050505050565b505050505050565b505050505050565b61236c8473ffffffffffffffffffffffffffffffffffffffff16612795565b1561252c578373ffffffffffffffffffffffffffffffffffffffff1663bc197c8187878686866040518663ffffffff1660e01b81526004016123b2959493929190613581565b602060405180830381600087803b1580156123cc57600080fd5b505af19250505080156123fd57506040513d601f19601f820116820180604052508101906123fa9190612ef0565b60015b6124a357612409613e5b565b806308c379a01415612466575061241e6144cd565b806124295750612468565b806040517f08c379a000000000000000000000000000000000000000000000000000000000815260040161245d91906136d2565b60405180910390fd5b505b6040517f08c379a000000000000000000000000000000000000000000000000000000000815260040161249a906136f4565b60405180910390fd5b63bc197c8160e01b7bffffffffffffffffffffffffffffffffffffffffffffffffffffffff1916817bffffffffffffffffffffffffffffffffffffffffffffffffffffffff19161461252a576040517f08c379a000000000000000000000000000000000000000000000000000000000815260040161252190613734565b60405180910390fd5b505b505050505050565b60606000600167ffffffffffffffff81111561255357612552613e2c565b5b6040519080825280602002602001820160405280156125815781602001602082028036833780820191505090505b509050828160008151811061259957612598613dfd565b5b60200260200101818152505080915050919050565b6125cd8473ffffffffffffffffffffffffffffffffffffffff16612795565b1561278d578373ffffffffffffffffffffffffffffffffffffffff1663f23a6e6187878686866040518663ffffffff1660e01b81526004016126139594939291906135e9565b602060405180830381600087803b15801561262d57600080fd5b505af192505050801561265e57506040513d601f19601f8201168201806040525081019061265b9190612ef0565b60015b6127045761266a613e5b565b806308c379a014156126c7575061267f6144cd565b8061268a57506126c9565b806040517f08c379a00000000000000000000000000000000000000000000000000000000081526004016126be91906136d2565b60405180910390fd5b505b6040517f08c379a00000000000000000000000000000000000000000000000000000000081526004016126fb906136f4565b60405180910390fd5b63f23a6e6160e01b7bffffffffffffffffffffffffffffffffffffffffffffffffffffffff1916817bffffffffffffffffffffffffffffffffffffffffffffffffffffffff19161461278b576040517f08c379a000000000000000000000000000000000000000000000000000000000815260040161278290613734565b60405180910390fd5b505b505050505050565b6000808273ffffffffffffffffffffffffffffffffffffffff163b119050919050565b8280546127c490613cf3565b90600052602060002090601f0160209004810192826127e6576000855561282d565b82601f106127ff57805160ff191683800117855561282d565b8280016001018555821561282d579182015b8281111561282c578251825591602001919060010190612811565b5b50905061283a919061283e565b5090565b5b8082111561285757600081600090555060010161283f565b5090565b600061286e61286984613ab2565b613a8d565b9050808382526020820190508285602086028201111561289157612890613e8c565b5b60005b858110156128c157816128a788826129bf565b845260208401935060208301925050600181019050612894565b5050509392505050565b60006128de6128d984613ade565b613a8d565b9050808382526020820190508285602086028201111561290157612900613e8c565b5b60005b8581101561293157816129178882612b87565b845260208401935060208301925050600181019050612904565b5050509392505050565b600061294e61294984613b0a565b613a8d565b90508281526020810184848401111561296a57612969613e91565b5b612975848285613cb1565b509392505050565b600061299061298b84613b3b565b613a8d565b9050828152602081018484840111156129ac576129ab613e91565b5b6129b7848285613cb1565b509392505050565b6000813590506129ce81614563565b92915050565b600082601f8301126129e9576129e8613e7d565b5b81356129f984826020860161285b565b91505092915050565b600082601f830112612a1757612a16613e7d565b5b8135612a278482602086016128cb565b91505092915050565b600081359050612a3f8161457a565b92915050565b600081359050612a5481614591565b92915050565b600081519050612a6981614591565b92915050565b600082601f830112612a8457612a83613e7d565b5b8135612a9484826020860161293b565b91505092915050565b600082601f830112612ab257612ab1613e7d565b5b8135612ac284826020860161297d565b91505092915050565b600060c08284031215612ae157612ae0613e82565b5b612aeb60c0613a8d565b90506000612afb84828501612b87565b600083015250602082013567ffffffffffffffff811115612b1f57612b1e613e87565b5b612b2b84828501612a9d565b6020830152506040612b3f84828501612b87565b6040830152506060612b5384828501612b87565b6060830152506080612b6784828501612b87565b60808301525060a0612b7b848285016129bf565b60a08301525092915050565b600081359050612b96816145a8565b92915050565b600060208284031215612bb257612bb1613e9b565b5b6000612bc0848285016129bf565b91505092915050565b60008060408385031215612be057612bdf613e9b565b5b6000612bee858286016129bf565b9250506020612bff858286016129bf565b9150509250929050565b600080600080600060a08688031215612c2557612c24613e9b565b5b6000612c33888289016129bf565b9550506020612c44888289016129bf565b945050604086013567ffffffffffffffff811115612c6557612c64613e96565b5b612c7188828901612a02565b935050606086013567ffffffffffffffff811115612c9257612c91613e96565b5b612c9e88828901612a02565b925050608086013567ffffffffffffffff811115612cbf57612cbe613e96565b5b612ccb88828901612a6f565b9150509295509295909350565b600080600080600060a08688031215612cf457612cf3613e9b565b5b6000612d02888289016129bf565b9550506020612d13888289016129bf565b9450506040612d2488828901612b87565b9350506060612d3588828901612b87565b925050608086013567ffffffffffffffff811115612d5657612d55613e96565b5b612d6288828901612a6f565b9150509295509295909350565b60008060408385031215612d8657612d85613e9b565b5b6000612d94858286016129bf565b9250506020612da585828601612a30565b9150509250929050565b60008060408385031215612dc657612dc5613e9b565b5b6000612dd4858286016129bf565b925050602083013567ffffffffffffffff811115612df557612df4613e96565b5b612e0185828601612acb565b9150509250929050565b60008060408385031215612e2257612e21613e9b565b5b6000612e30858286016129bf565b9250506020612e4185828601612b87565b9150509250929050565b60008060408385031215612e6257612e61613e9b565b5b600083013567ffffffffffffffff811115612e8057612e7f613e96565b5b612e8c858286016129d4565b925050602083013567ffffffffffffffff811115612ead57612eac613e96565b5b612eb985828601612a02565b9150509250929050565b600060208284031215612ed957612ed8613e9b565b5b6000612ee784828501612a45565b91505092915050565b600060208284031215612f0657612f05613e9b565b5b6000612f1484828501612a5a565b91505092915050565b600060208284031215612f3357612f32613e9b565b5b600082013567ffffffffffffffff811115612f5157612f50613e96565b5b612f5d84828501612a9d565b91505092915050565b60008060408385031215612f7d57612f7c613e9b565b5b600083013567ffffffffffffffff811115612f9b57612f9a613e96565b5b612fa785828601612a9d565b925050602083013567ffffffffffffffff811115612fc857612fc7613e96565b5b612fd485828601612a9d565b9150509250929050565b600060208284031215612ff457612ff3613e9b565b5b600061300284828501612b87565b91505092915050565b6000806040838503121561302257613021613e9b565b5b600061303085828601612b87565b925050602083013567ffffffffffffffff81111561305157613050613e96565b5b61305d85828601612a9d565b9150509250929050565b6000806040838503121561307e5761307d613e9b565b5b600061308c85828601612b87565b925050602061309d85828601612b87565b9150509250929050565b600080600080608085870312156130c1576130c0613e9b565b5b60006130cf87828801612b87565b94505060206130e087828801612b87565b93505060406130f1878288016129bf565b9250506060613102878288016129bf565b91505092959194509250565b600061311a8383613548565b60208301905092915050565b61312f81613c33565b82525050565b600061314082613b7c565b61314a8185613baa565b935061315583613b6c565b8060005b8381101561318657815161316d888261310e565b975061317883613b9d565b925050600181019050613159565b5085935050505092915050565b61319c81613c45565b82525050565b6131ab81613c51565b82525050565b60006131bc82613b87565b6131c68185613bbb565b93506131d6818560208601613cc0565b6131df81613ea0565b840191505092915050565b60006131f582613b92565b6131ff8185613bcc565b935061320f818560208601613cc0565b61321881613ea0565b840191505092915050565b6000613230603483613bcc565b915061323b82613ebe565b604082019050919050565b6000613253602f83613bcc565b915061325e82613f0d565b604082019050919050565b6000613276602883613bcc565b915061328182613f5c565b604082019050919050565b6000613299602783613bcc565b91506132a482613fab565b604082019050919050565b60006132bc602683613bcc565b91506132c782613ffa565b604082019050919050565b60006132df600b83613bcc565b91506132ea82614049565b602082019050919050565b6000613302602483613bcc565b915061330d82614072565b604082019050919050565b6000613325601983613bcc565b9150613330826140c1565b602082019050919050565b6000613348602083613bcc565b9150613353826140ea565b602082019050919050565b600061336b602a83613bcc565b915061337682614113565b604082019050919050565b600061338e601783613bcc565b915061339982614162565b602082019050919050565b60006133b1602583613bcc565b91506133bc8261418b565b604082019050919050565b60006133d4603283613bcc565b91506133df826141da565b604082019050919050565b60006133f7602c83613bcc565b915061340282614229565b604082019050919050565b600061341a602383613bcc565b915061342582614278565b604082019050919050565b600061343d602a83613bcc565b9150613448826142c7565b604082019050919050565b6000613460602083613bcc565b915061346b82614316565b602082019050919050565b6000613483601e83613bcc565b915061348e8261433f565b602082019050919050565b60006134a6601783613bcc565b91506134b182614368565b602082019050919050565b60006134c9602983613bcc565b91506134d482614391565b604082019050919050565b60006134ec602983613bcc565b91506134f7826143e0565b604082019050919050565b600061350f602883613bcc565b915061351a8261442f565b604082019050919050565b6000613532602183613bcc565b915061353d8261447e565b604082019050919050565b61355181613ca7565b82525050565b61356081613ca7565b82525050565b600060208201905061357b6000830184613126565b92915050565b600060a0820190506135966000830188613126565b6135a36020830187613126565b81810360408301526135b58186613135565b905081810360608301526135c98185613135565b905081810360808301526135dd81846131b1565b90509695505050505050565b600060a0820190506135fe6000830188613126565b61360b6020830187613126565b6136186040830186613557565b6136256060830185613557565b818103608083015261363781846131b1565b90509695505050505050565b6000602082019050818103600083015261365d8184613135565b905092915050565b6000604082019050818103600083015261367f8185613135565b905081810360208301526136938184613135565b90509392505050565b60006020820190506136b16000830184613193565b92915050565b60006020820190506136cc60008301846131a2565b92915050565b600060208201905081810360008301526136ec81846131ea565b905092915050565b6000602082019050818103600083015261370d81613223565b9050919050565b6000602082019050818103600083015261372d81613246565b9050919050565b6000602082019050818103600083015261374d81613269565b9050919050565b6000602082019050818103600083015261376d8161328c565b9050919050565b6000602082019050818103600083015261378d816132af565b9050919050565b600060208201905081810360008301526137ad816132d2565b9050919050565b600060208201905081810360008301526137cd816132f5565b9050919050565b600060208201905081810360008301526137ed81613318565b9050919050565b6000602082019050818103600083015261380d8161333b565b9050919050565b6000602082019050818103600083015261382d8161335e565b9050919050565b6000602082019050818103600083015261384d81613381565b9050919050565b6000602082019050818103600083015261386d816133a4565b9050919050565b6000602082019050818103600083015261388d816133c7565b9050919050565b600060208201905081810360008301526138ad816133ea565b9050919050565b600060208201905081810360008301526138cd8161340d565b9050919050565b600060208201905081810360008301526138ed81613430565b9050919050565b6000602082019050818103600083015261390d81613453565b9050919050565b6000602082019050818103600083015261392d81613476565b9050919050565b6000602082019050818103600083015261394d81613499565b9050919050565b6000602082019050818103600083015261396d816134bc565b9050919050565b6000602082019050818103600083015261398d816134df565b9050919050565b600060208201905081810360008301526139ad81613502565b9050919050565b600060208201905081810360008301526139cd81613525565b9050919050565b60006020820190506139e96000830184613557565b92915050565b6000604082019050613a046000830185613557565b8181036020830152613a1681846131ea565b90509392505050565b6000604082019050613a346000830185613557565b613a416020830184613557565b9392505050565b6000608082019050613a5d6000830187613557565b613a6a6020830186613557565b613a776040830185613126565b613a846060830184613126565b95945050505050565b6000613a97613aa8565b9050613aa38282613d25565b919050565b6000604051905090565b600067ffffffffffffffff821115613acd57613acc613e2c565b5b602082029050602081019050919050565b600067ffffffffffffffff821115613af957613af8613e2c565b5b602082029050602081019050919050565b600067ffffffffffffffff821115613b2557613b24613e2c565b5b613b2e82613ea0565b9050602081019050919050565b600067ffffffffffffffff821115613b5657613b55613e2c565b5b613b5f82613ea0565b9050602081019050919050565b6000819050602082019050919050565b600081519050919050565b600081519050919050565b600081519050919050565b6000602082019050919050565b600082825260208201905092915050565b600082825260208201905092915050565b600082825260208201905092915050565b6000613be882613ca7565b9150613bf383613ca7565b9250827fffffffffffffffffffffffffffffffffffffffffffffffffffffffffffffffff03821115613c2857613c27613d9f565b5b828201905092915050565b6000613c3e82613c87565b9050919050565b60008115159050919050565b6000819050919050565b60007fffffffff0000000000000000000000000000000000000000000000000000000082169050919050565b600073ffffffffffffffffffffffffffffffffffffffff82169050919050565b6000819050919050565b82818337600083830152505050565b60005b83811015613cde578082015181840152602081019050613cc3565b83811115613ced576000848401525b50505050565b60006002820490506001821680613d0b57607f821691505b60208210811415613d1f57613d1e613dce565b5b50919050565b613d2e82613ea0565b810181811067ffffffffffffffff82111715613d4d57613d4c613e2c565b5b80604052505050565b6000613d6182613ca7565b91507fffffffffffffffffffffffffffffffffffffffffffffffffffffffffffffffff821415613d9457613d93613d9f565b5b600182019050919050565b7f4e487b7100000000000000000000000000000000000000000000000000000000600052601160045260246000fd5b7f4e487b7100000000000000000000000000000000000000000000000000000000600052602260045260246000fd5b7f4e487b7100000000000000000000000000000000000000000000000000000000600052603260045260246000fd5b7f4e487b7100000000000000000000000000000000000000000000000000000000600052604160045260246000fd5b600060033d1115613e7a5760046000803e613e77600051613eb1565b90505b90565b600080fd5b600080fd5b600080fd5b600080fd5b600080fd5b600080fd5b600080fd5b6000601f19601f8301169050919050565b60008160e01c9050919050565b7f455243313135353a207472616e7366657220746f206e6f6e204552433131353560008201527f526563656976657220696d706c656d656e746572000000000000000000000000602082015250565b7f455243313135353a2063616c6c6572206973206e6f7420746f6b656e206f776e60008201527f6572206e6f7220617070726f7665640000000000000000000000000000000000602082015250565b7f455243313135353a204552433131353552656365697665722072656a6563746560008201527f6420746f6b656e73000000000000000000000000000000000000000000000000602082015250565b7f496e697469616c20737570706c792063616e6e6f74206265206d6f726520746860008201527f616e203130303000000000000000000000000000000000000000000000000000602082015250565b7f4f776e61626c653a206e6577206f776e657220697320746865207a65726f206160008201527f6464726573730000000000000000000000000000000000000000000000000000602082015250565b7f416c6c206d696e74656421000000000000000000000000000000000000000000600082015250565b7f455243313135353a206275726e20616d6f756e7420657863656564732062616c60008201527f616e636500000000000000000000000000000000000000000000000000000000602082015250565b7f43616e206e6f74207472616e73666572207a65726f204e465400000000000000600082015250565b7f4552433131353520236275726e3a204e4f4e4558495354454e545f544f4b454e600082015250565b7f455243313135353a2061646472657373207a65726f206973206e6f742061207660008201527f616c6964206f776e657200000000000000000000000000000000000000000000602082015250565b7f43616e206e6f74206d696e74205a65726f20636f756e74000000000000000000600082015250565b7f455243313135353a207472616e7366657220746f20746865207a65726f20616460008201527f6472657373000000000000000000000000000000000000000000000000000000602082015250565b7f455243313135353a207472616e736665722063616c6c6572206973206e6f742060008201527f6f776e6572206e6f7220617070726f7665640000000000000000000000000000602082015250565b7f45524331353520547261646561626c65206d757374206e6f7420626520636f6e60008201527f7374727563746564207965740000000000000000000000000000000000000000602082015250565b7f455243313135353a206275726e2066726f6d20746865207a65726f206164647260008201527f6573730000000000000000000000000000000000000000000000000000000000602082015250565b7f455243313135353a20696e73756666696369656e742062616c616e636520666f60008201527f72207472616e7366657200000000000000000000000000000000000000000000602082015250565b7f4f776e61626c653a2063616c6c6572206973206e6f7420746865206f776e6572600082015250565b7f45524331313535237572693a204e4f4e4558495354454e545f544f4b454e0000600082015250565b7f466c7573686564206e667420746f74616c206c696d6974000000000000000000600082015250565b7f455243313135353a2073657474696e6720617070726f76616c2073746174757360008201527f20666f722073656c660000000000000000000000000000000000000000000000602082015250565b7f455243313135353a206163636f756e747320616e6420696473206c656e67746860008201527f206d69736d617463680000000000000000000000000000000000000000000000602082015250565b7f455243313135353a2069647320616e6420616d6f756e7473206c656e6774682060008201527f6d69736d61746368000000000000000000000000000000000000000000000000602082015250565b7f455243313135353a206d696e7420746f20746865207a65726f2061646472657360008201527f7300000000000000000000000000000000000000000000000000000000000000602082015250565b600060443d10156144dd57614560565b6144e5613aa8565b60043d036004823e80513d602482011167ffffffffffffffff8211171561450d575050614560565b808201805167ffffffffffffffff81111561452b5750505050614560565b80602083010160043d038501811115614548575050505050614560565b61455782602001850186613d25565b82955050505050505b90565b61456c81613c33565b811461457757600080fd5b50565b61458381613c45565b811461458e57600080fd5b50565b61459a81613c5b565b81146145a557600080fd5b50565b6145b181613ca7565b81146145bc57600080fd5b5056fea2646970667358221220aa38948aefd15f6adc0718316af414ff6c4dd88f8b2d272b980576d774a1295564736f6c63430008050033",
  "linkReferences": {},
  "deployedLinkReferences": {}
}