{
  "_format": "hh-sol-artifact-1",
  "contractName": "Crea2orsNFT",
  "sourceName": "contracts/Crea2orsNFT_v3.3.sol",
  "abi": [
    {
      "inputs": [
        {
          "internalType": "string",
          "name": "name_",
          "type": "string"
        },
        {
          "internalType": "string",
          "name": "symbol_",
          "type": "string"
        },
        {
          "internalType": "string",
          "name": "contractURI_",
          "type": "string"
        },
        {
          "internalType": "uint256",
          "name": "totalLimit_",
          "type": "uint256"
        }
      ],
      "stateMutability": "nonpayable",
      "type": "constructor"
    },
    {
      "anonymous": false,
      "inputs": [
        {
          "indexed": true,
          "internalType": "address",
          "name": "account",
          "type": "address"
        },
        {
          "indexed": true,
          "internalType": "address",
          "name": "operator",
          "type": "address"
        },
        {
          "indexed": false,
          "internalType": "bool",
          "name": "approved",
          "type": "bool"
        }
      ],
      "name": "ApprovalForAll",
      "type": "event"
    },
    {
      "anonymous": false,
      "inputs": [
        {
          "indexed": false,
          "internalType": "address",
          "name": "",
          "type": "address"
        },
        {
          "indexed": false,
          "internalType": "string",
          "name": "",
          "type": "string"
        }
      ],
      "name": "ContractDeployed",
      "type": "event"
    },
    {
      "anonymous": false,
      "inputs": [
        {
          "indexed": false,
          "internalType": "string",
          "name": "",
          "type": "string"
        }
      ],
      "name": "ContractURIChanged",
      "type": "event"
    },
    {
      "anonymous": false,
      "inputs": [
        {
          "indexed": false,
          "internalType": "uint256",
          "name": "",
          "type": "uint256"
        }
      ],
      "name": "LazyMinted",
      "type": "event"
    },
    {
      "anonymous": false,
      "inputs": [
        {
          "indexed": false,
          "internalType": "uint256",
          "name": "",
          "type": "uint256"
        },
        {
          "indexed": false,
          "internalType": "uint256",
          "name": "",
          "type": "uint256"
        },
        {
          "indexed": false,
          "internalType": "address",
          "name": "",
          "type": "address"
        },
        {
          "indexed": false,
          "internalType": "address",
          "name": "",
          "type": "address"
        }
      ],
      "name": "NFTTransfered",
      "type": "event"
    },
    {
      "anonymous": false,
      "inputs": [
        {
          "indexed": true,
          "internalType": "address",
          "name": "previousOwner",
          "type": "address"
        },
        {
          "indexed": true,
          "internalType": "address",
          "name": "newOwner",
          "type": "address"
        }
      ],
      "name": "OwnershipTransferred",
      "type": "event"
    },
    {
      "anonymous": false,
      "inputs": [
        {
          "indexed": false,
          "internalType": "uint256",
          "name": "",
          "type": "uint256"
        },
        {
          "indexed": false,
          "internalType": "string",
          "name": "",
          "type": "string"
        }
      ],
      "name": "TokenURIChanged",
      "type": "event"
    },
    {
      "anonymous": false,
      "inputs": [
        {
          "indexed": true,
          "internalType": "address",
          "name": "operator",
          "type": "address"
        },
        {
          "indexed": true,
          "internalType": "address",
          "name": "from",
          "type": "address"
        },
        {
          "indexed": true,
          "internalType": "address",
          "name": "to",
          "type": "address"
        },
        {
          "indexed": false,
          "internalType": "uint256[]",
          "name": "ids",
          "type": "uint256[]"
        },
        {
          "indexed": false,
          "internalType": "uint256[]",
          "name": "values",
          "type": "uint256[]"
        }
      ],
      "name": "TransferBatch",
      "type": "event"
    },
    {
      "anonymous": false,
      "inputs": [
        {
          "indexed": true,
          "internalType": "address",
          "name": "operator",
          "type": "address"
        },
        {
          "indexed": true,
          "internalType": "address",
          "name": "from",
          "type": "address"
        },
        {
          "indexed": true,
          "internalType": "address",
          "name": "to",
          "type": "address"
        },
        {
          "indexed": false,
          "internalType": "uint256",
          "name": "id",
          "type": "uint256"
        },
        {
          "indexed": false,
          "internalType": "uint256",
          "name": "value",
          "type": "uint256"
        }
      ],
      "name": "TransferSingle",
      "type": "event"
    },
    {
      "anonymous": false,
      "inputs": [
        {
          "indexed": false,
          "internalType": "string",
          "name": "value",
          "type": "string"
        },
        {
          "indexed": true,
          "internalType": "uint256",
          "name": "id",
          "type": "uint256"
        }
      ],
      "name": "URI",
      "type": "event"
    },
    {
      "inputs": [],
      "name": "MINTER_ROLE",
      "outputs": [
        {
          "internalType": "bytes32",
          "name": "",
          "type": "bytes32"
        }
      ],
      "stateMutability": "view",
      "type": "function"
    },
    {
      "inputs": [],
      "name": "_currentTokenID",
      "outputs": [
        {
          "internalType": "uint256",
          "name": "",
          "type": "uint256"
        }
      ],
      "stateMutability": "view",
      "type": "function"
    },
    {
      "inputs": [
        {
          "internalType": "address",
          "name": "account",
          "type": "address"
        },
        {
          "internalType": "uint256",
          "name": "id",
          "type": "uint256"
        }
      ],
      "name": "balanceOf",
      "outputs": [
        {
          "internalType": "uint256",
          "name": "",
          "type": "uint256"
        }
      ],
      "stateMutability": "view",
      "type": "function"
    },
    {
      "inputs": [
        {
          "internalType": "address[]",
          "name": "accounts",
          "type": "address[]"
        },
        {
          "internalType": "uint256[]",
          "name": "ids",
          "type": "uint256[]"
        }
      ],
      "name": "balanceOfBatch",
      "outputs": [
        {
          "internalType": "uint256[]",
          "name": "",
          "type": "uint256[]"
        }
      ],
      "stateMutability": "view",
      "type": "function"
    },
    {
      "inputs": [
        {
          "internalType": "address",
          "name": "from",
          "type": "address"
        },
        {
          "internalType": "address",
          "name": "to",
          "type": "address"
        },
        {
          "internalType": "uint256[]",
          "name": "ids",
          "type": "uint256[]"
        },
        {
          "internalType": "uint256[]",
          "name": "amounts",
          "type": "uint256[]"
        },
        {
          "internalType": "bytes",
          "name": "data",
          "type": "bytes"
        }
      ],
      "name": "batchTransferFrom",
      "outputs": [],
      "stateMutability": "payable",
      "type": "function"
    },
    {
      "inputs": [
        {
          "internalType": "uint256",
          "name": "_id",
          "type": "uint256"
        },
        {
          "internalType": "uint256",
          "name": "_amount",
          "type": "uint256"
        }
      ],
      "name": "burn",
      "outputs": [],
      "stateMutability": "payable",
      "type": "function"
    },
    {
      "inputs": [],
      "name": "contractURI",
      "outputs": [
        {
          "internalType": "string",
          "name": "",
          "type": "string"
        }
      ],
      "stateMutability": "view",
      "type": "function"
    },
    {
      "inputs": [
        {
          "internalType": "uint256",
          "name": "",
          "type": "uint256"
        }
      ],
      "name": "curMintedSupplies",
      "outputs": [
        {
          "internalType": "uint256",
          "name": "",
          "type": "uint256"
        }
      ],
      "stateMutability": "view",
      "type": "function"
    },
    {
      "inputs": [
        {
          "internalType": "uint256",
          "name": "tokenID",
          "type": "uint256"
        }
      ],
      "name": "getCurMintedSupply",
      "outputs": [
        {
          "internalType": "uint256",
          "name": "",
          "type": "uint256"
        }
      ],
      "stateMutability": "view",
      "type": "function"
    },
    {
      "inputs": [
        {
          "internalType": "string",
          "name": "_name",
          "type": "string"
        },
        {
          "internalType": "string",
          "name": "_symbol",
          "type": "string"
        }
      ],
      "name": "init",
      "outputs": [],
      "stateMutability": "nonpayable",
      "type": "function"
    },
    {
      "inputs": [
        {
          "internalType": "uint256",
          "name": "",
          "type": "uint256"
        }
      ],
      "name": "initialSupplies",
      "outputs": [
        {
          "internalType": "uint256",
          "name": "",
          "type": "uint256"
        }
      ],
      "stateMutability": "view",
      "type": "function"
    },
    {
      "inputs": [
        {
          "internalType": "address",
          "name": "account",
          "type": "address"
        },
        {
          "internalType": "address",
          "name": "operator",
          "type": "address"
        }
      ],
      "name": "isApprovedForAll",
      "outputs": [
        {
          "internalType": "bool",
          "name": "",
          "type": "bool"
        }
      ],
      "stateMutability": "view",
      "type": "function"
    },
    {
      "inputs": [],
      "name": "name",
      "outputs": [
        {
          "internalType": "string",
          "name": "",
          "type": "string"
        }
      ],
      "stateMutability": "view",
      "type": "function"
    },
    {
      "inputs": [],
      "name": "owner",
      "outputs": [
        {
          "internalType": "address",
          "name": "",
          "type": "address"
        }
      ],
      "stateMutability": "view",
      "type": "function"
    },
    {
      "inputs": [
        {
          "internalType": "address",
          "name": "redeemer",
          "type": "address"
        },
        {
          "components": [
            {
              "internalType": "uint256",
              "name": "tokenId",
              "type": "uint256"
            },
            {
              "internalType": "string",
              "name": "metaUri",
              "type": "string"
            },
            {
              "internalType": "uint256",
              "name": "mintCount",
              "type": "uint256"
            },
            {
              "internalType": "uint256",
              "name": "initialSupply",
              "type": "uint256"
            },
            {
              "internalType": "uint256",
              "name": "royaltyFee",
              "type": "uint256"
            },
            {
              "internalType": "address",
              "name": "royaltyAddress",
              "type": "address"
            }
          ],
          "internalType": "struct Crea2orsNFT.NFTVoucher",
          "name": "voucher",
          "type": "tuple"
        }
      ],
      "name": "redeem",
      "outputs": [
        {
          "internalType": "uint256",
          "name": "",
          "type": "uint256"
        }
      ],
      "stateMutability": "payable",
      "type": "function"
    },
    {
      "inputs": [],
      "name": "renounceOwnership",
      "outputs": [],
      "stateMutability": "nonpayable",
      "type": "function"
    },
    {
      "inputs": [
        {
          "internalType": "uint256",
          "name": "",
          "type": "uint256"
        }
      ],
      "name": "royaltyAddresses",
      "outputs": [
        {
          "internalType": "address",
          "name": "",
          "type": "address"
        }
      ],
      "stateMutability": "view",
      "type": "function"
    },
    {
      "inputs": [
        {
          "internalType": "uint256",
          "name": "",
          "type": "uint256"
        }
      ],
      "name": "royaltyFees",
      "outputs": [
        {
          "internalType": "uint256",
          "name": "",
          "type": "uint256"
        }
      ],
      "stateMutability": "view",
      "type": "function"
    },
    {
      "inputs": [
        {
          "internalType": "address",
          "name": "from",
          "type": "address"
        },
        {
          "internalType": "address",
          "name": "to",
          "type": "address"
        },
        {
          "internalType": "uint256[]",
          "name": "ids",
          "type": "uint256[]"
        },
        {
          "internalType": "uint256[]",
          "name": "amounts",
          "type": "uint256[]"
        },
        {
          "internalType": "bytes",
          "name": "data",
          "type": "bytes"
        }
      ],
      "name": "safeBatchTransferFrom",
      "outputs": [],
      "stateMutability": "nonpayable",
      "type": "function"
    },
    {
      "inputs": [
        {
          "internalType": "address",
          "name": "from",
          "type": "address"
        },
        {
          "internalType": "address",
          "name": "to",
          "type": "address"
        },
        {
          "internalType": "uint256",
          "name": "id",
          "type": "uint256"
        },
        {
          "internalType": "uint256",
          "name": "amount",
          "type": "uint256"
        },
        {
          "internalType": "bytes",
          "name": "data",
          "type": "bytes"
        }
      ],
      "name": "safeTransferFrom",
      "outputs": [],
      "stateMutability": "nonpayable",
      "type": "function"
    },
    {
      "inputs": [
        {
          "internalType": "address",
          "name": "operator",
          "type": "address"
        },
        {
          "internalType": "bool",
          "name": "approved",
          "type": "bool"
        }
      ],
      "name": "setApprovalForAll",
      "outputs": [],
      "stateMutability": "nonpayable",
      "type": "function"
    },
    {
      "inputs": [
        {
          "internalType": "string",
          "name": "contractURI_",
          "type": "string"
        }
      ],
      "name": "setContractURI",
      "outputs": [],
      "stateMutability": "payable",
      "type": "function"
    },
    {
      "inputs": [
        {
          "internalType": "uint256",
          "name": "_id",
          "type": "uint256"
        },
        {
          "internalType": "string",
          "name": "_uri",
          "type": "string"
        }
      ],
      "name": "setURI",
      "outputs": [],
      "stateMutability": "payable",
      "type": "function"
    },
    {
      "inputs": [
        {
          "internalType": "bytes4",
          "name": "interfaceId",
          "type": "bytes4"
        }
      ],
      "name": "supportsInterface",
      "outputs": [
        {
          "internalType": "bool",
          "name": "",
          "type": "bool"
        }
      ],
      "stateMutability": "view",
      "type": "function"
    },
    {
      "inputs": [],
      "name": "symbol",
      "outputs": [
        {
          "internalType": "string",
          "name": "",
          "type": "string"
        }
      ],
      "stateMutability": "view",
      "type": "function"
    },
    {
      "inputs": [
        {
          "internalType": "uint256",
          "name": "_id",
          "type": "uint256"
        }
      ],
      "name": "totalSupply",
      "outputs": [
        {
          "internalType": "uint256",
          "name": "",
          "type": "uint256"
        }
      ],
      "stateMutability": "view",
      "type": "function"
    },
    {
      "inputs": [
        {
          "internalType": "uint256",
          "name": "_id",
          "type": "uint256"
        },
        {
          "internalType": "uint256",
          "name": "_amount",
          "type": "uint256"
        },
        {
          "internalType": "address",
          "name": "from",
          "type": "address"
        },
        {
          "internalType": "address",
          "name": "to",
          "type": "address"
        }
      ],
      "name": "transferNFT",
      "outputs": [],
      "stateMutability": "nonpayable",
      "type": "function"
    },
    {
      "inputs": [
        {
          "internalType": "address",
          "name": "newOwner",
          "type": "address"
        }
      ],
      "name": "transferOwnership",
      "outputs": [],
      "stateMutability": "nonpayable",
      "type": "function"
    },
    {
      "inputs": [
        {
          "internalType": "uint256",
          "name": "_id",
          "type": "uint256"
        }
      ],
      "name": "uri",
      "outputs": [
        {
          "internalType": "string",
          "name": "",
          "type": "string"
        }
      ],
      "stateMutability": "view",
      "type": "function"
    }
  ],
  "bytecode": "0x6101406040526000600455600e805460ff191690553480156200002157600080fd5b50604051620033d7380380620033d7833981016040819052620000449162000434565b6040518060400160405280600f81526020016e2630bd3ca7232a16ab37bab1b432b960891b815250604051806040016040528060018152602001603160f81b81525060405180602001604052806000815250620000a781620001d560201b60201c565b50620000b333620001ee565b815160208084019190912082518383012060e08290526101008190524660a0818152604080517f8b73c3c69bb8fe3d512ecc4cf759cc79239f7b179b0ffacaa9a75d522b39400f81880181905281830187905260608201869052608082019490945230818401528151808203909301835260c00190528051940193909320919290916080523060601b60c052610120525050600e805460ff191660011790555050600681905583516200016e906007906020870190620002fd565b50825162000184906008906020860190620002fd565b507f1d2cdeb916b6deaba04691992f0644f09c3074ecd87caa51ded4a31ca49e590a3383604051620001b8929190620004fb565b60405180910390a1620001cb8262000240565b50505050620005cb565b8051620001ea906002906020840190620002fd565b5050565b600380546001600160a01b038381166001600160a01b0319831681179093556040519116919082907f8be0079c531659141344cd1fd0a4f28419497f9722a3daafe3b4186f6b6457e090600090a35050565b6200024a6200029c565b80516200025f906005906020840190620002fd565b507fd5ee5eaf65263bab5d569890714d123ad48a9e54409d35e71d374f3dd300bba08160405162000291919062000529565b60405180910390a150565b6003546001600160a01b03163314620002fb5760405162461bcd60e51b815260206004820181905260248201527f4f776e61626c653a2063616c6c6572206973206e6f7420746865206f776e6572604482015260640160405180910390fd5b565b8280546200030b9062000578565b90600052602060002090601f0160209004810192826200032f57600085556200037a565b82601f106200034a57805160ff19168380011785556200037a565b828001600101855582156200037a579182015b828111156200037a5782518255916020019190600101906200035d565b50620003889291506200038c565b5090565b5b808211156200038857600081556001016200038d565b600082601f830112620003b557600080fd5b81516001600160401b0380821115620003d257620003d2620005b5565b604051601f8301601f19908116603f01168101908282118183101715620003fd57620003fd620005b5565b816040528381528660208588010111156200041757600080fd5b6200042a84602083016020890162000545565b9695505050505050565b600080600080608085870312156200044b57600080fd5b84516001600160401b03808211156200046357600080fd5b6200047188838901620003a3565b955060208701519150808211156200048857600080fd5b6200049688838901620003a3565b94506040870151915080821115620004ad57600080fd5b50620004bc87828801620003a3565b606096909601519497939650505050565b60008151808452620004e781602086016020860162000545565b601f01601f19169290920160200192915050565b6001600160a01b03831681526040602082018190526000906200052190830184620004cd565b949350505050565b6020815260006200053e6020830184620004cd565b9392505050565b60005b838110156200056257818101518382015260200162000548565b8381111562000572576000848401525b50505050565b600181811c908216806200058d57607f821691505b60208210811415620005af57634e487b7160e01b600052602260045260246000fd5b50919050565b634e487b7160e01b600052604160045260246000fd5b60805160a05160c05160601c60e0516101005161012051612dcb6200060c600039600050506000505060005050600050506000505060005050612dcb6000f3fe6080604052600436106101c15760003560e01c8063862440e2116100f7578063b390c0ab11610095578063e985e9c511610064578063e985e9c514610563578063f06e6c9c146105b9578063f242432a146105cc578063f2fde38b146105ec57600080fd5b8063b390c0ab146104da578063bd85b039146104ed578063d53913931461051a578063e8a3d4851461054e57600080fd5b806395d89b41116100d157806395d89b4114610458578063991568431461046d578063a22cb4651461049a578063a6f400fa146104ba57600080fd5b8063862440e2146104075780638da5cb5b1461041a578063938e3d7b1461044557600080fd5b80634e1273f411610164578063715018a61161013e578063715018a61461039c5780637afa85e8146103b1578063832efb5a146103c45780638584fa46146103da57600080fd5b80634e1273f41461032257806361aa8b001461034f5780637029144c1461037c57600080fd5b80630e89341c116101a05780630e89341c1461024b578063282b50631461026b5780632eb2c2d61461029857806335a05ad5146102ba57600080fd5b8062fdd58e146101c657806301ffc9a7146101f957806306fdde0314610229575b600080fd5b3480156101d257600080fd5b506101e66101e1366004612684565b61060c565b6040519081526020015b60405180910390f35b34801561020557600080fd5b5061021961021436600461277f565b6106cf565b60405190151581526020016101f0565b34801561023557600080fd5b5061023e6107b4565b6040516101f09190612ab0565b34801561025757600080fd5b5061023e610266366004612850565b610842565b34801561027757600080fd5b506101e6610286366004612850565b6000908152600b602052604090205490565b3480156102a457600080fd5b506102b86102b336600461247c565b610955565b005b3480156102c657600080fd5b506102fd6102d5366004612850565b60096020526000908152604090205473ffffffffffffffffffffffffffffffffffffffff1681565b60405173ffffffffffffffffffffffffffffffffffffffff90911681526020016101f0565b34801561032e57600080fd5b5061034261033d3660046126ae565b610a04565b6040516101f09190612a6f565b34801561035b57600080fd5b506101e661036a366004612850565b600c6020526000908152604090205481565b34801561038857600080fd5b506102b86103973660046127f6565b610b42565b3480156103a857600080fd5b506102b8610be7565b6101e66103bf3660046125c7565b610bfb565b3480156103d057600080fd5b506101e660045481565b3480156103e657600080fd5b506101e66103f5366004612850565b600b6020526000908152604090205481565b6102b8610415366004612869565b610ed6565b34801561042657600080fd5b5060035473ffffffffffffffffffffffffffffffffffffffff166102fd565b6102b86104533660046127b9565b610fa4565b34801561046457600080fd5b5061023e610ffa565b34801561047957600080fd5b506101e6610488366004612850565b600a6020526000908152604090205481565b3480156104a657600080fd5b506102b86104b536600461258b565b611007565b3480156104c657600080fd5b506102b86104d53660046128c8565b611016565b6102b86104e83660046128a6565b6110e5565b3480156104f957600080fd5b506101e6610508366004612850565b6000908152600a602052604090205490565b34801561052657600080fd5b506101e67f9f2df0fed2c77648de5860a4cc508cd0818c85b8b8a1ab4ceeef8d981c8956a681565b34801561055a57600080fd5b5061023e611169565b34801561056f57600080fd5b5061021961057e366004612449565b73ffffffffffffffffffffffffffffffffffffffff918216600090815260016020908152604080832093909416825291909152205460ff1690565b6102b86105c736600461247c565b6111fb565b3480156105d857600080fd5b506102b86105e7366004612526565b6112a3565b3480156105f857600080fd5b506102b8610607366004612427565b61134b565b600073ffffffffffffffffffffffffffffffffffffffff831661069c5760405162461bcd60e51b815260206004820152602a60248201527f455243313135353a2061646472657373207a65726f206973206e6f742061207660448201527f616c6964206f776e65720000000000000000000000000000000000000000000060648201526084015b60405180910390fd5b5060009081526020818152604080832073ffffffffffffffffffffffffffffffffffffffff949094168352929052205490565b60007fffffffff0000000000000000000000000000000000000000000000000000000082167fd9b67a2600000000000000000000000000000000000000000000000000000000148061076257507fffffffff0000000000000000000000000000000000000000000000000000000082167f0e89341c00000000000000000000000000000000000000000000000000000000145b806107ae57507f01ffc9a7000000000000000000000000000000000000000000000000000000007fffffffff000000000000000000000000000000000000000000000000000000008316145b92915050565b600780546107c190612b18565b80601f01602080910402602001604051908101604052809291908181526020018280546107ed90612b18565b801561083a5780601f1061080f5761010080835404028352916020019161083a565b820191906000526020600020905b81548152906001019060200180831161081d57829003601f168201915b505050505081565b60008181526009602052604090205460609073ffffffffffffffffffffffffffffffffffffffff166108b65760405162461bcd60e51b815260206004820152601e60248201527f45524331313535237572693a204e4f4e4558495354454e545f544f4b454e00006044820152606401610693565b6000828152600d6020526040812080546108cf90612b18565b80601f01602080910402602001604051908101604052809291908181526020018280546108fb90612b18565b80156109485780601f1061091d57610100808354040283529160200191610948565b820191906000526020600020905b81548152906001019060200180831161092b57829003601f168201915b5093979650505050505050565b73ffffffffffffffffffffffffffffffffffffffff851633148061097e575061097e853361057e565b6109f05760405162461bcd60e51b815260206004820152602f60248201527f455243313135353a2063616c6c6572206973206e6f7420746f6b656e206f776e60448201527f6572206e6f7220617070726f76656400000000000000000000000000000000006064820152608401610693565b6109fd85858585856113e8565b5050505050565b60608151835114610a7d5760405162461bcd60e51b815260206004820152602960248201527f455243313135353a206163636f756e747320616e6420696473206c656e67746860448201527f206d69736d6174636800000000000000000000000000000000000000000000006064820152608401610693565b6000835167ffffffffffffffff811115610a9957610a99612c74565b604051908082528060200260200182016040528015610ac2578160200160208202803683370190505b50905060005b8451811015610b3a57610b0d858281518110610ae657610ae6612c45565b6020026020010151858381518110610b0057610b00612c45565b602002602001015161060c565b828281518110610b1f57610b1f612c45565b6020908102919091010152610b3381612bdd565b9050610ac8565b509392505050565b600e5460ff1615610bbb5760405162461bcd60e51b815260206004820152602c60248201527f45524331353520547261646561626c65206d757374206e6f7420626520636f6e60448201527f73747275637465642079657400000000000000000000000000000000000000006064820152608401610693565b8151610bce90600790602085019061225c565b508051610be290600890602084019061225c565b505050565b610bef6116d4565b610bf9600061173b565b565b60006103e882606001511115610c795760405162461bcd60e51b815260206004820152602760248201527f496e697469616c20737570706c792063616e6e6f74206265206d6f726520746860448201527f616e2031303030000000000000000000000000000000000000000000000000006064820152608401610693565b60065460045410610ccc5760405162461bcd60e51b815260206004820152601760248201527f466c7573686564206e667420746f74616c206c696d69740000000000000000006044820152606401610693565b6040820151610d1d5760405162461bcd60e51b815260206004820152601760248201527f43616e206e6f74206d696e74205a65726f20636f756e740000000000000000006044820152606401610693565b81516004541415610dd157606082015182516000908152600a602090815260408083209390935560a0850151855183526009825283832080547fffffffffffffffffffffffff00000000000000000000000000000000000000001673ffffffffffffffffffffffffffffffffffffffff909216919091179055608085015185518352600c82529290912091909155825190830151610dbb9190610ed6565b60048054906000610dcb83612bdd565b91905055505b81516000908152600a60209081526040808320548186015186518552600b909352922054610dff9190612b00565b10610e4c5760405162461bcd60e51b815260206004820152600b60248201527f416c6c206d696e746564210000000000000000000000000000000000000000006044820152606401610693565b610e6f8383600001518460400151604051806020016040528060008152506117b2565b60408083015183516000908152600b602052918220805491929091610e95908490612b00565b909155505081516040519081527f0cdae701ba22d312fc5289f8e5dcb104a74d66b544214e2f5d6c2c53c4e6f0db9060200160405180910390a15051919050565b60008281526009602052604090205473ffffffffffffffffffffffffffffffffffffffff16610f475760405162461bcd60e51b815260206004820152601e60248201527f45524331313535237572693a204e4f4e4558495354454e545f544f4b454e00006044820152606401610693565b6000828152600d602090815260409091208251610f669284019061225c565b507f483621391b5e72d74eb03c7b5715531c486e326fb115ab3bcf34b133041854ce8282604051610f98929190612ac3565b60405180910390a15050565b610fac6116d4565b8051610fbf90600590602084019061225c565b507fd5ee5eaf65263bab5d569890714d123ad48a9e54409d35e71d374f3dd300bba081604051610fef9190612ab0565b60405180910390a150565b600880546107c190612b18565b611012338383611909565b5050565b600083116110665760405162461bcd60e51b815260206004820152601960248201527f43616e206e6f74207472616e73666572207a65726f204e4654000000000000006044820152606401610693565b61108282828686604051806020016040528060008152506112a3565b604080518581526020810185905273ffffffffffffffffffffffffffffffffffffffff848116828401528316606082015290517f0175694a85af06487c85f5a70828f4869e67481fd566a8c0316a88059d0f58739181900360800190a150505050565b6110ed6116d4565b60008281526009602052604090205473ffffffffffffffffffffffffffffffffffffffff1661115e5760405162461bcd60e51b815260206004820181905260248201527f4552433131353520236275726e3a204e4f4e4558495354454e545f544f4b454e6044820152606401610693565b611012338383611a43565b60606005805461117890612b18565b80601f01602080910402602001604051908101604052809291908181526020018280546111a490612b18565b80156111f15780601f106111c6576101008083540402835291602001916111f1565b820191906000526020600020905b8154815290600101906020018083116111d457829003601f168201915b5050505050905090565b73ffffffffffffffffffffffffffffffffffffffff85163314806112245750611224853361057e565b6112965760405162461bcd60e51b815260206004820152603260248201527f455243313135353a207472616e736665722063616c6c6572206973206e6f742060448201527f6f776e6572206e6f7220617070726f76656400000000000000000000000000006064820152608401610693565b6109fd8585858585610955565b73ffffffffffffffffffffffffffffffffffffffff85163314806112cc57506112cc853361057e565b61133e5760405162461bcd60e51b815260206004820152602f60248201527f455243313135353a2063616c6c6572206973206e6f7420746f6b656e206f776e60448201527f6572206e6f7220617070726f76656400000000000000000000000000000000006064820152608401610693565b6109fd8585858585611c19565b6113536116d4565b73ffffffffffffffffffffffffffffffffffffffff81166113dc5760405162461bcd60e51b815260206004820152602660248201527f4f776e61626c653a206e6577206f776e657220697320746865207a65726f206160448201527f64647265737300000000000000000000000000000000000000000000000000006064820152608401610693565b6113e58161173b565b50565b815183511461145f5760405162461bcd60e51b815260206004820152602860248201527f455243313135353a2069647320616e6420616d6f756e7473206c656e6774682060448201527f6d69736d617463680000000000000000000000000000000000000000000000006064820152608401610693565b73ffffffffffffffffffffffffffffffffffffffff84166114e85760405162461bcd60e51b815260206004820152602560248201527f455243313135353a207472616e7366657220746f20746865207a65726f20616460448201527f64726573730000000000000000000000000000000000000000000000000000006064820152608401610693565b3360005b845181101561163f57600085828151811061150957611509612c45565b60200260200101519050600085838151811061152757611527612c45565b6020908102919091018101516000848152808352604080822073ffffffffffffffffffffffffffffffffffffffff8e1683529093529190912054909150818110156115da5760405162461bcd60e51b815260206004820152602a60248201527f455243313135353a20696e73756666696369656e742062616c616e636520666f60448201527f72207472616e73666572000000000000000000000000000000000000000000006064820152608401610693565b60008381526020818152604080832073ffffffffffffffffffffffffffffffffffffffff8e8116855292528083208585039055908b16825281208054849290611624908490612b00565b925050819055505050508061163890612bdd565b90506114ec565b508473ffffffffffffffffffffffffffffffffffffffff168673ffffffffffffffffffffffffffffffffffffffff168273ffffffffffffffffffffffffffffffffffffffff167f4a39dc06d4c0dbc64b70af90fd698a233a518aa5d07e595d983b8c0526c8f7fb87876040516116b6929190612a82565b60405180910390a46116cc818787878787611e23565b505050505050565b60035473ffffffffffffffffffffffffffffffffffffffff163314610bf95760405162461bcd60e51b815260206004820181905260248201527f4f776e61626c653a2063616c6c6572206973206e6f7420746865206f776e65726044820152606401610693565b6003805473ffffffffffffffffffffffffffffffffffffffff8381167fffffffffffffffffffffffff0000000000000000000000000000000000000000831681179093556040519116919082907f8be0079c531659141344cd1fd0a4f28419497f9722a3daafe3b4186f6b6457e090600090a35050565b73ffffffffffffffffffffffffffffffffffffffff841661183b5760405162461bcd60e51b815260206004820152602160248201527f455243313135353a206d696e7420746f20746865207a65726f2061646472657360448201527f73000000000000000000000000000000000000000000000000000000000000006064820152608401610693565b3360006118478561206f565b905060006118548561206f565b905060008681526020818152604080832073ffffffffffffffffffffffffffffffffffffffff8b16845290915281208054879290611893908490612b00565b9091555050604080518781526020810187905273ffffffffffffffffffffffffffffffffffffffff808a1692600092918716917fc3d58168c5ae7397731d063d5bbf3d657854427343f4c083240f7aacaa2d0f62910160405180910390a4611900836000898989896120ba565b50505050505050565b8173ffffffffffffffffffffffffffffffffffffffff168373ffffffffffffffffffffffffffffffffffffffff1614156119ab5760405162461bcd60e51b815260206004820152602960248201527f455243313135353a2073657474696e6720617070726f76616c2073746174757360448201527f20666f722073656c6600000000000000000000000000000000000000000000006064820152608401610693565b73ffffffffffffffffffffffffffffffffffffffff83811660008181526001602090815260408083209487168084529482529182902080547fffffffffffffffffffffffffffffffffffffffffffffffffffffffffffffff001686151590811790915591519182527f17307eab39ab6107e8899845ad3d59bd9653f200f220920489ca2b5937696c31910160405180910390a3505050565b73ffffffffffffffffffffffffffffffffffffffff8316611acc5760405162461bcd60e51b815260206004820152602360248201527f455243313135353a206275726e2066726f6d20746865207a65726f206164647260448201527f65737300000000000000000000000000000000000000000000000000000000006064820152608401610693565b336000611ad88461206f565b90506000611ae58461206f565b604080516020808201835260009182905288825281815282822073ffffffffffffffffffffffffffffffffffffffff8b1683529052205490915084811015611b945760405162461bcd60e51b8152602060048201526024808201527f455243313135353a206275726e20616d6f756e7420657863656564732062616c60448201527f616e6365000000000000000000000000000000000000000000000000000000006064820152608401610693565b60008681526020818152604080832073ffffffffffffffffffffffffffffffffffffffff8b81168086529184528285208a8703905582518b81529384018a90529092908816917fc3d58168c5ae7397731d063d5bbf3d657854427343f4c083240f7aacaa2d0f62910160405180910390a4604080516020810190915260009052611900565b73ffffffffffffffffffffffffffffffffffffffff8416611ca25760405162461bcd60e51b815260206004820152602560248201527f455243313135353a207472616e7366657220746f20746865207a65726f20616460448201527f64726573730000000000000000000000000000000000000000000000000000006064820152608401610693565b336000611cae8561206f565b90506000611cbb8561206f565b905060008681526020818152604080832073ffffffffffffffffffffffffffffffffffffffff8c16845290915290205485811015611d615760405162461bcd60e51b815260206004820152602a60248201527f455243313135353a20696e73756666696369656e742062616c616e636520666f60448201527f72207472616e73666572000000000000000000000000000000000000000000006064820152608401610693565b60008781526020818152604080832073ffffffffffffffffffffffffffffffffffffffff8d8116855292528083208985039055908a16825281208054889290611dab908490612b00565b9091555050604080518881526020810188905273ffffffffffffffffffffffffffffffffffffffff808b16928c821692918816917fc3d58168c5ae7397731d063d5bbf3d657854427343f4c083240f7aacaa2d0f62910160405180910390a4611e18848a8a8a8a8a6120ba565b505050505050505050565b73ffffffffffffffffffffffffffffffffffffffff84163b156116cc576040517fbc197c8100000000000000000000000000000000000000000000000000000000815273ffffffffffffffffffffffffffffffffffffffff85169063bc197c8190611e9a90899089908890889088906004016129b4565b602060405180830381600087803b158015611eb457600080fd5b505af1925050508015611f02575060408051601f3d9081017fffffffffffffffffffffffffffffffffffffffffffffffffffffffffffffffe0168201909252611eff9181019061279c565b60015b611fb857611f0e612ca3565b806308c379a01415611f485750611f23612cbf565b80611f2e5750611f4a565b8060405162461bcd60e51b81526004016106939190612ab0565b505b60405162461bcd60e51b815260206004820152603460248201527f455243313135353a207472616e7366657220746f206e6f6e204552433131353560448201527f526563656976657220696d706c656d656e7465720000000000000000000000006064820152608401610693565b7fffffffff0000000000000000000000000000000000000000000000000000000081167fbc197c8100000000000000000000000000000000000000000000000000000000146119005760405162461bcd60e51b815260206004820152602860248201527f455243313135353a204552433131353552656365697665722072656a6563746560448201527f6420746f6b656e730000000000000000000000000000000000000000000000006064820152608401610693565b604080516001808252818301909252606091600091906020808301908036833701905050905082816000815181106120a9576120a9612c45565b602090810291909101015292915050565b73ffffffffffffffffffffffffffffffffffffffff84163b156116cc576040517ff23a6e6100000000000000000000000000000000000000000000000000000000815273ffffffffffffffffffffffffffffffffffffffff85169063f23a6e61906121319089908990889088908890600401612a1f565b602060405180830381600087803b15801561214b57600080fd5b505af1925050508015612199575060408051601f3d9081017fffffffffffffffffffffffffffffffffffffffffffffffffffffffffffffffe01682019092526121969181019061279c565b60015b6121a557611f0e612ca3565b7fffffffff0000000000000000000000000000000000000000000000000000000081167ff23a6e6100000000000000000000000000000000000000000000000000000000146119005760405162461bcd60e51b815260206004820152602860248201527f455243313135353a204552433131353552656365697665722072656a6563746560448201527f6420746f6b656e730000000000000000000000000000000000000000000000006064820152608401610693565b82805461226890612b18565b90600052602060002090601f01602090048101928261228a57600085556122d0565b82601f106122a357805160ff19168380011785556122d0565b828001600101855582156122d0579182015b828111156122d05782518255916020019190600101906122b5565b506122dc9291506122e0565b5090565b5b808211156122dc57600081556001016122e1565b803573ffffffffffffffffffffffffffffffffffffffff8116811461231957600080fd5b919050565b600082601f83011261232f57600080fd5b8135602061233c82612adc565b6040516123498282612b92565b8381528281019150858301600585901b8701840188101561236957600080fd5b60005b858110156123885781358452928401929084019060010161236c565b5090979650505050505050565b600082601f8301126123a657600080fd5b813567ffffffffffffffff8111156123c0576123c0612c74565b6040516123f560207fffffffffffffffffffffffffffffffffffffffffffffffffffffffffffffffe0601f8501160182612b92565b81815284602083860101111561240a57600080fd5b816020850160208301376000918101602001919091529392505050565b60006020828403121561243957600080fd5b612442826122f5565b9392505050565b6000806040838503121561245c57600080fd5b612465836122f5565b9150612473602084016122f5565b90509250929050565b600080600080600060a0868803121561249457600080fd5b61249d866122f5565b94506124ab602087016122f5565b9350604086013567ffffffffffffffff808211156124c857600080fd5b6124d489838a0161231e565b945060608801359150808211156124ea57600080fd5b6124f689838a0161231e565b9350608088013591508082111561250c57600080fd5b5061251988828901612395565b9150509295509295909350565b600080600080600060a0868803121561253e57600080fd5b612547866122f5565b9450612555602087016122f5565b93506040860135925060608601359150608086013567ffffffffffffffff81111561257f57600080fd5b61251988828901612395565b6000806040838503121561259e57600080fd5b6125a7836122f5565b9150602083013580151581146125bc57600080fd5b809150509250929050565b600080604083850312156125da57600080fd5b6125e3836122f5565b9150602083013567ffffffffffffffff8082111561260057600080fd5b9084019060c0828703121561261457600080fd5b60405161262081612b6c565b8235815260208301358281111561263657600080fd5b61264288828601612395565b60208301525060408301356040820152606083013560608201526080830135608082015261267260a084016122f5565b60a08201528093505050509250929050565b6000806040838503121561269757600080fd5b6126a0836122f5565b946020939093013593505050565b600080604083850312156126c157600080fd5b823567ffffffffffffffff808211156126d957600080fd5b818501915085601f8301126126ed57600080fd5b813560206126fa82612adc565b6040516127078282612b92565b8381528281019150858301600585901b870184018b101561272757600080fd5b600096505b848710156127515761273d816122f5565b83526001969096019591830191830161272c565b509650508601359250508082111561276857600080fd5b506127758582860161231e565b9150509250929050565b60006020828403121561279157600080fd5b813561244281612d67565b6000602082840312156127ae57600080fd5b815161244281612d67565b6000602082840312156127cb57600080fd5b813567ffffffffffffffff8111156127e257600080fd5b6127ee84828501612395565b949350505050565b6000806040838503121561280957600080fd5b823567ffffffffffffffff8082111561282157600080fd5b61282d86838701612395565b9350602085013591508082111561284357600080fd5b5061277585828601612395565b60006020828403121561286257600080fd5b5035919050565b6000806040838503121561287c57600080fd5b82359150602083013567ffffffffffffffff81111561289a57600080fd5b61277585828601612395565b600080604083850312156128b957600080fd5b50508035926020909101359150565b600080600080608085870312156128de57600080fd5b84359350602085013592506128f5604086016122f5565b9150612903606086016122f5565b905092959194509250565b600081518084526020808501945080840160005b8381101561293e57815187529582019590820190600101612922565b509495945050505050565b6000815180845260005b8181101561296f57602081850181015186830182015201612953565b81811115612981576000602083870101525b50601f017fffffffffffffffffffffffffffffffffffffffffffffffffffffffffffffffe0169290920160200192915050565b600073ffffffffffffffffffffffffffffffffffffffff808816835280871660208401525060a060408301526129ed60a083018661290e565b82810360608401526129ff818661290e565b90508281036080840152612a138185612949565b98975050505050505050565b600073ffffffffffffffffffffffffffffffffffffffff808816835280871660208401525084604083015283606083015260a06080830152612a6460a0830184612949565b979650505050505050565b602081526000612442602083018461290e565b604081526000612a95604083018561290e565b8281036020840152612aa7818561290e565b95945050505050565b6020815260006124426020830184612949565b8281526040602082015260006127ee6040830184612949565b600067ffffffffffffffff821115612af657612af6612c74565b5060051b60200190565b60008219821115612b1357612b13612c16565b500190565b600181811c90821680612b2c57607f821691505b60208210811415612b66577f4e487b7100000000000000000000000000000000000000000000000000000000600052602260045260246000fd5b50919050565b60c0810181811067ffffffffffffffff82111715612b8c57612b8c612c74565b60405250565b7fffffffffffffffffffffffffffffffffffffffffffffffffffffffffffffffe0601f830116810181811067ffffffffffffffff82111715612bd657612bd6612c74565b6040525050565b60007fffffffffffffffffffffffffffffffffffffffffffffffffffffffffffffffff821415612c0f57612c0f612c16565b5060010190565b7f4e487b7100000000000000000000000000000000000000000000000000000000600052601160045260246000fd5b7f4e487b7100000000000000000000000000000000000000000000000000000000600052603260045260246000fd5b7f4e487b7100000000000000000000000000000000000000000000000000000000600052604160045260246000fd5b600060033d1115612cbc5760046000803e5060005160e01c5b90565b600060443d1015612ccd5790565b6040517ffffffffffffffffffffffffffffffffffffffffffffffffffffffffffffffffc803d016004833e81513d67ffffffffffffffff8160248401118184111715612d1b57505050505090565b8285019150815181811115612d335750505050505090565b843d8701016020828501011115612d4d5750505050505090565b612d5c60208286010187612b92565b509095945050505050565b7fffffffff00000000000000000000000000000000000000000000000000000000811681146113e557600080fdfea2646970667358221220ba9fdaac341249ed4b88e89f1a0c53edfb646a974e083fbbf9404a1ae2769c7d64736f6c63430008050033",
  "linkReferences": {},
  "deployedLinkReferences": {}
}